{
	"Remix Fund me/FundMe.sol": {
		"FundMe": {
			"abi": [
				{
					"inputs": [],
					"name": "fund",
					"outputs": [],
					"stateMutability": "payable",
					"type": "function"
				},
				{
					"inputs": [],
					"name": "myValue",
					"outputs": [
						{
							"internalType": "uint256",
							"name": "",
							"type": "uint256"
						}
					],
					"stateMutability": "view",
					"type": "function"
				}
			],
			"devdoc": {
				"kind": "dev",
				"methods": {},
				"version": 1
			},
			"evm": {
				"assembly": "    /* \"Remix Fund me/FundMe.sol\":147:924  contract FundMe{... */\n  mstore(0x40, 0x80)\n    /* \"Remix Fund me/FundMe.sol\":189:190  1 */\n  0x01\n    /* \"Remix Fund me/FundMe.sol\":169:190  uint public myValue=1 */\n  0x00\n  sstore\n    /* \"Remix Fund me/FundMe.sol\":147:924  contract FundMe{... */\n  callvalue\n  dup1\n  iszero\n  tag_1\n  jumpi\n  0x00\n  dup1\n  revert\ntag_1:\n  pop\n  dataSize(sub_0)\n  dup1\n  dataOffset(sub_0)\n  0x00\n  codecopy\n  0x00\n  return\nstop\n\nsub_0: assembly {\n        /* \"Remix Fund me/FundMe.sol\":147:924  contract FundMe{... */\n      mstore(0x40, 0x80)\n      jumpi(tag_1, lt(calldatasize, 0x04))\n      shr(0xe0, calldataload(0x00))\n      dup1\n      0x47f1aae7\n      eq\n      tag_2\n      jumpi\n      dup1\n      0xb60d4288\n      eq\n      tag_3\n      jumpi\n    tag_1:\n      0x00\n      dup1\n      revert\n        /* \"Remix Fund me/FundMe.sol\":169:190  uint public myValue=1 */\n    tag_2:\n      callvalue\n      dup1\n      iszero\n      tag_4\n      jumpi\n      0x00\n      dup1\n      revert\n    tag_4:\n      pop\n      tag_5\n      tag_6\n      jump\t// in\n    tag_5:\n      mload(0x40)\n      tag_7\n      swap2\n      swap1\n      tag_8\n      jump\t// in\n    tag_7:\n      mload(0x40)\n      dup1\n      swap2\n      sub\n      swap1\n      return\n        /* \"Remix Fund me/FundMe.sol\":197:921  function fund() public payable {... */\n    tag_3:\n      tag_9\n      tag_10\n      jump\t// in\n    tag_9:\n      stop\n        /* \"Remix Fund me/FundMe.sol\":169:190  uint public myValue=1 */\n    tag_6:\n      sload(0x00)\n      dup2\n      jump\t// out\n        /* \"Remix Fund me/FundMe.sol\":197:921  function fund() public payable {... */\n    tag_10:\n        /* \"Remix Fund me/FundMe.sol\":512:516  1e18 */\n      0x0de0b6b3a7640000\n        /* \"Remix Fund me/FundMe.sol\":500:509  msg.value */\n      callvalue\n        /* \"Remix Fund me/FundMe.sol\":500:516  msg.value > 1e18 */\n      gt\n        /* \"Remix Fund me/FundMe.sol\":492:542  require(msg.value > 1e18,\"did'nt send enough ETH\") */\n      tag_12\n      jumpi\n      mload(0x40)\n      0x08c379a000000000000000000000000000000000000000000000000000000000\n      dup2\n      mstore\n      0x04\n      add\n      tag_13\n      swap1\n      tag_14\n      jump\t// in\n    tag_13:\n      mload(0x40)\n      dup1\n      swap2\n      sub\n      swap1\n      revert\n    tag_12:\n        /* \"Remix Fund me/FundMe.sol\":782:783  2 */\n      0x02\n        /* \"Remix Fund me/FundMe.sol\":773:780  myValue */\n      0x00\n      dup1\n        /* \"Remix Fund me/FundMe.sol\":773:783  myValue+=2 */\n      dup3\n      dup3\n      sload\n      tag_15\n      swap2\n      swap1\n      tag_16\n      jump\t// in\n    tag_15:\n      swap3\n      pop\n      pop\n      dup2\n      swap1\n      sstore\n      pop\n        /* \"Remix Fund me/FundMe.sol\":197:921  function fund() public payable {... */\n      jump\t// out\n        /* \"#utility.yul\":7:84   */\n    tag_17:\n        /* \"#utility.yul\":44:51   */\n      0x00\n        /* \"#utility.yul\":73:78   */\n      dup2\n        /* \"#utility.yul\":62:78   */\n      swap1\n      pop\n        /* \"#utility.yul\":7:84   */\n      swap2\n      swap1\n      pop\n      jump\t// out\n        /* \"#utility.yul\":90:208   */\n    tag_18:\n        /* \"#utility.yul\":177:201   */\n      tag_26\n        /* \"#utility.yul\":195:200   */\n      dup2\n        /* \"#utility.yul\":177:201   */\n      tag_17\n      jump\t// in\n    tag_26:\n        /* \"#utility.yul\":172:175   */\n      dup3\n        /* \"#utility.yul\":165:202   */\n      mstore\n        /* \"#utility.yul\":90:208   */\n      pop\n      pop\n      jump\t// out\n        /* \"#utility.yul\":214:436   */\n    tag_8:\n        /* \"#utility.yul\":307:311   */\n      0x00\n        /* \"#utility.yul\":345:347   */\n      0x20\n        /* \"#utility.yul\":334:343   */\n      dup3\n        /* \"#utility.yul\":330:348   */\n      add\n        /* \"#utility.yul\":322:348   */\n      swap1\n      pop\n        /* \"#utility.yul\":358:429   */\n      tag_28\n        /* \"#utility.yul\":426:427   */\n      0x00\n        /* \"#utility.yul\":415:424   */\n      dup4\n        /* \"#utility.yul\":411:428   */\n      add\n        /* \"#utility.yul\":402:408   */\n      dup5\n        /* \"#utility.yul\":358:429   */\n      tag_18\n      jump\t// in\n    tag_28:\n        /* \"#utility.yul\":214:436   */\n      swap3\n      swap2\n      pop\n      pop\n      jump\t// out\n        /* \"#utility.yul\":442:611   */\n    tag_19:\n        /* \"#utility.yul\":526:537   */\n      0x00\n        /* \"#utility.yul\":560:566   */\n      dup3\n        /* \"#utility.yul\":555:558   */\n      dup3\n        /* \"#utility.yul\":548:567   */\n      mstore\n        /* \"#utility.yul\":600:604   */\n      0x20\n        /* \"#utility.yul\":595:598   */\n      dup3\n        /* \"#utility.yul\":591:605   */\n      add\n        /* \"#utility.yul\":576:605   */\n      swap1\n      pop\n        /* \"#utility.yul\":442:611   */\n      swap3\n      swap2\n      pop\n      pop\n      jump\t// out\n        /* \"#utility.yul\":617:789   */\n    tag_20:\n        /* \"#utility.yul\":757:781   */\n      0x646964276e742073656e6420656e6f7567682045544800000000000000000000\n        /* \"#utility.yul\":753:754   */\n      0x00\n        /* \"#utility.yul\":745:751   */\n      dup3\n        /* \"#utility.yul\":741:755   */\n      add\n        /* \"#utility.yul\":734:782   */\n      mstore\n        /* \"#utility.yul\":617:789   */\n      pop\n      jump\t// out\n        /* \"#utility.yul\":795:1161   */\n    tag_21:\n        /* \"#utility.yul\":937:940   */\n      0x00\n        /* \"#utility.yul\":958:1025   */\n      tag_32\n        /* \"#utility.yul\":1022:1024   */\n      0x16\n        /* \"#utility.yul\":1017:1020   */\n      dup4\n        /* \"#utility.yul\":958:1025   */\n      tag_19\n      jump\t// in\n    tag_32:\n        /* \"#utility.yul\":951:1025   */\n      swap2\n      pop\n        /* \"#utility.yul\":1034:1127   */\n      tag_33\n        /* \"#utility.yul\":1123:1126   */\n      dup3\n        /* \"#utility.yul\":1034:1127   */\n      tag_20\n      jump\t// in\n    tag_33:\n        /* \"#utility.yul\":1152:1154   */\n      0x20\n        /* \"#utility.yul\":1147:1150   */\n      dup3\n        /* \"#utility.yul\":1143:1155   */\n      add\n        /* \"#utility.yul\":1136:1155   */\n      swap1\n      pop\n        /* \"#utility.yul\":795:1161   */\n      swap2\n      swap1\n      pop\n      jump\t// out\n        /* \"#utility.yul\":1167:1586   */\n    tag_14:\n        /* \"#utility.yul\":1333:1337   */\n      0x00\n        /* \"#utility.yul\":1371:1373   */\n      0x20\n        /* \"#utility.yul\":1360:1369   */\n      dup3\n        /* \"#utility.yul\":1356:1374   */\n      add\n        /* \"#utility.yul\":1348:1374   */\n      swap1\n      pop\n        /* \"#utility.yul\":1420:1429   */\n      dup2\n        /* \"#utility.yul\":1414:1418   */\n      dup2\n        /* \"#utility.yul\":1410:1430   */\n      sub\n        /* \"#utility.yul\":1406:1407   */\n      0x00\n        /* \"#utility.yul\":1395:1404   */\n      dup4\n        /* \"#utility.yul\":1391:1408   */\n      add\n        /* \"#utility.yul\":1384:1431   */\n      mstore\n        /* \"#utility.yul\":1448:1579   */\n      tag_35\n        /* \"#utility.yul\":1574:1578   */\n      dup2\n        /* \"#utility.yul\":1448:1579   */\n      tag_21\n      jump\t// in\n    tag_35:\n        /* \"#utility.yul\":1440:1579   */\n      swap1\n      pop\n        /* \"#utility.yul\":1167:1586   */\n      swap2\n      swap1\n      pop\n      jump\t// out\n        /* \"#utility.yul\":1592:1772   */\n    tag_22:\n        /* \"#utility.yul\":1640:1717   */\n      0x4e487b7100000000000000000000000000000000000000000000000000000000\n        /* \"#utility.yul\":1637:1638   */\n      0x00\n        /* \"#utility.yul\":1630:1718   */\n      mstore\n        /* \"#utility.yul\":1737:1741   */\n      0x11\n        /* \"#utility.yul\":1734:1735   */\n      0x04\n        /* \"#utility.yul\":1727:1742   */\n      mstore\n        /* \"#utility.yul\":1761:1765   */\n      0x24\n        /* \"#utility.yul\":1758:1759   */\n      0x00\n        /* \"#utility.yul\":1751:1766   */\n      revert\n        /* \"#utility.yul\":1778:1969   */\n    tag_16:\n        /* \"#utility.yul\":1818:1821   */\n      0x00\n        /* \"#utility.yul\":1837:1857   */\n      tag_38\n        /* \"#utility.yul\":1855:1856   */\n      dup3\n        /* \"#utility.yul\":1837:1857   */\n      tag_17\n      jump\t// in\n    tag_38:\n        /* \"#utility.yul\":1832:1857   */\n      swap2\n      pop\n        /* \"#utility.yul\":1871:1891   */\n      tag_39\n        /* \"#utility.yul\":1889:1890   */\n      dup4\n        /* \"#utility.yul\":1871:1891   */\n      tag_17\n      jump\t// in\n    tag_39:\n        /* \"#utility.yul\":1866:1891   */\n      swap3\n      pop\n        /* \"#utility.yul\":1914:1915   */\n      dup3\n        /* \"#utility.yul\":1911:1912   */\n      dup3\n        /* \"#utility.yul\":1907:1916   */\n      add\n        /* \"#utility.yul\":1900:1916   */\n      swap1\n      pop\n        /* \"#utility.yul\":1935:1938   */\n      dup1\n        /* \"#utility.yul\":1932:1933   */\n      dup3\n        /* \"#utility.yul\":1929:1939   */\n      gt\n        /* \"#utility.yul\":1926:1962   */\n      iszero\n      tag_40\n      jumpi\n        /* \"#utility.yul\":1942:1960   */\n      tag_41\n      tag_22\n      jump\t// in\n    tag_41:\n        /* \"#utility.yul\":1926:1962   */\n    tag_40:\n        /* \"#utility.yul\":1778:1969   */\n      swap3\n      swap2\n      pop\n      pop\n      jump\t// out\n\n    auxdata: 0xa2646970667358221220afa20ace6944fde38ebcf99e6f559468145f8d528f98ff5f1f0accb15f021c4b64736f6c634300081a0033\n}\n",
				"bytecode": {
					"linkReferences": {},
					"object": "608060405260015f553480156012575f80fd5b50610208806100205f395ff3fe608060405260043610610028575f3560e01c806347f1aae71461002c578063b60d428814610056575b5f80fd5b348015610037575f80fd5b50610040610060565b60405161004d91906100e1565b60405180910390f35b61005e610065565b005b5f5481565b670de0b6b3a764000034116100af576040517f08c379a00000000000000000000000000000000000000000000000000000000081526004016100a690610154565b60405180910390fd5b60025f808282546100c0919061019f565b92505081905550565b5f819050919050565b6100db816100c9565b82525050565b5f6020820190506100f45f8301846100d2565b92915050565b5f82825260208201905092915050565b7f646964276e742073656e6420656e6f75676820455448000000000000000000005f82015250565b5f61013e6016836100fa565b91506101498261010a565b602082019050919050565b5f6020820190508181035f83015261016b81610132565b9050919050565b7f4e487b71000000000000000000000000000000000000000000000000000000005f52601160045260245ffd5b5f6101a9826100c9565b91506101b4836100c9565b92508282019050808211156101cc576101cb610172565b5b9291505056fea2646970667358221220afa20ace6944fde38ebcf99e6f559468145f8d528f98ff5f1f0accb15f021c4b64736f6c634300081a0033",
					"opcodes": "PUSH1 0x80 PUSH1 0x40 MSTORE PUSH1 0x1 PUSH0 SSTORE CALLVALUE DUP1 ISZERO PUSH1 0x12 JUMPI PUSH0 DUP1 REVERT JUMPDEST POP PUSH2 0x208 DUP1 PUSH2 0x20 PUSH0 CODECOPY PUSH0 RETURN INVALID PUSH1 0x80 PUSH1 0x40 MSTORE PUSH1 0x4 CALLDATASIZE LT PUSH2 0x28 JUMPI PUSH0 CALLDATALOAD PUSH1 0xE0 SHR DUP1 PUSH4 0x47F1AAE7 EQ PUSH2 0x2C JUMPI DUP1 PUSH4 0xB60D4288 EQ PUSH2 0x56 JUMPI JUMPDEST PUSH0 DUP1 REVERT JUMPDEST CALLVALUE DUP1 ISZERO PUSH2 0x37 JUMPI PUSH0 DUP1 REVERT JUMPDEST POP PUSH2 0x40 PUSH2 0x60 JUMP JUMPDEST PUSH1 0x40 MLOAD PUSH2 0x4D SWAP2 SWAP1 PUSH2 0xE1 JUMP JUMPDEST PUSH1 0x40 MLOAD DUP1 SWAP2 SUB SWAP1 RETURN JUMPDEST PUSH2 0x5E PUSH2 0x65 JUMP JUMPDEST STOP JUMPDEST PUSH0 SLOAD DUP2 JUMP JUMPDEST PUSH8 0xDE0B6B3A7640000 CALLVALUE GT PUSH2 0xAF JUMPI PUSH1 0x40 MLOAD PUSH32 0x8C379A000000000000000000000000000000000000000000000000000000000 DUP2 MSTORE PUSH1 0x4 ADD PUSH2 0xA6 SWAP1 PUSH2 0x154 JUMP JUMPDEST PUSH1 0x40 MLOAD DUP1 SWAP2 SUB SWAP1 REVERT JUMPDEST PUSH1 0x2 PUSH0 DUP1 DUP3 DUP3 SLOAD PUSH2 0xC0 SWAP2 SWAP1 PUSH2 0x19F JUMP JUMPDEST SWAP3 POP POP DUP2 SWAP1 SSTORE POP JUMP JUMPDEST PUSH0 DUP2 SWAP1 POP SWAP2 SWAP1 POP JUMP JUMPDEST PUSH2 0xDB DUP2 PUSH2 0xC9 JUMP JUMPDEST DUP3 MSTORE POP POP JUMP JUMPDEST PUSH0 PUSH1 0x20 DUP3 ADD SWAP1 POP PUSH2 0xF4 PUSH0 DUP4 ADD DUP5 PUSH2 0xD2 JUMP JUMPDEST SWAP3 SWAP2 POP POP JUMP JUMPDEST PUSH0 DUP3 DUP3 MSTORE PUSH1 0x20 DUP3 ADD SWAP1 POP SWAP3 SWAP2 POP POP JUMP JUMPDEST PUSH32 0x646964276E742073656E6420656E6F7567682045544800000000000000000000 PUSH0 DUP3 ADD MSTORE POP JUMP JUMPDEST PUSH0 PUSH2 0x13E PUSH1 0x16 DUP4 PUSH2 0xFA JUMP JUMPDEST SWAP2 POP PUSH2 0x149 DUP3 PUSH2 0x10A JUMP JUMPDEST PUSH1 0x20 DUP3 ADD SWAP1 POP SWAP2 SWAP1 POP JUMP JUMPDEST PUSH0 PUSH1 0x20 DUP3 ADD SWAP1 POP DUP2 DUP2 SUB PUSH0 DUP4 ADD MSTORE PUSH2 0x16B DUP2 PUSH2 0x132 JUMP JUMPDEST SWAP1 POP SWAP2 SWAP1 POP JUMP JUMPDEST PUSH32 0x4E487B7100000000000000000000000000000000000000000000000000000000 PUSH0 MSTORE PUSH1 0x11 PUSH1 0x4 MSTORE PUSH1 0x24 PUSH0 REVERT JUMPDEST PUSH0 PUSH2 0x1A9 DUP3 PUSH2 0xC9 JUMP JUMPDEST SWAP2 POP PUSH2 0x1B4 DUP4 PUSH2 0xC9 JUMP JUMPDEST SWAP3 POP DUP3 DUP3 ADD SWAP1 POP DUP1 DUP3 GT ISZERO PUSH2 0x1CC JUMPI PUSH2 0x1CB PUSH2 0x172 JUMP JUMPDEST JUMPDEST SWAP3 SWAP2 POP POP JUMP INVALID LOG2 PUSH5 0x6970667358 0x22 SLT KECCAK256 0xAF LOG2 EXP 0xCE PUSH10 0x44FDE38EBCF99E6F5594 PUSH9 0x145F8D528F98FF5F1F EXP 0xCC 0xB1 PUSH0 MUL SHR 0x4B PUSH5 0x736F6C6343 STOP ADDMOD BYTE STOP CALLER "
				},
				"gasEstimates": {
					"creation": {
						"codeDepositCost": "104000",
						"executionCost": "22256",
						"totalCost": "126256"
					},
					"external": {
						"fund()": "infinite",
						"myValue()": "2402"
					}
				},
				"methodIdentifiers": {
					"fund()": "b60d4288",
					"myValue()": "47f1aae7"
				}
			},
			"storageLayout": {
				"storage": [
					{
						"astId": 4,
						"contract": "Remix Fund me/FundMe.sol:FundMe",
						"label": "myValue",
						"offset": 0,
						"slot": "0",
						"type": "t_uint256"
					}
				],
				"types": {
					"t_uint256": {
						"encoding": "inplace",
						"label": "uint256",
						"numberOfBytes": "32"
					}
				}
			},
			"userdoc": {
				"kind": "user",
				"methods": {},
				"version": 1
			}
		}
	}
}