{
	"Remix Fund me/FundMe.sol": {
		"FundMe": {
			"abi": [
				{
					"inputs": [],
					"stateMutability": "nonpayable",
					"type": "constructor"
				},
				{
					"inputs": [],
					"name": "NotOwner",
					"type": "error"
				},
				{
					"stateMutability": "payable",
					"type": "fallback"
				},
				{
					"inputs": [
						{
							"internalType": "address",
							"name": "funder",
							"type": "address"
						}
					],
					"name": "AddressToAmountFunded",
					"outputs": [
						{
							"internalType": "uint256",
							"name": "amountFunded",
							"type": "uint256"
						}
					],
					"stateMutability": "view",
					"type": "function"
				},
				{
					"inputs": [],
					"name": "fund",
					"outputs": [],
					"stateMutability": "payable",
					"type": "function"
				},
				{
					"inputs": [],
					"name": "minimumUsd",
					"outputs": [
						{
							"internalType": "uint256",
							"name": "",
							"type": "uint256"
						}
					],
					"stateMutability": "view",
					"type": "function"
				},
				{
					"inputs": [],
					"name": "owner",
					"outputs": [
						{
							"internalType": "address",
							"name": "",
							"type": "address"
						}
					],
					"stateMutability": "view",
					"type": "function"
				},
				{
					"inputs": [],
					"name": "withdraw",
					"outputs": [],
					"stateMutability": "nonpayable",
					"type": "function"
				},
				{
					"stateMutability": "payable",
					"type": "receive"
				}
			],
			"devdoc": {
				"kind": "dev",
				"methods": {},
				"version": 1
			},
			"evm": {
				"assembly": "    /* \"Remix Fund me/FundMe.sol\":213:4306  contract FundMe{... */\n  mstore(0x40, 0x80)\n    /* \"Remix Fund me/FundMe.sol\":288:289  5 */\n  0x05\n    /* \"Remix Fund me/FundMe.sol\":265:289  uint public minimumUsd=5 */\n  0x00\n  sstore\n    /* \"Remix Fund me/FundMe.sol\":651:774  constructor(){... */\n  callvalue\n  dup1\n  iszero\n  tag_1\n  jumpi\n  0x00\n  dup1\n  revert\ntag_1:\n  pop\n    /* \"Remix Fund me/FundMe.sol\":754:764  msg.sender */\n  caller\n    /* \"Remix Fund me/FundMe.sol\":748:753  owner */\n  0x03\n  0x00\n    /* \"Remix Fund me/FundMe.sol\":748:764  owner=msg.sender */\n  0x0100\n  exp\n  dup2\n  sload\n  dup2\n  0xffffffffffffffffffffffffffffffffffffffff\n  mul\n  not\n  and\n  swap1\n  dup4\n  0xffffffffffffffffffffffffffffffffffffffff\n  and\n  mul\n  or\n  swap1\n  sstore\n  pop\n    /* \"Remix Fund me/FundMe.sol\":213:4306  contract FundMe{... */\n  dataSize(sub_0)\n  dup1\n  dataOffset(sub_0)\n  0x00\n  codecopy\n  0x00\n  return\nstop\n\nsub_0: assembly {\n        /* \"Remix Fund me/FundMe.sol\":213:4306  contract FundMe{... */\n      mstore(0x40, 0x80)\n      jumpi(tag_1, lt(calldatasize, 0x04))\n      shr(0xe0, calldataload(0x00))\n      dup1\n      0x098de820\n      eq\n      tag_3\n      jumpi\n      dup1\n      0x3ccfd60b\n      eq\n      tag_4\n      jumpi\n      dup1\n      0x8da5cb5b\n      eq\n      tag_5\n      jumpi\n      dup1\n      0xb60d4288\n      eq\n      tag_6\n      jumpi\n      dup1\n      0xdc90eddd\n      eq\n      tag_7\n      jumpi\n      jump(tag_2)\n    tag_1:\n      jumpi(tag_2, calldatasize)\n        /* \"Remix Fund me/FundMe.sol\":3847:3853  fund() */\n      tag_10\n        /* \"Remix Fund me/FundMe.sol\":3847:3851  fund */\n      tag_11\n        /* \"Remix Fund me/FundMe.sol\":3847:3853  fund() */\n      jump\t// in\n    tag_10:\n        /* \"Remix Fund me/FundMe.sol\":213:4306  contract FundMe{... */\n      stop\n    tag_2:\n        /* \"Remix Fund me/FundMe.sol\":3907:3913  fund() */\n      tag_14\n        /* \"Remix Fund me/FundMe.sol\":3907:3911  fund */\n      tag_11\n        /* \"Remix Fund me/FundMe.sol\":3907:3913  fund() */\n      jump\t// in\n    tag_14:\n        /* \"Remix Fund me/FundMe.sol\":213:4306  contract FundMe{... */\n      stop\n        /* \"Remix Fund me/FundMe.sol\":265:289  uint public minimumUsd=5 */\n    tag_3:\n      callvalue\n      dup1\n      iszero\n      tag_15\n      jumpi\n      0x00\n      dup1\n      revert\n    tag_15:\n      pop\n      tag_16\n      tag_17\n      jump\t// in\n    tag_16:\n      mload(0x40)\n      tag_18\n      swap2\n      swap1\n      tag_19\n      jump\t// in\n    tag_18:\n      mload(0x40)\n      dup1\n      swap2\n      sub\n      swap1\n      return\n        /* \"Remix Fund me/FundMe.sol\":1914:2914  function withdraw() public onlyOwner {... */\n    tag_4:\n      callvalue\n      dup1\n      iszero\n      tag_20\n      jumpi\n      0x00\n      dup1\n      revert\n    tag_20:\n      pop\n      tag_21\n      tag_22\n      jump\t// in\n    tag_21:\n      stop\n        /* \"Remix Fund me/FundMe.sol\":562:582  address public owner */\n    tag_5:\n      callvalue\n      dup1\n      iszero\n      tag_23\n      jumpi\n      0x00\n      dup1\n      revert\n    tag_23:\n      pop\n      tag_24\n      tag_25\n      jump\t// in\n    tag_24:\n      mload(0x40)\n      tag_26\n      swap2\n      swap1\n      tag_27\n      jump\t// in\n    tag_26:\n      mload(0x40)\n      dup1\n      swap2\n      sub\n      swap1\n      return\n        /* \"Remix Fund me/FundMe.sol\":836:1866  function fund() public payable {//payable is used to make the contract to receive the blockchian token ... */\n    tag_6:\n      tag_28\n      tag_11\n      jump\t// in\n    tag_28:\n      stop\n        /* \"Remix Fund me/FundMe.sol\":321:395  mapping(address funder=>uint256 amountFunded) public AddressToAmountFunded */\n    tag_7:\n      callvalue\n      dup1\n      iszero\n      tag_29\n      jumpi\n      0x00\n      dup1\n      revert\n    tag_29:\n      pop\n      tag_30\n      0x04\n      dup1\n      calldatasize\n      sub\n      dup2\n      add\n      swap1\n      tag_31\n      swap2\n      swap1\n      tag_32\n      jump\t// in\n    tag_31:\n      tag_33\n      jump\t// in\n    tag_30:\n      mload(0x40)\n      tag_34\n      swap2\n      swap1\n      tag_19\n      jump\t// in\n    tag_34:\n      mload(0x40)\n      dup1\n      swap2\n      sub\n      swap1\n      return\n        /* \"Remix Fund me/FundMe.sol\":836:1866  function fund() public payable {//payable is used to make the contract to receive the blockchian token ... */\n    tag_11:\n        /* \"Remix Fund me/FundMe.sol\":1255:1265  minimumUsd */\n      sload(0x00)\n        /* \"Remix Fund me/FundMe.sol\":1222:1251  msg.value.getConversionRate() */\n      tag_36\n        /* \"Remix Fund me/FundMe.sol\":1222:1231  msg.value */\n      callvalue\n        /* \"Remix Fund me/FundMe.sol\":1222:1249  msg.value.getConversionRate */\n      tag_37\n        /* \"Remix Fund me/FundMe.sol\":1222:1251  msg.value.getConversionRate() */\n      jump\t// in\n    tag_36:\n        /* \"Remix Fund me/FundMe.sol\":1222:1265  msg.value.getConversionRate() >= minimumUsd */\n      lt\n      iszero\n        /* \"Remix Fund me/FundMe.sol\":1214:1288  require(msg.value.getConversionRate() >= minimumUsd,\"did'nt send enough \") */\n      tag_38\n      jumpi\n      mload(0x40)\n      0x08c379a000000000000000000000000000000000000000000000000000000000\n      dup2\n      mstore\n      0x04\n      add\n      tag_39\n      swap1\n      tag_40\n      jump\t// in\n    tag_39:\n      mload(0x40)\n      dup1\n      swap2\n      sub\n      swap1\n      revert\n    tag_38:\n        /* \"Remix Fund me/FundMe.sol\":1648:1655  funders */\n      0x01\n        /* \"Remix Fund me/FundMe.sol\":1661:1671  msg.sender */\n      caller\n        /* \"Remix Fund me/FundMe.sol\":1648:1672  funders.push(msg.sender) */\n      swap1\n      dup1\n      0x01\n      dup2\n      sload\n      add\n      dup1\n      dup3\n      sstore\n      dup1\n      swap2\n      pop\n      pop\n      0x01\n      swap1\n      sub\n      swap1\n      0x00\n      mstore\n      keccak256(0x00, 0x20)\n      add\n      0x00\n      swap1\n      swap2\n      swap1\n      swap2\n      swap1\n      swap2\n      0x0100\n      exp\n      dup2\n      sload\n      dup2\n      0xffffffffffffffffffffffffffffffffffffffff\n      mul\n      not\n      and\n      swap1\n      dup4\n      0xffffffffffffffffffffffffffffffffffffffff\n      and\n      mul\n      or\n      swap1\n      sstore\n      pop\n        /* \"Remix Fund me/FundMe.sol\":1838:1847  msg.value */\n      callvalue\n        /* \"Remix Fund me/FundMe.sol\":1804:1825  AddressToAmountFunded */\n      0x02\n        /* \"Remix Fund me/FundMe.sol\":1804:1837  AddressToAmountFunded[msg.sender] */\n      0x00\n        /* \"Remix Fund me/FundMe.sol\":1826:1836  msg.sender */\n      caller\n        /* \"Remix Fund me/FundMe.sol\":1804:1837  AddressToAmountFunded[msg.sender] */\n      0xffffffffffffffffffffffffffffffffffffffff\n      and\n      0xffffffffffffffffffffffffffffffffffffffff\n      and\n      dup2\n      mstore\n      0x20\n      add\n      swap1\n      dup2\n      mstore\n      0x20\n      add\n      0x00\n      keccak256\n      sload\n        /* \"Remix Fund me/FundMe.sol\":1804:1847  AddressToAmountFunded[msg.sender]+msg.value */\n      tag_42\n      swap2\n      swap1\n      tag_43\n      jump\t// in\n    tag_42:\n        /* \"Remix Fund me/FundMe.sol\":1770:1791  AddressToAmountFunded */\n      0x02\n        /* \"Remix Fund me/FundMe.sol\":1770:1803  AddressToAmountFunded[msg.sender] */\n      0x00\n        /* \"Remix Fund me/FundMe.sol\":1792:1802  msg.sender */\n      caller\n        /* \"Remix Fund me/FundMe.sol\":1770:1803  AddressToAmountFunded[msg.sender] */\n      0xffffffffffffffffffffffffffffffffffffffff\n      and\n      0xffffffffffffffffffffffffffffffffffffffff\n      and\n      dup2\n      mstore\n      0x20\n      add\n      swap1\n      dup2\n      mstore\n      0x20\n      add\n      0x00\n      keccak256\n        /* \"Remix Fund me/FundMe.sol\":1770:1847  AddressToAmountFunded[msg.sender]=AddressToAmountFunded[msg.sender]+msg.value */\n      dup2\n      swap1\n      sstore\n      pop\n        /* \"Remix Fund me/FundMe.sol\":836:1866  function fund() public payable {//payable is used to make the contract to receive the blockchian token ... */\n      jump\t// out\n        /* \"Remix Fund me/FundMe.sol\":265:289  uint public minimumUsd=5 */\n    tag_17:\n      sload(0x00)\n      dup2\n      jump\t// out\n        /* \"Remix Fund me/FundMe.sol\":1914:2914  function withdraw() public onlyOwner {... */\n    tag_22:\n        /* \"Remix Fund me/FundMe.sol\":3482:3487  owner */\n      0x03\n      0x00\n      swap1\n      sload\n      swap1\n      0x0100\n      exp\n      swap1\n      div\n      0xffffffffffffffffffffffffffffffffffffffff\n      and\n        /* \"Remix Fund me/FundMe.sol\":3470:3487  msg.sender!=owner */\n      0xffffffffffffffffffffffffffffffffffffffff\n      and\n        /* \"Remix Fund me/FundMe.sol\":3470:3480  msg.sender */\n      caller\n        /* \"Remix Fund me/FundMe.sol\":3470:3487  msg.sender!=owner */\n      0xffffffffffffffffffffffffffffffffffffffff\n      and\n      eq\n        /* \"Remix Fund me/FundMe.sol\":3467:3587  if(msg.sender!=owner){... */\n      tag_45\n      jumpi\n        /* \"Remix Fund me/FundMe.sol\":3510:3520  NotOwner() */\n      mload(0x40)\n      0x30cd747100000000000000000000000000000000000000000000000000000000\n      dup2\n      mstore\n      0x04\n      add\n      mload(0x40)\n      dup1\n      swap2\n      sub\n      swap1\n      revert\n        /* \"Remix Fund me/FundMe.sol\":3467:3587  if(msg.sender!=owner){... */\n    tag_45:\n        /* \"Remix Fund me/FundMe.sol\":1982:1987  owner */\n      0x03\n      0x00\n      swap1\n      sload\n      swap1\n      0x0100\n      exp\n      swap1\n      div\n      0xffffffffffffffffffffffffffffffffffffffff\n      and\n        /* \"Remix Fund me/FundMe.sol\":1970:1987  msg.sender==owner */\n      0xffffffffffffffffffffffffffffffffffffffff\n      and\n        /* \"Remix Fund me/FundMe.sol\":1970:1980  msg.sender */\n      caller\n        /* \"Remix Fund me/FundMe.sol\":1970:1987  msg.sender==owner */\n      0xffffffffffffffffffffffffffffffffffffffff\n      and\n      eq\n        /* \"Remix Fund me/FundMe.sol\":1962:2006  require(msg.sender==owner,\"Must be a owner\") */\n      tag_47\n      jumpi\n      mload(0x40)\n      0x08c379a000000000000000000000000000000000000000000000000000000000\n      dup2\n      mstore\n      0x04\n      add\n      tag_48\n      swap1\n      tag_49\n      jump\t// in\n    tag_48:\n      mload(0x40)\n      dup1\n      swap2\n      sub\n      swap1\n      revert\n    tag_47:\n        /* \"Remix Fund me/FundMe.sol\":2069:2085  uint funderIndex */\n      0x00\n        /* \"Remix Fund me/FundMe.sol\":2065:2238  for(uint funderIndex=0; funderIndex<funders.length;funderIndex++){... */\n    tag_50:\n        /* \"Remix Fund me/FundMe.sol\":2101:2108  funders */\n      0x01\n        /* \"Remix Fund me/FundMe.sol\":2101:2115  funders.length */\n      dup1\n      sload\n      swap1\n      pop\n        /* \"Remix Fund me/FundMe.sol\":2089:2100  funderIndex */\n      dup2\n        /* \"Remix Fund me/FundMe.sol\":2089:2115  funderIndex<funders.length */\n      lt\n        /* \"Remix Fund me/FundMe.sol\":2065:2238  for(uint funderIndex=0; funderIndex<funders.length;funderIndex++){... */\n      iszero\n      tag_51\n      jumpi\n        /* \"Remix Fund me/FundMe.sol\":2145:2159  address funder */\n      0x00\n        /* \"Remix Fund me/FundMe.sol\":2160:2167  funders */\n      0x01\n        /* \"Remix Fund me/FundMe.sol\":2168:2179  funderIndex */\n      dup3\n        /* \"Remix Fund me/FundMe.sol\":2160:2180  funders[funderIndex] */\n      dup2\n      sload\n      dup2\n      lt\n      tag_53\n      jumpi\n      tag_54\n      tag_55\n      jump\t// in\n    tag_54:\n    tag_53:\n      swap1\n      0x00\n      mstore\n      keccak256(0x00, 0x20)\n      add\n      0x00\n      swap1\n      sload\n      swap1\n      0x0100\n      exp\n      swap1\n      div\n      0xffffffffffffffffffffffffffffffffffffffff\n      and\n        /* \"Remix Fund me/FundMe.sol\":2145:2180  address funder=funders[funderIndex] */\n      swap1\n      pop\n        /* \"Remix Fund me/FundMe.sol\":2225:2226  0 */\n      0x00\n        /* \"Remix Fund me/FundMe.sol\":2195:2216  AddressToAmountFunded */\n      0x02\n        /* \"Remix Fund me/FundMe.sol\":2195:2224  AddressToAmountFunded[funder] */\n      0x00\n        /* \"Remix Fund me/FundMe.sol\":2217:2223  funder */\n      dup4\n        /* \"Remix Fund me/FundMe.sol\":2195:2224  AddressToAmountFunded[funder] */\n      0xffffffffffffffffffffffffffffffffffffffff\n      and\n      0xffffffffffffffffffffffffffffffffffffffff\n      and\n      dup2\n      mstore\n      0x20\n      add\n      swap1\n      dup2\n      mstore\n      0x20\n      add\n      0x00\n      keccak256\n        /* \"Remix Fund me/FundMe.sol\":2195:2226  AddressToAmountFunded[funder]=0 */\n      dup2\n      swap1\n      sstore\n      pop\n        /* \"Remix Fund me/FundMe.sol\":2130:2238  {... */\n      pop\n        /* \"Remix Fund me/FundMe.sol\":2116:2129  funderIndex++ */\n      dup1\n      dup1\n      0x01\n      add\n      swap2\n      pop\n      pop\n        /* \"Remix Fund me/FundMe.sol\":2065:2238  for(uint funderIndex=0; funderIndex<funders.length;funderIndex++){... */\n      jump(tag_50)\n    tag_51:\n      pop\n        /* \"Remix Fund me/FundMe.sol\":2298:2299  0 */\n      0x00\n        /* \"Remix Fund me/FundMe.sol\":2284:2300  new address[](0) */\n      0xffffffffffffffff\n      dup2\n      gt\n      iszero\n      tag_57\n      jumpi\n      tag_58\n      tag_59\n      jump\t// in\n    tag_58:\n    tag_57:\n      mload(0x40)\n      swap1\n      dup1\n      dup3\n      mstore\n      dup1\n      0x20\n      mul\n      0x20\n      add\n      dup3\n      add\n      0x40\n      mstore\n      dup1\n      iszero\n      tag_60\n      jumpi\n      dup2\n      0x20\n      add\n      0x20\n      dup3\n      mul\n      dup1\n      calldatasize\n      dup4\n      calldatacopy\n      dup1\n      dup3\n      add\n      swap2\n      pop\n      pop\n      swap1\n      pop\n    tag_60:\n      pop\n        /* \"Remix Fund me/FundMe.sol\":2276:2283  funders */\n      0x01\n        /* \"Remix Fund me/FundMe.sol\":2276:2300  funders=new address[](0) */\n      swap1\n      dup1\n      mload\n      swap1\n      0x20\n      add\n      swap1\n      tag_61\n      swap3\n      swap2\n      swap1\n      tag_62\n      jump\t// in\n    tag_61:\n      pop\n        /* \"Remix Fund me/FundMe.sol\":2641:2656  bool callSucces */\n      0x00\n        /* \"Remix Fund me/FundMe.sol\":2668:2678  msg.sender */\n      caller\n        /* \"Remix Fund me/FundMe.sol\":2659:2684  payable (msg.sender).call */\n      0xffffffffffffffffffffffffffffffffffffffff\n      and\n        /* \"Remix Fund me/FundMe.sol\":2692:2713  address(this).balance */\n      selfbalance\n        /* \"Remix Fund me/FundMe.sol\":2659:2718  payable (msg.sender).call{value: address(this).balance}(\"\") */\n      mload(0x40)\n      tag_63\n      swap1\n      tag_64\n      jump\t// in\n    tag_63:\n      0x00\n      mload(0x40)\n      dup1\n      dup4\n      sub\n      dup2\n      dup6\n      dup8\n      gas\n      call\n      swap3\n      pop\n      pop\n      pop\n      returndatasize\n      dup1\n      0x00\n      dup2\n      eq\n      tag_67\n      jumpi\n      mload(0x40)\n      swap2\n      pop\n      and(add(returndatasize, 0x3f), not(0x1f))\n      dup3\n      add\n      0x40\n      mstore\n      returndatasize\n      dup3\n      mstore\n      returndatasize\n      0x00\n      0x20\n      dup5\n      add\n      returndatacopy\n      jump(tag_66)\n    tag_67:\n      0x60\n      swap2\n      pop\n    tag_66:\n      pop\n        /* \"Remix Fund me/FundMe.sol\":2640:2718  (bool callSucces,)=payable (msg.sender).call{value: address(this).balance}(\"\") */\n      pop\n      swap1\n      pop\n        /* \"Remix Fund me/FundMe.sol\":2737:2747  callSucces */\n      dup1\n        /* \"Remix Fund me/FundMe.sol\":2729:2762  require(callSucces,\"call failed\") */\n      tag_68\n      jumpi\n      mload(0x40)\n      0x08c379a000000000000000000000000000000000000000000000000000000000\n      dup2\n      mstore\n      0x04\n      add\n      tag_69\n      swap1\n      tag_70\n      jump\t// in\n    tag_69:\n      mload(0x40)\n      dup1\n      swap2\n      sub\n      swap1\n      revert\n    tag_68:\n        /* \"Remix Fund me/FundMe.sol\":1951:2914  {... */\n      pop\n        /* \"Remix Fund me/FundMe.sol\":1914:2914  function withdraw() public onlyOwner {... */\n      jump\t// out\n        /* \"Remix Fund me/FundMe.sol\":562:582  address public owner */\n    tag_25:\n      0x03\n      0x00\n      swap1\n      sload\n      swap1\n      0x0100\n      exp\n      swap1\n      div\n      0xffffffffffffffffffffffffffffffffffffffff\n      and\n      dup2\n      jump\t// out\n        /* \"Remix Fund me/FundMe.sol\":321:395  mapping(address funder=>uint256 amountFunded) public AddressToAmountFunded */\n    tag_33:\n      mstore(0x20, 0x02)\n      dup1\n      0x00\n      mstore\n      keccak256(0x00, 0x40)\n      0x00\n      swap2\n      pop\n      swap1\n      pop\n      sload\n      dup2\n      jump\t// out\n        /* \"Remix Fund me/PriceConverter.sol\":663:1011  function getConversionRate(uint ETHamount) internal view returns(uint) {... */\n    tag_37:\n        /* \"Remix Fund me/PriceConverter.sol\":728:732  uint */\n      0x00\n        /* \"Remix Fund me/PriceConverter.sol\":825:838  uint ethprice */\n      dup1\n        /* \"Remix Fund me/PriceConverter.sol\":839:849  getPrice() */\n      tag_72\n        /* \"Remix Fund me/PriceConverter.sol\":839:847  getPrice */\n      tag_73\n        /* \"Remix Fund me/PriceConverter.sol\":839:849  getPrice() */\n      jump\t// in\n    tag_72:\n        /* \"Remix Fund me/PriceConverter.sol\":825:849  uint ethprice=getPrice() */\n      swap1\n      pop\n        /* \"Remix Fund me/PriceConverter.sol\":862:881  uint ethAmountInUsd */\n      0x00\n        /* \"Remix Fund me/PriceConverter.sol\":902:906  1e18 */\n      0x0de0b6b3a7640000\n        /* \"Remix Fund me/PriceConverter.sol\":892:901  ETHamount */\n      dup5\n        /* \"Remix Fund me/PriceConverter.sol\":883:891  ethprice */\n      dup4\n        /* \"Remix Fund me/PriceConverter.sol\":883:901  ethprice*ETHamount */\n      tag_74\n      swap2\n      swap1\n      tag_75\n      jump\t// in\n    tag_74:\n        /* \"Remix Fund me/PriceConverter.sol\":883:906  ethprice*ETHamount/1e18 */\n      tag_76\n      swap2\n      swap1\n      tag_77\n      jump\t// in\n    tag_76:\n        /* \"Remix Fund me/PriceConverter.sol\":862:907  uint ethAmountInUsd=(ethprice*ETHamount/1e18) */\n      swap1\n      pop\n        /* \"Remix Fund me/PriceConverter.sol\":977:991  ethAmountInUsd */\n      dup1\n        /* \"Remix Fund me/PriceConverter.sol\":970:991  return ethAmountInUsd */\n      swap3\n      pop\n      pop\n      pop\n        /* \"Remix Fund me/PriceConverter.sol\":663:1011  function getConversionRate(uint ETHamount) internal view returns(uint) {... */\n      swap2\n      swap1\n      pop\n      jump\t// out\n        /* \"Remix Fund me/PriceConverter.sol\":215:657  function getPrice()internal view returns (uint){... */\n    tag_73:\n        /* \"Remix Fund me/PriceConverter.sol\":257:261  uint */\n      0x00\n        /* \"Remix Fund me/PriceConverter.sol\":459:490  AggregatorV3Interface priceFeed */\n      dup1\n        /* \"Remix Fund me/PriceConverter.sol\":515:557  0x694AA1769357215DE4FAC081bf1f309aDC325306 */\n      0x694aa1769357215de4fac081bf1f309adc325306\n        /* \"Remix Fund me/PriceConverter.sol\":459:558  AggregatorV3Interface priceFeed = AggregatorV3Interface(0x694AA1769357215DE4FAC081bf1f309aDC325306) */\n      swap1\n      pop\n        /* \"Remix Fund me/PriceConverter.sol\":571:583  int256 price */\n      0x00\n        /* \"Remix Fund me/PriceConverter.sol\":588:597  priceFeed */\n      dup2\n        /* \"Remix Fund me/PriceConverter.sol\":588:613  priceFeed.latestRoundData */\n      0xffffffffffffffffffffffffffffffffffffffff\n      and\n      0xfeaf968c\n        /* \"Remix Fund me/PriceConverter.sol\":588:615  priceFeed.latestRoundData() */\n      mload(0x40)\n      dup2\n      0xffffffff\n      and\n      0xe0\n      shl\n      dup2\n      mstore\n      0x04\n      add\n      0xa0\n      mload(0x40)\n      dup1\n      dup4\n      sub\n      dup2\n      dup7\n      gas\n      staticcall\n      iszero\n      dup1\n      iszero\n      tag_80\n      jumpi\n      returndatasize\n      0x00\n      dup1\n      returndatacopy\n      revert(0x00, returndatasize)\n    tag_80:\n      pop\n      pop\n      pop\n      pop\n      mload(0x40)\n      returndatasize\n      not(0x1f)\n      0x1f\n      dup3\n      add\n      and\n      dup3\n      add\n      dup1\n      0x40\n      mstore\n      pop\n      dup2\n      add\n      swap1\n      tag_81\n      swap2\n      swap1\n      tag_82\n      jump\t// in\n    tag_81:\n        /* \"Remix Fund me/PriceConverter.sol\":569:615  (,int256 price,,,)=priceFeed.latestRoundData() */\n      pop\n      pop\n      pop\n      swap2\n      pop\n      pop\n        /* \"Remix Fund me/PriceConverter.sol\":644:648  1e10 */\n      0x02540be400\n        /* \"Remix Fund me/PriceConverter.sol\":638:643  price */\n      dup2\n        /* \"Remix Fund me/PriceConverter.sol\":638:648  price*1e10 */\n      tag_83\n      swap2\n      swap1\n      tag_84\n      jump\t// in\n    tag_83:\n        /* \"Remix Fund me/PriceConverter.sol\":626:649  return uint(price*1e10) */\n      swap3\n      pop\n      pop\n      pop\n        /* \"Remix Fund me/PriceConverter.sol\":215:657  function getPrice()internal view returns (uint){... */\n      swap1\n      jump\t// out\n    tag_62:\n      dup3\n      dup1\n      sload\n      dup3\n      dup3\n      sstore\n      swap1\n      0x00\n      mstore\n      keccak256(0x00, 0x20)\n      swap1\n      dup2\n      add\n      swap3\n      dup3\n      iszero\n      tag_85\n      jumpi\n      swap2\n      0x20\n      mul\n      dup3\n      add\n    tag_86:\n      dup3\n      dup2\n      gt\n      iszero\n      tag_87\n      jumpi\n      dup3\n      mload\n      dup3\n      exp(0x0100, 0x00)\n      dup2\n      sload\n      dup2\n      0xffffffffffffffffffffffffffffffffffffffff\n      mul\n      not\n      and\n      swap1\n      dup4\n      0xffffffffffffffffffffffffffffffffffffffff\n      and\n      mul\n      or\n      swap1\n      sstore\n      pop\n      swap2\n      0x20\n      add\n      swap2\n      swap1\n      0x01\n      add\n      swap1\n      jump(tag_86)\n    tag_87:\n    tag_85:\n      pop\n      swap1\n      pop\n      tag_88\n      swap2\n      swap1\n      tag_89\n      jump\t// in\n    tag_88:\n      pop\n      swap1\n      jump\t// out\n    tag_89:\n    tag_90:\n      dup1\n      dup3\n      gt\n      iszero\n      tag_91\n      jumpi\n      0x00\n      dup2\n      0x00\n      swap1\n      sstore\n      pop\n      0x01\n      add\n      jump(tag_90)\n    tag_91:\n      pop\n      swap1\n      jump\t// out\n        /* \"#utility.yul\":7:84   */\n    tag_92:\n        /* \"#utility.yul\":44:51   */\n      0x00\n        /* \"#utility.yul\":73:78   */\n      dup2\n        /* \"#utility.yul\":62:78   */\n      swap1\n      pop\n        /* \"#utility.yul\":7:84   */\n      swap2\n      swap1\n      pop\n      jump\t// out\n        /* \"#utility.yul\":90:208   */\n    tag_93:\n        /* \"#utility.yul\":177:201   */\n      tag_125\n        /* \"#utility.yul\":195:200   */\n      dup2\n        /* \"#utility.yul\":177:201   */\n      tag_92\n      jump\t// in\n    tag_125:\n        /* \"#utility.yul\":172:175   */\n      dup3\n        /* \"#utility.yul\":165:202   */\n      mstore\n        /* \"#utility.yul\":90:208   */\n      pop\n      pop\n      jump\t// out\n        /* \"#utility.yul\":214:436   */\n    tag_19:\n        /* \"#utility.yul\":307:311   */\n      0x00\n        /* \"#utility.yul\":345:347   */\n      0x20\n        /* \"#utility.yul\":334:343   */\n      dup3\n        /* \"#utility.yul\":330:348   */\n      add\n        /* \"#utility.yul\":322:348   */\n      swap1\n      pop\n        /* \"#utility.yul\":358:429   */\n      tag_127\n        /* \"#utility.yul\":426:427   */\n      0x00\n        /* \"#utility.yul\":415:424   */\n      dup4\n        /* \"#utility.yul\":411:428   */\n      add\n        /* \"#utility.yul\":402:408   */\n      dup5\n        /* \"#utility.yul\":358:429   */\n      tag_93\n      jump\t// in\n    tag_127:\n        /* \"#utility.yul\":214:436   */\n      swap3\n      swap2\n      pop\n      pop\n      jump\t// out\n        /* \"#utility.yul\":442:568   */\n    tag_94:\n        /* \"#utility.yul\":479:486   */\n      0x00\n        /* \"#utility.yul\":519:561   */\n      0xffffffffffffffffffffffffffffffffffffffff\n        /* \"#utility.yul\":512:517   */\n      dup3\n        /* \"#utility.yul\":508:562   */\n      and\n        /* \"#utility.yul\":497:562   */\n      swap1\n      pop\n        /* \"#utility.yul\":442:568   */\n      swap2\n      swap1\n      pop\n      jump\t// out\n        /* \"#utility.yul\":574:670   */\n    tag_95:\n        /* \"#utility.yul\":611:618   */\n      0x00\n        /* \"#utility.yul\":640:664   */\n      tag_130\n        /* \"#utility.yul\":658:663   */\n      dup3\n        /* \"#utility.yul\":640:664   */\n      tag_94\n      jump\t// in\n    tag_130:\n        /* \"#utility.yul\":629:664   */\n      swap1\n      pop\n        /* \"#utility.yul\":574:670   */\n      swap2\n      swap1\n      pop\n      jump\t// out\n        /* \"#utility.yul\":676:794   */\n    tag_96:\n        /* \"#utility.yul\":763:787   */\n      tag_132\n        /* \"#utility.yul\":781:786   */\n      dup2\n        /* \"#utility.yul\":763:787   */\n      tag_95\n      jump\t// in\n    tag_132:\n        /* \"#utility.yul\":758:761   */\n      dup3\n        /* \"#utility.yul\":751:788   */\n      mstore\n        /* \"#utility.yul\":676:794   */\n      pop\n      pop\n      jump\t// out\n        /* \"#utility.yul\":800:1022   */\n    tag_27:\n        /* \"#utility.yul\":893:897   */\n      0x00\n        /* \"#utility.yul\":931:933   */\n      0x20\n        /* \"#utility.yul\":920:929   */\n      dup3\n        /* \"#utility.yul\":916:934   */\n      add\n        /* \"#utility.yul\":908:934   */\n      swap1\n      pop\n        /* \"#utility.yul\":944:1015   */\n      tag_134\n        /* \"#utility.yul\":1012:1013   */\n      0x00\n        /* \"#utility.yul\":1001:1010   */\n      dup4\n        /* \"#utility.yul\":997:1014   */\n      add\n        /* \"#utility.yul\":988:994   */\n      dup5\n        /* \"#utility.yul\":944:1015   */\n      tag_96\n      jump\t// in\n    tag_134:\n        /* \"#utility.yul\":800:1022   */\n      swap3\n      swap2\n      pop\n      pop\n      jump\t// out\n        /* \"#utility.yul\":1109:1226   */\n    tag_98:\n        /* \"#utility.yul\":1218:1219   */\n      0x00\n        /* \"#utility.yul\":1215:1216   */\n      dup1\n        /* \"#utility.yul\":1208:1220   */\n      revert\n        /* \"#utility.yul\":1355:1477   */\n    tag_100:\n        /* \"#utility.yul\":1428:1452   */\n      tag_139\n        /* \"#utility.yul\":1446:1451   */\n      dup2\n        /* \"#utility.yul\":1428:1452   */\n      tag_95\n      jump\t// in\n    tag_139:\n        /* \"#utility.yul\":1421:1426   */\n      dup2\n        /* \"#utility.yul\":1418:1453   */\n      eq\n        /* \"#utility.yul\":1408:1471   */\n      tag_140\n      jumpi\n        /* \"#utility.yul\":1467:1468   */\n      0x00\n        /* \"#utility.yul\":1464:1465   */\n      dup1\n        /* \"#utility.yul\":1457:1469   */\n      revert\n        /* \"#utility.yul\":1408:1471   */\n    tag_140:\n        /* \"#utility.yul\":1355:1477   */\n      pop\n      jump\t// out\n        /* \"#utility.yul\":1483:1622   */\n    tag_101:\n        /* \"#utility.yul\":1529:1534   */\n      0x00\n        /* \"#utility.yul\":1567:1573   */\n      dup2\n        /* \"#utility.yul\":1554:1574   */\n      calldataload\n        /* \"#utility.yul\":1545:1574   */\n      swap1\n      pop\n        /* \"#utility.yul\":1583:1616   */\n      tag_142\n        /* \"#utility.yul\":1610:1615   */\n      dup2\n        /* \"#utility.yul\":1583:1616   */\n      tag_100\n      jump\t// in\n    tag_142:\n        /* \"#utility.yul\":1483:1622   */\n      swap3\n      swap2\n      pop\n      pop\n      jump\t// out\n        /* \"#utility.yul\":1628:1957   */\n    tag_32:\n        /* \"#utility.yul\":1687:1693   */\n      0x00\n        /* \"#utility.yul\":1736:1738   */\n      0x20\n        /* \"#utility.yul\":1724:1733   */\n      dup3\n        /* \"#utility.yul\":1715:1722   */\n      dup5\n        /* \"#utility.yul\":1711:1734   */\n      sub\n        /* \"#utility.yul\":1707:1739   */\n      slt\n        /* \"#utility.yul\":1704:1823   */\n      iszero\n      tag_144\n      jumpi\n        /* \"#utility.yul\":1742:1821   */\n      tag_145\n      tag_98\n      jump\t// in\n    tag_145:\n        /* \"#utility.yul\":1704:1823   */\n    tag_144:\n        /* \"#utility.yul\":1862:1863   */\n      0x00\n        /* \"#utility.yul\":1887:1940   */\n      tag_146\n        /* \"#utility.yul\":1932:1939   */\n      dup5\n        /* \"#utility.yul\":1923:1929   */\n      dup3\n        /* \"#utility.yul\":1912:1921   */\n      dup6\n        /* \"#utility.yul\":1908:1930   */\n      add\n        /* \"#utility.yul\":1887:1940   */\n      tag_101\n      jump\t// in\n    tag_146:\n        /* \"#utility.yul\":1877:1940   */\n      swap2\n      pop\n        /* \"#utility.yul\":1833:1950   */\n      pop\n        /* \"#utility.yul\":1628:1957   */\n      swap3\n      swap2\n      pop\n      pop\n      jump\t// out\n        /* \"#utility.yul\":1963:2132   */\n    tag_102:\n        /* \"#utility.yul\":2047:2058   */\n      0x00\n        /* \"#utility.yul\":2081:2087   */\n      dup3\n        /* \"#utility.yul\":2076:2079   */\n      dup3\n        /* \"#utility.yul\":2069:2088   */\n      mstore\n        /* \"#utility.yul\":2121:2125   */\n      0x20\n        /* \"#utility.yul\":2116:2119   */\n      dup3\n        /* \"#utility.yul\":2112:2126   */\n      add\n        /* \"#utility.yul\":2097:2126   */\n      swap1\n      pop\n        /* \"#utility.yul\":1963:2132   */\n      swap3\n      swap2\n      pop\n      pop\n      jump\t// out\n        /* \"#utility.yul\":2138:2307   */\n    tag_103:\n        /* \"#utility.yul\":2278:2299   */\n      0x646964276e742073656e6420656e6f7567682000000000000000000000000000\n        /* \"#utility.yul\":2274:2275   */\n      0x00\n        /* \"#utility.yul\":2266:2272   */\n      dup3\n        /* \"#utility.yul\":2262:2276   */\n      add\n        /* \"#utility.yul\":2255:2300   */\n      mstore\n        /* \"#utility.yul\":2138:2307   */\n      pop\n      jump\t// out\n        /* \"#utility.yul\":2313:2679   */\n    tag_104:\n        /* \"#utility.yul\":2455:2458   */\n      0x00\n        /* \"#utility.yul\":2476:2543   */\n      tag_150\n        /* \"#utility.yul\":2540:2542   */\n      0x13\n        /* \"#utility.yul\":2535:2538   */\n      dup4\n        /* \"#utility.yul\":2476:2543   */\n      tag_102\n      jump\t// in\n    tag_150:\n        /* \"#utility.yul\":2469:2543   */\n      swap2\n      pop\n        /* \"#utility.yul\":2552:2645   */\n      tag_151\n        /* \"#utility.yul\":2641:2644   */\n      dup3\n        /* \"#utility.yul\":2552:2645   */\n      tag_103\n      jump\t// in\n    tag_151:\n        /* \"#utility.yul\":2670:2672   */\n      0x20\n        /* \"#utility.yul\":2665:2668   */\n      dup3\n        /* \"#utility.yul\":2661:2673   */\n      add\n        /* \"#utility.yul\":2654:2673   */\n      swap1\n      pop\n        /* \"#utility.yul\":2313:2679   */\n      swap2\n      swap1\n      pop\n      jump\t// out\n        /* \"#utility.yul\":2685:3104   */\n    tag_40:\n        /* \"#utility.yul\":2851:2855   */\n      0x00\n        /* \"#utility.yul\":2889:2891   */\n      0x20\n        /* \"#utility.yul\":2878:2887   */\n      dup3\n        /* \"#utility.yul\":2874:2892   */\n      add\n        /* \"#utility.yul\":2866:2892   */\n      swap1\n      pop\n        /* \"#utility.yul\":2938:2947   */\n      dup2\n        /* \"#utility.yul\":2932:2936   */\n      dup2\n        /* \"#utility.yul\":2928:2948   */\n      sub\n        /* \"#utility.yul\":2924:2925   */\n      0x00\n        /* \"#utility.yul\":2913:2922   */\n      dup4\n        /* \"#utility.yul\":2909:2926   */\n      add\n        /* \"#utility.yul\":2902:2949   */\n      mstore\n        /* \"#utility.yul\":2966:3097   */\n      tag_153\n        /* \"#utility.yul\":3092:3096   */\n      dup2\n        /* \"#utility.yul\":2966:3097   */\n      tag_104\n      jump\t// in\n    tag_153:\n        /* \"#utility.yul\":2958:3097   */\n      swap1\n      pop\n        /* \"#utility.yul\":2685:3104   */\n      swap2\n      swap1\n      pop\n      jump\t// out\n        /* \"#utility.yul\":3110:3290   */\n    tag_105:\n        /* \"#utility.yul\":3158:3235   */\n      0x4e487b7100000000000000000000000000000000000000000000000000000000\n        /* \"#utility.yul\":3155:3156   */\n      0x00\n        /* \"#utility.yul\":3148:3236   */\n      mstore\n        /* \"#utility.yul\":3255:3259   */\n      0x11\n        /* \"#utility.yul\":3252:3253   */\n      0x04\n        /* \"#utility.yul\":3245:3260   */\n      mstore\n        /* \"#utility.yul\":3279:3283   */\n      0x24\n        /* \"#utility.yul\":3276:3277   */\n      0x00\n        /* \"#utility.yul\":3269:3284   */\n      revert\n        /* \"#utility.yul\":3296:3487   */\n    tag_43:\n        /* \"#utility.yul\":3336:3339   */\n      0x00\n        /* \"#utility.yul\":3355:3375   */\n      tag_156\n        /* \"#utility.yul\":3373:3374   */\n      dup3\n        /* \"#utility.yul\":3355:3375   */\n      tag_92\n      jump\t// in\n    tag_156:\n        /* \"#utility.yul\":3350:3375   */\n      swap2\n      pop\n        /* \"#utility.yul\":3389:3409   */\n      tag_157\n        /* \"#utility.yul\":3407:3408   */\n      dup4\n        /* \"#utility.yul\":3389:3409   */\n      tag_92\n      jump\t// in\n    tag_157:\n        /* \"#utility.yul\":3384:3409   */\n      swap3\n      pop\n        /* \"#utility.yul\":3432:3433   */\n      dup3\n        /* \"#utility.yul\":3429:3430   */\n      dup3\n        /* \"#utility.yul\":3425:3434   */\n      add\n        /* \"#utility.yul\":3418:3434   */\n      swap1\n      pop\n        /* \"#utility.yul\":3453:3456   */\n      dup1\n        /* \"#utility.yul\":3450:3451   */\n      dup3\n        /* \"#utility.yul\":3447:3457   */\n      gt\n        /* \"#utility.yul\":3444:3480   */\n      iszero\n      tag_158\n      jumpi\n        /* \"#utility.yul\":3460:3478   */\n      tag_159\n      tag_105\n      jump\t// in\n    tag_159:\n        /* \"#utility.yul\":3444:3480   */\n    tag_158:\n        /* \"#utility.yul\":3296:3487   */\n      swap3\n      swap2\n      pop\n      pop\n      jump\t// out\n        /* \"#utility.yul\":3493:3658   */\n    tag_106:\n        /* \"#utility.yul\":3633:3650   */\n      0x4d7573742062652061206f776e65720000000000000000000000000000000000\n        /* \"#utility.yul\":3629:3630   */\n      0x00\n        /* \"#utility.yul\":3621:3627   */\n      dup3\n        /* \"#utility.yul\":3617:3631   */\n      add\n        /* \"#utility.yul\":3610:3651   */\n      mstore\n        /* \"#utility.yul\":3493:3658   */\n      pop\n      jump\t// out\n        /* \"#utility.yul\":3664:4030   */\n    tag_107:\n        /* \"#utility.yul\":3806:3809   */\n      0x00\n        /* \"#utility.yul\":3827:3894   */\n      tag_162\n        /* \"#utility.yul\":3891:3893   */\n      0x0f\n        /* \"#utility.yul\":3886:3889   */\n      dup4\n        /* \"#utility.yul\":3827:3894   */\n      tag_102\n      jump\t// in\n    tag_162:\n        /* \"#utility.yul\":3820:3894   */\n      swap2\n      pop\n        /* \"#utility.yul\":3903:3996   */\n      tag_163\n        /* \"#utility.yul\":3992:3995   */\n      dup3\n        /* \"#utility.yul\":3903:3996   */\n      tag_106\n      jump\t// in\n    tag_163:\n        /* \"#utility.yul\":4021:4023   */\n      0x20\n        /* \"#utility.yul\":4016:4019   */\n      dup3\n        /* \"#utility.yul\":4012:4024   */\n      add\n        /* \"#utility.yul\":4005:4024   */\n      swap1\n      pop\n        /* \"#utility.yul\":3664:4030   */\n      swap2\n      swap1\n      pop\n      jump\t// out\n        /* \"#utility.yul\":4036:4455   */\n    tag_49:\n        /* \"#utility.yul\":4202:4206   */\n      0x00\n        /* \"#utility.yul\":4240:4242   */\n      0x20\n        /* \"#utility.yul\":4229:4238   */\n      dup3\n        /* \"#utility.yul\":4225:4243   */\n      add\n        /* \"#utility.yul\":4217:4243   */\n      swap1\n      pop\n        /* \"#utility.yul\":4289:4298   */\n      dup2\n        /* \"#utility.yul\":4283:4287   */\n      dup2\n        /* \"#utility.yul\":4279:4299   */\n      sub\n        /* \"#utility.yul\":4275:4276   */\n      0x00\n        /* \"#utility.yul\":4264:4273   */\n      dup4\n        /* \"#utility.yul\":4260:4277   */\n      add\n        /* \"#utility.yul\":4253:4300   */\n      mstore\n        /* \"#utility.yul\":4317:4448   */\n      tag_165\n        /* \"#utility.yul\":4443:4447   */\n      dup2\n        /* \"#utility.yul\":4317:4448   */\n      tag_107\n      jump\t// in\n    tag_165:\n        /* \"#utility.yul\":4309:4448   */\n      swap1\n      pop\n        /* \"#utility.yul\":4036:4455   */\n      swap2\n      swap1\n      pop\n      jump\t// out\n        /* \"#utility.yul\":4461:4641   */\n    tag_55:\n        /* \"#utility.yul\":4509:4586   */\n      0x4e487b7100000000000000000000000000000000000000000000000000000000\n        /* \"#utility.yul\":4506:4507   */\n      0x00\n        /* \"#utility.yul\":4499:4587   */\n      mstore\n        /* \"#utility.yul\":4606:4610   */\n      0x32\n        /* \"#utility.yul\":4603:4604   */\n      0x04\n        /* \"#utility.yul\":4596:4611   */\n      mstore\n        /* \"#utility.yul\":4630:4634   */\n      0x24\n        /* \"#utility.yul\":4627:4628   */\n      0x00\n        /* \"#utility.yul\":4620:4635   */\n      revert\n        /* \"#utility.yul\":4647:4827   */\n    tag_59:\n        /* \"#utility.yul\":4695:4772   */\n      0x4e487b7100000000000000000000000000000000000000000000000000000000\n        /* \"#utility.yul\":4692:4693   */\n      0x00\n        /* \"#utility.yul\":4685:4773   */\n      mstore\n        /* \"#utility.yul\":4792:4796   */\n      0x41\n        /* \"#utility.yul\":4789:4790   */\n      0x04\n        /* \"#utility.yul\":4782:4797   */\n      mstore\n        /* \"#utility.yul\":4816:4820   */\n      0x24\n        /* \"#utility.yul\":4813:4814   */\n      0x00\n        /* \"#utility.yul\":4806:4821   */\n      revert\n        /* \"#utility.yul\":4833:4980   */\n    tag_108:\n        /* \"#utility.yul\":4934:4945   */\n      0x00\n        /* \"#utility.yul\":4971:4974   */\n      dup2\n        /* \"#utility.yul\":4956:4974   */\n      swap1\n      pop\n        /* \"#utility.yul\":4833:4980   */\n      swap3\n      swap2\n      pop\n      pop\n      jump\t// out\n        /* \"#utility.yul\":4986:5100   */\n    tag_109:\n      pop\n      jump\t// out\n        /* \"#utility.yul\":5106:5504   */\n    tag_110:\n        /* \"#utility.yul\":5265:5268   */\n      0x00\n        /* \"#utility.yul\":5286:5369   */\n      tag_171\n        /* \"#utility.yul\":5367:5368   */\n      0x00\n        /* \"#utility.yul\":5362:5365   */\n      dup4\n        /* \"#utility.yul\":5286:5369   */\n      tag_108\n      jump\t// in\n    tag_171:\n        /* \"#utility.yul\":5279:5369   */\n      swap2\n      pop\n        /* \"#utility.yul\":5378:5471   */\n      tag_172\n        /* \"#utility.yul\":5467:5470   */\n      dup3\n        /* \"#utility.yul\":5378:5471   */\n      tag_109\n      jump\t// in\n    tag_172:\n        /* \"#utility.yul\":5496:5497   */\n      0x00\n        /* \"#utility.yul\":5491:5494   */\n      dup3\n        /* \"#utility.yul\":5487:5498   */\n      add\n        /* \"#utility.yul\":5480:5498   */\n      swap1\n      pop\n        /* \"#utility.yul\":5106:5504   */\n      swap2\n      swap1\n      pop\n      jump\t// out\n        /* \"#utility.yul\":5510:5889   */\n    tag_64:\n        /* \"#utility.yul\":5694:5697   */\n      0x00\n        /* \"#utility.yul\":5716:5863   */\n      tag_174\n        /* \"#utility.yul\":5859:5862   */\n      dup3\n        /* \"#utility.yul\":5716:5863   */\n      tag_110\n      jump\t// in\n    tag_174:\n        /* \"#utility.yul\":5709:5863   */\n      swap2\n      pop\n        /* \"#utility.yul\":5880:5883   */\n      dup2\n        /* \"#utility.yul\":5873:5883   */\n      swap1\n      pop\n        /* \"#utility.yul\":5510:5889   */\n      swap2\n      swap1\n      pop\n      jump\t// out\n        /* \"#utility.yul\":5895:6056   */\n    tag_111:\n        /* \"#utility.yul\":6035:6048   */\n      0x63616c6c206661696c6564000000000000000000000000000000000000000000\n        /* \"#utility.yul\":6031:6032   */\n      0x00\n        /* \"#utility.yul\":6023:6029   */\n      dup3\n        /* \"#utility.yul\":6019:6033   */\n      add\n        /* \"#utility.yul\":6012:6049   */\n      mstore\n        /* \"#utility.yul\":5895:6056   */\n      pop\n      jump\t// out\n        /* \"#utility.yul\":6062:6428   */\n    tag_112:\n        /* \"#utility.yul\":6204:6207   */\n      0x00\n        /* \"#utility.yul\":6225:6292   */\n      tag_177\n        /* \"#utility.yul\":6289:6291   */\n      0x0b\n        /* \"#utility.yul\":6284:6287   */\n      dup4\n        /* \"#utility.yul\":6225:6292   */\n      tag_102\n      jump\t// in\n    tag_177:\n        /* \"#utility.yul\":6218:6292   */\n      swap2\n      pop\n        /* \"#utility.yul\":6301:6394   */\n      tag_178\n        /* \"#utility.yul\":6390:6393   */\n      dup3\n        /* \"#utility.yul\":6301:6394   */\n      tag_111\n      jump\t// in\n    tag_178:\n        /* \"#utility.yul\":6419:6421   */\n      0x20\n        /* \"#utility.yul\":6414:6417   */\n      dup3\n        /* \"#utility.yul\":6410:6422   */\n      add\n        /* \"#utility.yul\":6403:6422   */\n      swap1\n      pop\n        /* \"#utility.yul\":6062:6428   */\n      swap2\n      swap1\n      pop\n      jump\t// out\n        /* \"#utility.yul\":6434:6853   */\n    tag_70:\n        /* \"#utility.yul\":6600:6604   */\n      0x00\n        /* \"#utility.yul\":6638:6640   */\n      0x20\n        /* \"#utility.yul\":6627:6636   */\n      dup3\n        /* \"#utility.yul\":6623:6641   */\n      add\n        /* \"#utility.yul\":6615:6641   */\n      swap1\n      pop\n        /* \"#utility.yul\":6687:6696   */\n      dup2\n        /* \"#utility.yul\":6681:6685   */\n      dup2\n        /* \"#utility.yul\":6677:6697   */\n      sub\n        /* \"#utility.yul\":6673:6674   */\n      0x00\n        /* \"#utility.yul\":6662:6671   */\n      dup4\n        /* \"#utility.yul\":6658:6675   */\n      add\n        /* \"#utility.yul\":6651:6698   */\n      mstore\n        /* \"#utility.yul\":6715:6846   */\n      tag_180\n        /* \"#utility.yul\":6841:6845   */\n      dup2\n        /* \"#utility.yul\":6715:6846   */\n      tag_112\n      jump\t// in\n    tag_180:\n        /* \"#utility.yul\":6707:6846   */\n      swap1\n      pop\n        /* \"#utility.yul\":6434:6853   */\n      swap2\n      swap1\n      pop\n      jump\t// out\n        /* \"#utility.yul\":6859:7269   */\n    tag_75:\n        /* \"#utility.yul\":6899:6906   */\n      0x00\n        /* \"#utility.yul\":6922:6942   */\n      tag_182\n        /* \"#utility.yul\":6940:6941   */\n      dup3\n        /* \"#utility.yul\":6922:6942   */\n      tag_92\n      jump\t// in\n    tag_182:\n        /* \"#utility.yul\":6917:6942   */\n      swap2\n      pop\n        /* \"#utility.yul\":6956:6976   */\n      tag_183\n        /* \"#utility.yul\":6974:6975   */\n      dup4\n        /* \"#utility.yul\":6956:6976   */\n      tag_92\n      jump\t// in\n    tag_183:\n        /* \"#utility.yul\":6951:6976   */\n      swap3\n      pop\n        /* \"#utility.yul\":7011:7012   */\n      dup3\n        /* \"#utility.yul\":7008:7009   */\n      dup3\n        /* \"#utility.yul\":7004:7013   */\n      mul\n        /* \"#utility.yul\":7033:7063   */\n      tag_184\n        /* \"#utility.yul\":7051:7062   */\n      dup2\n        /* \"#utility.yul\":7033:7063   */\n      tag_92\n      jump\t// in\n    tag_184:\n        /* \"#utility.yul\":7022:7063   */\n      swap2\n      pop\n        /* \"#utility.yul\":7212:7213   */\n      dup3\n        /* \"#utility.yul\":7203:7210   */\n      dup3\n        /* \"#utility.yul\":7199:7214   */\n      div\n        /* \"#utility.yul\":7196:7197   */\n      dup5\n        /* \"#utility.yul\":7193:7215   */\n      eq\n        /* \"#utility.yul\":7173:7174   */\n      dup4\n        /* \"#utility.yul\":7166:7175   */\n      iszero\n        /* \"#utility.yul\":7146:7229   */\n      or\n        /* \"#utility.yul\":7123:7262   */\n      tag_185\n      jumpi\n        /* \"#utility.yul\":7242:7260   */\n      tag_186\n      tag_105\n      jump\t// in\n    tag_186:\n        /* \"#utility.yul\":7123:7262   */\n    tag_185:\n        /* \"#utility.yul\":6907:7269   */\n      pop\n        /* \"#utility.yul\":6859:7269   */\n      swap3\n      swap2\n      pop\n      pop\n      jump\t// out\n        /* \"#utility.yul\":7275:7455   */\n    tag_113:\n        /* \"#utility.yul\":7323:7400   */\n      0x4e487b7100000000000000000000000000000000000000000000000000000000\n        /* \"#utility.yul\":7320:7321   */\n      0x00\n        /* \"#utility.yul\":7313:7401   */\n      mstore\n        /* \"#utility.yul\":7420:7424   */\n      0x12\n        /* \"#utility.yul\":7417:7418   */\n      0x04\n        /* \"#utility.yul\":7410:7425   */\n      mstore\n        /* \"#utility.yul\":7444:7448   */\n      0x24\n        /* \"#utility.yul\":7441:7442   */\n      0x00\n        /* \"#utility.yul\":7434:7449   */\n      revert\n        /* \"#utility.yul\":7461:7646   */\n    tag_77:\n        /* \"#utility.yul\":7501:7502   */\n      0x00\n        /* \"#utility.yul\":7518:7538   */\n      tag_189\n        /* \"#utility.yul\":7536:7537   */\n      dup3\n        /* \"#utility.yul\":7518:7538   */\n      tag_92\n      jump\t// in\n    tag_189:\n        /* \"#utility.yul\":7513:7538   */\n      swap2\n      pop\n        /* \"#utility.yul\":7552:7572   */\n      tag_190\n        /* \"#utility.yul\":7570:7571   */\n      dup4\n        /* \"#utility.yul\":7552:7572   */\n      tag_92\n      jump\t// in\n    tag_190:\n        /* \"#utility.yul\":7547:7572   */\n      swap3\n      pop\n        /* \"#utility.yul\":7591:7592   */\n      dup3\n        /* \"#utility.yul\":7581:7616   */\n      tag_191\n      jumpi\n        /* \"#utility.yul\":7596:7614   */\n      tag_192\n      tag_113\n      jump\t// in\n    tag_192:\n        /* \"#utility.yul\":7581:7616   */\n    tag_191:\n        /* \"#utility.yul\":7638:7639   */\n      dup3\n        /* \"#utility.yul\":7635:7636   */\n      dup3\n        /* \"#utility.yul\":7631:7640   */\n      div\n        /* \"#utility.yul\":7626:7640   */\n      swap1\n      pop\n        /* \"#utility.yul\":7461:7646   */\n      swap3\n      swap2\n      pop\n      pop\n      jump\t// out\n        /* \"#utility.yul\":7652:7757   */\n    tag_114:\n        /* \"#utility.yul\":7688:7695   */\n      0x00\n        /* \"#utility.yul\":7728:7750   */\n      0xffffffffffffffffffff\n        /* \"#utility.yul\":7721:7726   */\n      dup3\n        /* \"#utility.yul\":7717:7751   */\n      and\n        /* \"#utility.yul\":7706:7751   */\n      swap1\n      pop\n        /* \"#utility.yul\":7652:7757   */\n      swap2\n      swap1\n      pop\n      jump\t// out\n        /* \"#utility.yul\":7763:7883   */\n    tag_115:\n        /* \"#utility.yul\":7835:7858   */\n      tag_195\n        /* \"#utility.yul\":7852:7857   */\n      dup2\n        /* \"#utility.yul\":7835:7858   */\n      tag_114\n      jump\t// in\n    tag_195:\n        /* \"#utility.yul\":7828:7833   */\n      dup2\n        /* \"#utility.yul\":7825:7859   */\n      eq\n        /* \"#utility.yul\":7815:7877   */\n      tag_196\n      jumpi\n        /* \"#utility.yul\":7873:7874   */\n      0x00\n        /* \"#utility.yul\":7870:7871   */\n      dup1\n        /* \"#utility.yul\":7863:7875   */\n      revert\n        /* \"#utility.yul\":7815:7877   */\n    tag_196:\n        /* \"#utility.yul\":7763:7883   */\n      pop\n      jump\t// out\n        /* \"#utility.yul\":7889:8030   */\n    tag_116:\n        /* \"#utility.yul\":7945:7950   */\n      0x00\n        /* \"#utility.yul\":7976:7982   */\n      dup2\n        /* \"#utility.yul\":7970:7983   */\n      mload\n        /* \"#utility.yul\":7961:7983   */\n      swap1\n      pop\n        /* \"#utility.yul\":7992:8024   */\n      tag_198\n        /* \"#utility.yul\":8018:8023   */\n      dup2\n        /* \"#utility.yul\":7992:8024   */\n      tag_115\n      jump\t// in\n    tag_198:\n        /* \"#utility.yul\":7889:8030   */\n      swap3\n      swap2\n      pop\n      pop\n      jump\t// out\n        /* \"#utility.yul\":8036:8112   */\n    tag_117:\n        /* \"#utility.yul\":8072:8079   */\n      0x00\n        /* \"#utility.yul\":8101:8106   */\n      dup2\n        /* \"#utility.yul\":8090:8106   */\n      swap1\n      pop\n        /* \"#utility.yul\":8036:8112   */\n      swap2\n      swap1\n      pop\n      jump\t// out\n        /* \"#utility.yul\":8118:8238   */\n    tag_118:\n        /* \"#utility.yul\":8190:8213   */\n      tag_201\n        /* \"#utility.yul\":8207:8212   */\n      dup2\n        /* \"#utility.yul\":8190:8213   */\n      tag_117\n      jump\t// in\n    tag_201:\n        /* \"#utility.yul\":8183:8188   */\n      dup2\n        /* \"#utility.yul\":8180:8214   */\n      eq\n        /* \"#utility.yul\":8170:8232   */\n      tag_202\n      jumpi\n        /* \"#utility.yul\":8228:8229   */\n      0x00\n        /* \"#utility.yul\":8225:8226   */\n      dup1\n        /* \"#utility.yul\":8218:8230   */\n      revert\n        /* \"#utility.yul\":8170:8232   */\n    tag_202:\n        /* \"#utility.yul\":8118:8238   */\n      pop\n      jump\t// out\n        /* \"#utility.yul\":8244:8385   */\n    tag_119:\n        /* \"#utility.yul\":8300:8305   */\n      0x00\n        /* \"#utility.yul\":8331:8337   */\n      dup2\n        /* \"#utility.yul\":8325:8338   */\n      mload\n        /* \"#utility.yul\":8316:8338   */\n      swap1\n      pop\n        /* \"#utility.yul\":8347:8379   */\n      tag_204\n        /* \"#utility.yul\":8373:8378   */\n      dup2\n        /* \"#utility.yul\":8347:8379   */\n      tag_118\n      jump\t// in\n    tag_204:\n        /* \"#utility.yul\":8244:8385   */\n      swap3\n      swap2\n      pop\n      pop\n      jump\t// out\n        /* \"#utility.yul\":8391:8513   */\n    tag_120:\n        /* \"#utility.yul\":8464:8488   */\n      tag_206\n        /* \"#utility.yul\":8482:8487   */\n      dup2\n        /* \"#utility.yul\":8464:8488   */\n      tag_92\n      jump\t// in\n    tag_206:\n        /* \"#utility.yul\":8457:8462   */\n      dup2\n        /* \"#utility.yul\":8454:8489   */\n      eq\n        /* \"#utility.yul\":8444:8507   */\n      tag_207\n      jumpi\n        /* \"#utility.yul\":8503:8504   */\n      0x00\n        /* \"#utility.yul\":8500:8501   */\n      dup1\n        /* \"#utility.yul\":8493:8505   */\n      revert\n        /* \"#utility.yul\":8444:8507   */\n    tag_207:\n        /* \"#utility.yul\":8391:8513   */\n      pop\n      jump\t// out\n        /* \"#utility.yul\":8519:8662   */\n    tag_121:\n        /* \"#utility.yul\":8576:8581   */\n      0x00\n        /* \"#utility.yul\":8607:8613   */\n      dup2\n        /* \"#utility.yul\":8601:8614   */\n      mload\n        /* \"#utility.yul\":8592:8614   */\n      swap1\n      pop\n        /* \"#utility.yul\":8623:8656   */\n      tag_209\n        /* \"#utility.yul\":8650:8655   */\n      dup2\n        /* \"#utility.yul\":8623:8656   */\n      tag_120\n      jump\t// in\n    tag_209:\n        /* \"#utility.yul\":8519:8662   */\n      swap3\n      swap2\n      pop\n      pop\n      jump\t// out\n        /* \"#utility.yul\":8668:9639   */\n    tag_82:\n        /* \"#utility.yul\":8771:8777   */\n      0x00\n        /* \"#utility.yul\":8779:8785   */\n      dup1\n        /* \"#utility.yul\":8787:8793   */\n      0x00\n        /* \"#utility.yul\":8795:8801   */\n      dup1\n        /* \"#utility.yul\":8803:8809   */\n      0x00\n        /* \"#utility.yul\":8852:8855   */\n      0xa0\n        /* \"#utility.yul\":8840:8849   */\n      dup7\n        /* \"#utility.yul\":8831:8838   */\n      dup9\n        /* \"#utility.yul\":8827:8850   */\n      sub\n        /* \"#utility.yul\":8823:8856   */\n      slt\n        /* \"#utility.yul\":8820:8940   */\n      iszero\n      tag_211\n      jumpi\n        /* \"#utility.yul\":8859:8938   */\n      tag_212\n      tag_98\n      jump\t// in\n    tag_212:\n        /* \"#utility.yul\":8820:8940   */\n    tag_211:\n        /* \"#utility.yul\":8979:8980   */\n      0x00\n        /* \"#utility.yul\":9004:9067   */\n      tag_213\n        /* \"#utility.yul\":9059:9066   */\n      dup9\n        /* \"#utility.yul\":9050:9056   */\n      dup3\n        /* \"#utility.yul\":9039:9048   */\n      dup10\n        /* \"#utility.yul\":9035:9057   */\n      add\n        /* \"#utility.yul\":9004:9067   */\n      tag_116\n      jump\t// in\n    tag_213:\n        /* \"#utility.yul\":8994:9067   */\n      swap6\n      pop\n        /* \"#utility.yul\":8950:9077   */\n      pop\n        /* \"#utility.yul\":9116:9118   */\n      0x20\n        /* \"#utility.yul\":9142:9205   */\n      tag_214\n        /* \"#utility.yul\":9197:9204   */\n      dup9\n        /* \"#utility.yul\":9188:9194   */\n      dup3\n        /* \"#utility.yul\":9177:9186   */\n      dup10\n        /* \"#utility.yul\":9173:9195   */\n      add\n        /* \"#utility.yul\":9142:9205   */\n      tag_119\n      jump\t// in\n    tag_214:\n        /* \"#utility.yul\":9132:9205   */\n      swap5\n      pop\n        /* \"#utility.yul\":9087:9215   */\n      pop\n        /* \"#utility.yul\":9254:9256   */\n      0x40\n        /* \"#utility.yul\":9280:9344   */\n      tag_215\n        /* \"#utility.yul\":9336:9343   */\n      dup9\n        /* \"#utility.yul\":9327:9333   */\n      dup3\n        /* \"#utility.yul\":9316:9325   */\n      dup10\n        /* \"#utility.yul\":9312:9334   */\n      add\n        /* \"#utility.yul\":9280:9344   */\n      tag_121\n      jump\t// in\n    tag_215:\n        /* \"#utility.yul\":9270:9344   */\n      swap4\n      pop\n        /* \"#utility.yul\":9225:9354   */\n      pop\n        /* \"#utility.yul\":9393:9395   */\n      0x60\n        /* \"#utility.yul\":9419:9483   */\n      tag_216\n        /* \"#utility.yul\":9475:9482   */\n      dup9\n        /* \"#utility.yul\":9466:9472   */\n      dup3\n        /* \"#utility.yul\":9455:9464   */\n      dup10\n        /* \"#utility.yul\":9451:9473   */\n      add\n        /* \"#utility.yul\":9419:9483   */\n      tag_121\n      jump\t// in\n    tag_216:\n        /* \"#utility.yul\":9409:9483   */\n      swap3\n      pop\n        /* \"#utility.yul\":9364:9493   */\n      pop\n        /* \"#utility.yul\":9532:9535   */\n      0x80\n        /* \"#utility.yul\":9559:9622   */\n      tag_217\n        /* \"#utility.yul\":9614:9621   */\n      dup9\n        /* \"#utility.yul\":9605:9611   */\n      dup3\n        /* \"#utility.yul\":9594:9603   */\n      dup10\n        /* \"#utility.yul\":9590:9612   */\n      add\n        /* \"#utility.yul\":9559:9622   */\n      tag_116\n      jump\t// in\n    tag_217:\n        /* \"#utility.yul\":9549:9622   */\n      swap2\n      pop\n        /* \"#utility.yul\":9503:9632   */\n      pop\n        /* \"#utility.yul\":8668:9639   */\n      swap3\n      swap6\n      pop\n      swap3\n      swap6\n      swap1\n      swap4\n      pop\n      jump\t// out\n        /* \"#utility.yul\":9645:10201   */\n    tag_84:\n        /* \"#utility.yul\":9684:9691   */\n      0x00\n        /* \"#utility.yul\":9707:9726   */\n      tag_219\n        /* \"#utility.yul\":9724:9725   */\n      dup3\n        /* \"#utility.yul\":9707:9726   */\n      tag_117\n      jump\t// in\n    tag_219:\n        /* \"#utility.yul\":9702:9726   */\n      swap2\n      pop\n        /* \"#utility.yul\":9740:9759   */\n      tag_220\n        /* \"#utility.yul\":9757:9758   */\n      dup4\n        /* \"#utility.yul\":9740:9759   */\n      tag_117\n      jump\t// in\n    tag_220:\n        /* \"#utility.yul\":9735:9759   */\n      swap3\n      pop\n        /* \"#utility.yul\":9794:9795   */\n      dup3\n        /* \"#utility.yul\":9791:9792   */\n      dup3\n        /* \"#utility.yul\":9787:9796   */\n      mul\n        /* \"#utility.yul\":9816:9845   */\n      tag_221\n        /* \"#utility.yul\":9833:9844   */\n      dup2\n        /* \"#utility.yul\":9816:9845   */\n      tag_117\n      jump\t// in\n    tag_221:\n        /* \"#utility.yul\":9805:9845   */\n      swap2\n      pop\n        /* \"#utility.yul\":9903:9969   */\n      0x8000000000000000000000000000000000000000000000000000000000000000\n        /* \"#utility.yul\":9900:9901   */\n      dup5\n        /* \"#utility.yul\":9897:9970   */\n      eq\n        /* \"#utility.yul\":9893:9894   */\n      0x00\n        /* \"#utility.yul\":9890:9891   */\n      dup5\n        /* \"#utility.yul\":9886:9895   */\n      slt\n        /* \"#utility.yul\":9882:9971   */\n      and\n        /* \"#utility.yul\":9879:9994   */\n      iszero\n      tag_222\n      jumpi\n        /* \"#utility.yul\":9974:9992   */\n      tag_223\n      tag_105\n      jump\t// in\n    tag_223:\n        /* \"#utility.yul\":9879:9994   */\n    tag_222:\n        /* \"#utility.yul\":10144:10145   */\n      dup3\n        /* \"#utility.yul\":10135:10142   */\n      dup3\n        /* \"#utility.yul\":10130:10146   */\n      sdiv\n        /* \"#utility.yul\":10127:10128   */\n      dup5\n        /* \"#utility.yul\":10124:10147   */\n      eq\n        /* \"#utility.yul\":10104:10105   */\n      dup4\n        /* \"#utility.yul\":10097:10106   */\n      iszero\n        /* \"#utility.yul\":10077:10161   */\n      or\n        /* \"#utility.yul\":10054:10194   */\n      tag_224\n      jumpi\n        /* \"#utility.yul\":10174:10192   */\n      tag_225\n      tag_105\n      jump\t// in\n    tag_225:\n        /* \"#utility.yul\":10054:10194   */\n    tag_224:\n        /* \"#utility.yul\":9692:10201   */\n      pop\n        /* \"#utility.yul\":9645:10201   */\n      swap3\n      swap2\n      pop\n      pop\n      jump\t// out\n\n    auxdata: 0xa2646970667358221220ab723586ac39269ffddc0f35ca3e6ec72f5611d81d1d86e1281a2566dacc6f0564736f6c634300081a0033\n}\n",
				"bytecode": {
					"linkReferences": {},
					"object": "608060405260055f553480156012575f80fd5b503360035f6101000a81548173ffffffffffffffffffffffffffffffffffffffff021916908373ffffffffffffffffffffffffffffffffffffffff160217905550610c4c806100605f395ff3fe60806040526004361061004d575f3560e01c8063098de820146100665780633ccfd60b146100905780638da5cb5b146100a6578063b60d4288146100d0578063dc90eddd146100da5761005c565b3661005c5761005a610116565b005b610064610116565b005b348015610071575f80fd5b5061007a61024e565b60405161008791906106e2565b60405180910390f35b34801561009b575f80fd5b506100a4610253565b005b3480156100b1575f80fd5b506100ba610511565b6040516100c7919061073a565b60405180910390f35b6100d8610116565b005b3480156100e5575f80fd5b5061010060048036038101906100fb9190610781565b610536565b60405161010d91906106e2565b60405180910390f35b5f546101213461054b565b1015610162576040517f08c379a000000000000000000000000000000000000000000000000000000000815260040161015990610806565b60405180910390fd5b600133908060018154018082558091505060019003905f5260205f20015f9091909190916101000a81548173ffffffffffffffffffffffffffffffffffffffff021916908373ffffffffffffffffffffffffffffffffffffffff1602179055503460025f3373ffffffffffffffffffffffffffffffffffffffff1673ffffffffffffffffffffffffffffffffffffffff1681526020019081526020015f205461020b9190610851565b60025f3373ffffffffffffffffffffffffffffffffffffffff1673ffffffffffffffffffffffffffffffffffffffff1681526020019081526020015f2081905550565b5f5481565b60035f9054906101000a900473ffffffffffffffffffffffffffffffffffffffff1673ffffffffffffffffffffffffffffffffffffffff163373ffffffffffffffffffffffffffffffffffffffff16146102d9576040517f30cd747100000000000000000000000000000000000000000000000000000000815260040160405180910390fd5b60035f9054906101000a900473ffffffffffffffffffffffffffffffffffffffff1673ffffffffffffffffffffffffffffffffffffffff163373ffffffffffffffffffffffffffffffffffffffff1614610368576040517f08c379a000000000000000000000000000000000000000000000000000000000815260040161035f906108ce565b60405180910390fd5b5f5b600180549050811015610406575f6001828154811061038c5761038b6108ec565b5b905f5260205f20015f9054906101000a900473ffffffffffffffffffffffffffffffffffffffff1690505f60025f8373ffffffffffffffffffffffffffffffffffffffff1673ffffffffffffffffffffffffffffffffffffffff1681526020019081526020015f208190555050808060010191505061036a565b505f67ffffffffffffffff81111561042157610420610919565b5b60405190808252806020026020018201604052801561044f5781602001602082028036833780820191505090505b5060019080519060200190610465929190610628565b505f3373ffffffffffffffffffffffffffffffffffffffff164760405161048b90610973565b5f6040518083038185875af1925050503d805f81146104c5576040519150601f19603f3d011682016040523d82523d5f602084013e6104ca565b606091505b505090508061050e576040517f08c379a0000000000000000000000000000000000000000000000000000000008152600401610505906109d1565b60405180910390fd5b50565b60035f9054906101000a900473ffffffffffffffffffffffffffffffffffffffff1681565b6002602052805f5260405f205f915090505481565b5f80610555610583565b90505f670de0b6b3a7640000848361056d91906109ef565b6105779190610a5d565b90508092505050919050565b5f8073694aa1769357215de4fac081bf1f309adc32530690505f8173ffffffffffffffffffffffffffffffffffffffff1663feaf968c6040518163ffffffff1660e01b815260040160a060405180830381865afa1580156105e6573d5f803e3d5ffd5b505050506040513d601f19601f8201168201806040525081019061060a9190610b29565b5050509150506402540be400816106219190610ba0565b9250505090565b828054828255905f5260205f2090810192821561069e579160200282015b8281111561069d578251825f6101000a81548173ffffffffffffffffffffffffffffffffffffffff021916908373ffffffffffffffffffffffffffffffffffffffff16021790555091602001919060010190610646565b5b5090506106ab91906106af565b5090565b5b808211156106c6575f815f9055506001016106b0565b5090565b5f819050919050565b6106dc816106ca565b82525050565b5f6020820190506106f55f8301846106d3565b92915050565b5f73ffffffffffffffffffffffffffffffffffffffff82169050919050565b5f610724826106fb565b9050919050565b6107348161071a565b82525050565b5f60208201905061074d5f83018461072b565b92915050565b5f80fd5b6107608161071a565b811461076a575f80fd5b50565b5f8135905061077b81610757565b92915050565b5f6020828403121561079657610795610753565b5b5f6107a38482850161076d565b91505092915050565b5f82825260208201905092915050565b7f646964276e742073656e6420656e6f75676820000000000000000000000000005f82015250565b5f6107f06013836107ac565b91506107fb826107bc565b602082019050919050565b5f6020820190508181035f83015261081d816107e4565b9050919050565b7f4e487b71000000000000000000000000000000000000000000000000000000005f52601160045260245ffd5b5f61085b826106ca565b9150610866836106ca565b925082820190508082111561087e5761087d610824565b5b92915050565b7f4d7573742062652061206f776e657200000000000000000000000000000000005f82015250565b5f6108b8600f836107ac565b91506108c382610884565b602082019050919050565b5f6020820190508181035f8301526108e5816108ac565b9050919050565b7f4e487b71000000000000000000000000000000000000000000000000000000005f52603260045260245ffd5b7f4e487b71000000000000000000000000000000000000000000000000000000005f52604160045260245ffd5b5f81905092915050565b50565b5f61095e5f83610946565b915061096982610950565b5f82019050919050565b5f61097d82610953565b9150819050919050565b7f63616c6c206661696c65640000000000000000000000000000000000000000005f82015250565b5f6109bb600b836107ac565b91506109c682610987565b602082019050919050565b5f6020820190508181035f8301526109e8816109af565b9050919050565b5f6109f9826106ca565b9150610a04836106ca565b9250828202610a12816106ca565b91508282048414831517610a2957610a28610824565b5b5092915050565b7f4e487b71000000000000000000000000000000000000000000000000000000005f52601260045260245ffd5b5f610a67826106ca565b9150610a72836106ca565b925082610a8257610a81610a30565b5b828204905092915050565b5f69ffffffffffffffffffff82169050919050565b610aab81610a8d565b8114610ab5575f80fd5b50565b5f81519050610ac681610aa2565b92915050565b5f819050919050565b610ade81610acc565b8114610ae8575f80fd5b50565b5f81519050610af981610ad5565b92915050565b610b08816106ca565b8114610b12575f80fd5b50565b5f81519050610b2381610aff565b92915050565b5f805f805f60a08688031215610b4257610b41610753565b5b5f610b4f88828901610ab8565b9550506020610b6088828901610aeb565b9450506040610b7188828901610b15565b9350506060610b8288828901610b15565b9250506080610b9388828901610ab8565b9150509295509295909350565b5f610baa82610acc565b9150610bb583610acc565b9250828202610bc381610acc565b91507f800000000000000000000000000000000000000000000000000000000000000084145f84121615610bfa57610bf9610824565b5b8282058414831517610c0f57610c0e610824565b5b509291505056fea2646970667358221220ab723586ac39269ffddc0f35ca3e6ec72f5611d81d1d86e1281a2566dacc6f0564736f6c634300081a0033",
					"opcodes": "PUSH1 0x80 PUSH1 0x40 MSTORE PUSH1 0x5 PUSH0 SSTORE CALLVALUE DUP1 ISZERO PUSH1 0x12 JUMPI PUSH0 DUP1 REVERT JUMPDEST POP CALLER PUSH1 0x3 PUSH0 PUSH2 0x100 EXP DUP2 SLOAD DUP2 PUSH20 0xFFFFFFFFFFFFFFFFFFFFFFFFFFFFFFFFFFFFFFFF MUL NOT AND SWAP1 DUP4 PUSH20 0xFFFFFFFFFFFFFFFFFFFFFFFFFFFFFFFFFFFFFFFF AND MUL OR SWAP1 SSTORE POP PUSH2 0xC4C DUP1 PUSH2 0x60 PUSH0 CODECOPY PUSH0 RETURN INVALID PUSH1 0x80 PUSH1 0x40 MSTORE PUSH1 0x4 CALLDATASIZE LT PUSH2 0x4D JUMPI PUSH0 CALLDATALOAD PUSH1 0xE0 SHR DUP1 PUSH4 0x98DE820 EQ PUSH2 0x66 JUMPI DUP1 PUSH4 0x3CCFD60B EQ PUSH2 0x90 JUMPI DUP1 PUSH4 0x8DA5CB5B EQ PUSH2 0xA6 JUMPI DUP1 PUSH4 0xB60D4288 EQ PUSH2 0xD0 JUMPI DUP1 PUSH4 0xDC90EDDD EQ PUSH2 0xDA JUMPI PUSH2 0x5C JUMP JUMPDEST CALLDATASIZE PUSH2 0x5C JUMPI PUSH2 0x5A PUSH2 0x116 JUMP JUMPDEST STOP JUMPDEST PUSH2 0x64 PUSH2 0x116 JUMP JUMPDEST STOP JUMPDEST CALLVALUE DUP1 ISZERO PUSH2 0x71 JUMPI PUSH0 DUP1 REVERT JUMPDEST POP PUSH2 0x7A PUSH2 0x24E JUMP JUMPDEST PUSH1 0x40 MLOAD PUSH2 0x87 SWAP2 SWAP1 PUSH2 0x6E2 JUMP JUMPDEST PUSH1 0x40 MLOAD DUP1 SWAP2 SUB SWAP1 RETURN JUMPDEST CALLVALUE DUP1 ISZERO PUSH2 0x9B JUMPI PUSH0 DUP1 REVERT JUMPDEST POP PUSH2 0xA4 PUSH2 0x253 JUMP JUMPDEST STOP JUMPDEST CALLVALUE DUP1 ISZERO PUSH2 0xB1 JUMPI PUSH0 DUP1 REVERT JUMPDEST POP PUSH2 0xBA PUSH2 0x511 JUMP JUMPDEST PUSH1 0x40 MLOAD PUSH2 0xC7 SWAP2 SWAP1 PUSH2 0x73A JUMP JUMPDEST PUSH1 0x40 MLOAD DUP1 SWAP2 SUB SWAP1 RETURN JUMPDEST PUSH2 0xD8 PUSH2 0x116 JUMP JUMPDEST STOP JUMPDEST CALLVALUE DUP1 ISZERO PUSH2 0xE5 JUMPI PUSH0 DUP1 REVERT JUMPDEST POP PUSH2 0x100 PUSH1 0x4 DUP1 CALLDATASIZE SUB DUP2 ADD SWAP1 PUSH2 0xFB SWAP2 SWAP1 PUSH2 0x781 JUMP JUMPDEST PUSH2 0x536 JUMP JUMPDEST PUSH1 0x40 MLOAD PUSH2 0x10D SWAP2 SWAP1 PUSH2 0x6E2 JUMP JUMPDEST PUSH1 0x40 MLOAD DUP1 SWAP2 SUB SWAP1 RETURN JUMPDEST PUSH0 SLOAD PUSH2 0x121 CALLVALUE PUSH2 0x54B JUMP JUMPDEST LT ISZERO PUSH2 0x162 JUMPI PUSH1 0x40 MLOAD PUSH32 0x8C379A000000000000000000000000000000000000000000000000000000000 DUP2 MSTORE PUSH1 0x4 ADD PUSH2 0x159 SWAP1 PUSH2 0x806 JUMP JUMPDEST PUSH1 0x40 MLOAD DUP1 SWAP2 SUB SWAP1 REVERT JUMPDEST PUSH1 0x1 CALLER SWAP1 DUP1 PUSH1 0x1 DUP2 SLOAD ADD DUP1 DUP3 SSTORE DUP1 SWAP2 POP POP PUSH1 0x1 SWAP1 SUB SWAP1 PUSH0 MSTORE PUSH1 0x20 PUSH0 KECCAK256 ADD PUSH0 SWAP1 SWAP2 SWAP1 SWAP2 SWAP1 SWAP2 PUSH2 0x100 EXP DUP2 SLOAD DUP2 PUSH20 0xFFFFFFFFFFFFFFFFFFFFFFFFFFFFFFFFFFFFFFFF MUL NOT AND SWAP1 DUP4 PUSH20 0xFFFFFFFFFFFFFFFFFFFFFFFFFFFFFFFFFFFFFFFF AND MUL OR SWAP1 SSTORE POP CALLVALUE PUSH1 0x2 PUSH0 CALLER PUSH20 0xFFFFFFFFFFFFFFFFFFFFFFFFFFFFFFFFFFFFFFFF AND PUSH20 0xFFFFFFFFFFFFFFFFFFFFFFFFFFFFFFFFFFFFFFFF AND DUP2 MSTORE PUSH1 0x20 ADD SWAP1 DUP2 MSTORE PUSH1 0x20 ADD PUSH0 KECCAK256 SLOAD PUSH2 0x20B SWAP2 SWAP1 PUSH2 0x851 JUMP JUMPDEST PUSH1 0x2 PUSH0 CALLER PUSH20 0xFFFFFFFFFFFFFFFFFFFFFFFFFFFFFFFFFFFFFFFF AND PUSH20 0xFFFFFFFFFFFFFFFFFFFFFFFFFFFFFFFFFFFFFFFF AND DUP2 MSTORE PUSH1 0x20 ADD SWAP1 DUP2 MSTORE PUSH1 0x20 ADD PUSH0 KECCAK256 DUP2 SWAP1 SSTORE POP JUMP JUMPDEST PUSH0 SLOAD DUP2 JUMP JUMPDEST PUSH1 0x3 PUSH0 SWAP1 SLOAD SWAP1 PUSH2 0x100 EXP SWAP1 DIV PUSH20 0xFFFFFFFFFFFFFFFFFFFFFFFFFFFFFFFFFFFFFFFF AND PUSH20 0xFFFFFFFFFFFFFFFFFFFFFFFFFFFFFFFFFFFFFFFF AND CALLER PUSH20 0xFFFFFFFFFFFFFFFFFFFFFFFFFFFFFFFFFFFFFFFF AND EQ PUSH2 0x2D9 JUMPI PUSH1 0x40 MLOAD PUSH32 0x30CD747100000000000000000000000000000000000000000000000000000000 DUP2 MSTORE PUSH1 0x4 ADD PUSH1 0x40 MLOAD DUP1 SWAP2 SUB SWAP1 REVERT JUMPDEST PUSH1 0x3 PUSH0 SWAP1 SLOAD SWAP1 PUSH2 0x100 EXP SWAP1 DIV PUSH20 0xFFFFFFFFFFFFFFFFFFFFFFFFFFFFFFFFFFFFFFFF AND PUSH20 0xFFFFFFFFFFFFFFFFFFFFFFFFFFFFFFFFFFFFFFFF AND CALLER PUSH20 0xFFFFFFFFFFFFFFFFFFFFFFFFFFFFFFFFFFFFFFFF AND EQ PUSH2 0x368 JUMPI PUSH1 0x40 MLOAD PUSH32 0x8C379A000000000000000000000000000000000000000000000000000000000 DUP2 MSTORE PUSH1 0x4 ADD PUSH2 0x35F SWAP1 PUSH2 0x8CE JUMP JUMPDEST PUSH1 0x40 MLOAD DUP1 SWAP2 SUB SWAP1 REVERT JUMPDEST PUSH0 JUMPDEST PUSH1 0x1 DUP1 SLOAD SWAP1 POP DUP2 LT ISZERO PUSH2 0x406 JUMPI PUSH0 PUSH1 0x1 DUP3 DUP2 SLOAD DUP2 LT PUSH2 0x38C JUMPI PUSH2 0x38B PUSH2 0x8EC JUMP JUMPDEST JUMPDEST SWAP1 PUSH0 MSTORE PUSH1 0x20 PUSH0 KECCAK256 ADD PUSH0 SWAP1 SLOAD SWAP1 PUSH2 0x100 EXP SWAP1 DIV PUSH20 0xFFFFFFFFFFFFFFFFFFFFFFFFFFFFFFFFFFFFFFFF AND SWAP1 POP PUSH0 PUSH1 0x2 PUSH0 DUP4 PUSH20 0xFFFFFFFFFFFFFFFFFFFFFFFFFFFFFFFFFFFFFFFF AND PUSH20 0xFFFFFFFFFFFFFFFFFFFFFFFFFFFFFFFFFFFFFFFF AND DUP2 MSTORE PUSH1 0x20 ADD SWAP1 DUP2 MSTORE PUSH1 0x20 ADD PUSH0 KECCAK256 DUP2 SWAP1 SSTORE POP POP DUP1 DUP1 PUSH1 0x1 ADD SWAP2 POP POP PUSH2 0x36A JUMP JUMPDEST POP PUSH0 PUSH8 0xFFFFFFFFFFFFFFFF DUP2 GT ISZERO PUSH2 0x421 JUMPI PUSH2 0x420 PUSH2 0x919 JUMP JUMPDEST JUMPDEST PUSH1 0x40 MLOAD SWAP1 DUP1 DUP3 MSTORE DUP1 PUSH1 0x20 MUL PUSH1 0x20 ADD DUP3 ADD PUSH1 0x40 MSTORE DUP1 ISZERO PUSH2 0x44F JUMPI DUP2 PUSH1 0x20 ADD PUSH1 0x20 DUP3 MUL DUP1 CALLDATASIZE DUP4 CALLDATACOPY DUP1 DUP3 ADD SWAP2 POP POP SWAP1 POP JUMPDEST POP PUSH1 0x1 SWAP1 DUP1 MLOAD SWAP1 PUSH1 0x20 ADD SWAP1 PUSH2 0x465 SWAP3 SWAP2 SWAP1 PUSH2 0x628 JUMP JUMPDEST POP PUSH0 CALLER PUSH20 0xFFFFFFFFFFFFFFFFFFFFFFFFFFFFFFFFFFFFFFFF AND SELFBALANCE PUSH1 0x40 MLOAD PUSH2 0x48B SWAP1 PUSH2 0x973 JUMP JUMPDEST PUSH0 PUSH1 0x40 MLOAD DUP1 DUP4 SUB DUP2 DUP6 DUP8 GAS CALL SWAP3 POP POP POP RETURNDATASIZE DUP1 PUSH0 DUP2 EQ PUSH2 0x4C5 JUMPI PUSH1 0x40 MLOAD SWAP2 POP PUSH1 0x1F NOT PUSH1 0x3F RETURNDATASIZE ADD AND DUP3 ADD PUSH1 0x40 MSTORE RETURNDATASIZE DUP3 MSTORE RETURNDATASIZE PUSH0 PUSH1 0x20 DUP5 ADD RETURNDATACOPY PUSH2 0x4CA JUMP JUMPDEST PUSH1 0x60 SWAP2 POP JUMPDEST POP POP SWAP1 POP DUP1 PUSH2 0x50E JUMPI PUSH1 0x40 MLOAD PUSH32 0x8C379A000000000000000000000000000000000000000000000000000000000 DUP2 MSTORE PUSH1 0x4 ADD PUSH2 0x505 SWAP1 PUSH2 0x9D1 JUMP JUMPDEST PUSH1 0x40 MLOAD DUP1 SWAP2 SUB SWAP1 REVERT JUMPDEST POP JUMP JUMPDEST PUSH1 0x3 PUSH0 SWAP1 SLOAD SWAP1 PUSH2 0x100 EXP SWAP1 DIV PUSH20 0xFFFFFFFFFFFFFFFFFFFFFFFFFFFFFFFFFFFFFFFF AND DUP2 JUMP JUMPDEST PUSH1 0x2 PUSH1 0x20 MSTORE DUP1 PUSH0 MSTORE PUSH1 0x40 PUSH0 KECCAK256 PUSH0 SWAP2 POP SWAP1 POP SLOAD DUP2 JUMP JUMPDEST PUSH0 DUP1 PUSH2 0x555 PUSH2 0x583 JUMP JUMPDEST SWAP1 POP PUSH0 PUSH8 0xDE0B6B3A7640000 DUP5 DUP4 PUSH2 0x56D SWAP2 SWAP1 PUSH2 0x9EF JUMP JUMPDEST PUSH2 0x577 SWAP2 SWAP1 PUSH2 0xA5D JUMP JUMPDEST SWAP1 POP DUP1 SWAP3 POP POP POP SWAP2 SWAP1 POP JUMP JUMPDEST PUSH0 DUP1 PUSH20 0x694AA1769357215DE4FAC081BF1F309ADC325306 SWAP1 POP PUSH0 DUP2 PUSH20 0xFFFFFFFFFFFFFFFFFFFFFFFFFFFFFFFFFFFFFFFF AND PUSH4 0xFEAF968C PUSH1 0x40 MLOAD DUP2 PUSH4 0xFFFFFFFF AND PUSH1 0xE0 SHL DUP2 MSTORE PUSH1 0x4 ADD PUSH1 0xA0 PUSH1 0x40 MLOAD DUP1 DUP4 SUB DUP2 DUP7 GAS STATICCALL ISZERO DUP1 ISZERO PUSH2 0x5E6 JUMPI RETURNDATASIZE PUSH0 DUP1 RETURNDATACOPY RETURNDATASIZE PUSH0 REVERT JUMPDEST POP POP POP POP PUSH1 0x40 MLOAD RETURNDATASIZE PUSH1 0x1F NOT PUSH1 0x1F DUP3 ADD AND DUP3 ADD DUP1 PUSH1 0x40 MSTORE POP DUP2 ADD SWAP1 PUSH2 0x60A SWAP2 SWAP1 PUSH2 0xB29 JUMP JUMPDEST POP POP POP SWAP2 POP POP PUSH5 0x2540BE400 DUP2 PUSH2 0x621 SWAP2 SWAP1 PUSH2 0xBA0 JUMP JUMPDEST SWAP3 POP POP POP SWAP1 JUMP JUMPDEST DUP3 DUP1 SLOAD DUP3 DUP3 SSTORE SWAP1 PUSH0 MSTORE PUSH1 0x20 PUSH0 KECCAK256 SWAP1 DUP2 ADD SWAP3 DUP3 ISZERO PUSH2 0x69E JUMPI SWAP2 PUSH1 0x20 MUL DUP3 ADD JUMPDEST DUP3 DUP2 GT ISZERO PUSH2 0x69D JUMPI DUP3 MLOAD DUP3 PUSH0 PUSH2 0x100 EXP DUP2 SLOAD DUP2 PUSH20 0xFFFFFFFFFFFFFFFFFFFFFFFFFFFFFFFFFFFFFFFF MUL NOT AND SWAP1 DUP4 PUSH20 0xFFFFFFFFFFFFFFFFFFFFFFFFFFFFFFFFFFFFFFFF AND MUL OR SWAP1 SSTORE POP SWAP2 PUSH1 0x20 ADD SWAP2 SWAP1 PUSH1 0x1 ADD SWAP1 PUSH2 0x646 JUMP JUMPDEST JUMPDEST POP SWAP1 POP PUSH2 0x6AB SWAP2 SWAP1 PUSH2 0x6AF JUMP JUMPDEST POP SWAP1 JUMP JUMPDEST JUMPDEST DUP1 DUP3 GT ISZERO PUSH2 0x6C6 JUMPI PUSH0 DUP2 PUSH0 SWAP1 SSTORE POP PUSH1 0x1 ADD PUSH2 0x6B0 JUMP JUMPDEST POP SWAP1 JUMP JUMPDEST PUSH0 DUP2 SWAP1 POP SWAP2 SWAP1 POP JUMP JUMPDEST PUSH2 0x6DC DUP2 PUSH2 0x6CA JUMP JUMPDEST DUP3 MSTORE POP POP JUMP JUMPDEST PUSH0 PUSH1 0x20 DUP3 ADD SWAP1 POP PUSH2 0x6F5 PUSH0 DUP4 ADD DUP5 PUSH2 0x6D3 JUMP JUMPDEST SWAP3 SWAP2 POP POP JUMP JUMPDEST PUSH0 PUSH20 0xFFFFFFFFFFFFFFFFFFFFFFFFFFFFFFFFFFFFFFFF DUP3 AND SWAP1 POP SWAP2 SWAP1 POP JUMP JUMPDEST PUSH0 PUSH2 0x724 DUP3 PUSH2 0x6FB JUMP JUMPDEST SWAP1 POP SWAP2 SWAP1 POP JUMP JUMPDEST PUSH2 0x734 DUP2 PUSH2 0x71A JUMP JUMPDEST DUP3 MSTORE POP POP JUMP JUMPDEST PUSH0 PUSH1 0x20 DUP3 ADD SWAP1 POP PUSH2 0x74D PUSH0 DUP4 ADD DUP5 PUSH2 0x72B JUMP JUMPDEST SWAP3 SWAP2 POP POP JUMP JUMPDEST PUSH0 DUP1 REVERT JUMPDEST PUSH2 0x760 DUP2 PUSH2 0x71A JUMP JUMPDEST DUP2 EQ PUSH2 0x76A JUMPI PUSH0 DUP1 REVERT JUMPDEST POP JUMP JUMPDEST PUSH0 DUP2 CALLDATALOAD SWAP1 POP PUSH2 0x77B DUP2 PUSH2 0x757 JUMP JUMPDEST SWAP3 SWAP2 POP POP JUMP JUMPDEST PUSH0 PUSH1 0x20 DUP3 DUP5 SUB SLT ISZERO PUSH2 0x796 JUMPI PUSH2 0x795 PUSH2 0x753 JUMP JUMPDEST JUMPDEST PUSH0 PUSH2 0x7A3 DUP5 DUP3 DUP6 ADD PUSH2 0x76D JUMP JUMPDEST SWAP2 POP POP SWAP3 SWAP2 POP POP JUMP JUMPDEST PUSH0 DUP3 DUP3 MSTORE PUSH1 0x20 DUP3 ADD SWAP1 POP SWAP3 SWAP2 POP POP JUMP JUMPDEST PUSH32 0x646964276E742073656E6420656E6F7567682000000000000000000000000000 PUSH0 DUP3 ADD MSTORE POP JUMP JUMPDEST PUSH0 PUSH2 0x7F0 PUSH1 0x13 DUP4 PUSH2 0x7AC JUMP JUMPDEST SWAP2 POP PUSH2 0x7FB DUP3 PUSH2 0x7BC JUMP JUMPDEST PUSH1 0x20 DUP3 ADD SWAP1 POP SWAP2 SWAP1 POP JUMP JUMPDEST PUSH0 PUSH1 0x20 DUP3 ADD SWAP1 POP DUP2 DUP2 SUB PUSH0 DUP4 ADD MSTORE PUSH2 0x81D DUP2 PUSH2 0x7E4 JUMP JUMPDEST SWAP1 POP SWAP2 SWAP1 POP JUMP JUMPDEST PUSH32 0x4E487B7100000000000000000000000000000000000000000000000000000000 PUSH0 MSTORE PUSH1 0x11 PUSH1 0x4 MSTORE PUSH1 0x24 PUSH0 REVERT JUMPDEST PUSH0 PUSH2 0x85B DUP3 PUSH2 0x6CA JUMP JUMPDEST SWAP2 POP PUSH2 0x866 DUP4 PUSH2 0x6CA JUMP JUMPDEST SWAP3 POP DUP3 DUP3 ADD SWAP1 POP DUP1 DUP3 GT ISZERO PUSH2 0x87E JUMPI PUSH2 0x87D PUSH2 0x824 JUMP JUMPDEST JUMPDEST SWAP3 SWAP2 POP POP JUMP JUMPDEST PUSH32 0x4D7573742062652061206F776E65720000000000000000000000000000000000 PUSH0 DUP3 ADD MSTORE POP JUMP JUMPDEST PUSH0 PUSH2 0x8B8 PUSH1 0xF DUP4 PUSH2 0x7AC JUMP JUMPDEST SWAP2 POP PUSH2 0x8C3 DUP3 PUSH2 0x884 JUMP JUMPDEST PUSH1 0x20 DUP3 ADD SWAP1 POP SWAP2 SWAP1 POP JUMP JUMPDEST PUSH0 PUSH1 0x20 DUP3 ADD SWAP1 POP DUP2 DUP2 SUB PUSH0 DUP4 ADD MSTORE PUSH2 0x8E5 DUP2 PUSH2 0x8AC JUMP JUMPDEST SWAP1 POP SWAP2 SWAP1 POP JUMP JUMPDEST PUSH32 0x4E487B7100000000000000000000000000000000000000000000000000000000 PUSH0 MSTORE PUSH1 0x32 PUSH1 0x4 MSTORE PUSH1 0x24 PUSH0 REVERT JUMPDEST PUSH32 0x4E487B7100000000000000000000000000000000000000000000000000000000 PUSH0 MSTORE PUSH1 0x41 PUSH1 0x4 MSTORE PUSH1 0x24 PUSH0 REVERT JUMPDEST PUSH0 DUP2 SWAP1 POP SWAP3 SWAP2 POP POP JUMP JUMPDEST POP JUMP JUMPDEST PUSH0 PUSH2 0x95E PUSH0 DUP4 PUSH2 0x946 JUMP JUMPDEST SWAP2 POP PUSH2 0x969 DUP3 PUSH2 0x950 JUMP JUMPDEST PUSH0 DUP3 ADD SWAP1 POP SWAP2 SWAP1 POP JUMP JUMPDEST PUSH0 PUSH2 0x97D DUP3 PUSH2 0x953 JUMP JUMPDEST SWAP2 POP DUP2 SWAP1 POP SWAP2 SWAP1 POP JUMP JUMPDEST PUSH32 0x63616C6C206661696C6564000000000000000000000000000000000000000000 PUSH0 DUP3 ADD MSTORE POP JUMP JUMPDEST PUSH0 PUSH2 0x9BB PUSH1 0xB DUP4 PUSH2 0x7AC JUMP JUMPDEST SWAP2 POP PUSH2 0x9C6 DUP3 PUSH2 0x987 JUMP JUMPDEST PUSH1 0x20 DUP3 ADD SWAP1 POP SWAP2 SWAP1 POP JUMP JUMPDEST PUSH0 PUSH1 0x20 DUP3 ADD SWAP1 POP DUP2 DUP2 SUB PUSH0 DUP4 ADD MSTORE PUSH2 0x9E8 DUP2 PUSH2 0x9AF JUMP JUMPDEST SWAP1 POP SWAP2 SWAP1 POP JUMP JUMPDEST PUSH0 PUSH2 0x9F9 DUP3 PUSH2 0x6CA JUMP JUMPDEST SWAP2 POP PUSH2 0xA04 DUP4 PUSH2 0x6CA JUMP JUMPDEST SWAP3 POP DUP3 DUP3 MUL PUSH2 0xA12 DUP2 PUSH2 0x6CA JUMP JUMPDEST SWAP2 POP DUP3 DUP3 DIV DUP5 EQ DUP4 ISZERO OR PUSH2 0xA29 JUMPI PUSH2 0xA28 PUSH2 0x824 JUMP JUMPDEST JUMPDEST POP SWAP3 SWAP2 POP POP JUMP JUMPDEST PUSH32 0x4E487B7100000000000000000000000000000000000000000000000000000000 PUSH0 MSTORE PUSH1 0x12 PUSH1 0x4 MSTORE PUSH1 0x24 PUSH0 REVERT JUMPDEST PUSH0 PUSH2 0xA67 DUP3 PUSH2 0x6CA JUMP JUMPDEST SWAP2 POP PUSH2 0xA72 DUP4 PUSH2 0x6CA JUMP JUMPDEST SWAP3 POP DUP3 PUSH2 0xA82 JUMPI PUSH2 0xA81 PUSH2 0xA30 JUMP JUMPDEST JUMPDEST DUP3 DUP3 DIV SWAP1 POP SWAP3 SWAP2 POP POP JUMP JUMPDEST PUSH0 PUSH10 0xFFFFFFFFFFFFFFFFFFFF DUP3 AND SWAP1 POP SWAP2 SWAP1 POP JUMP JUMPDEST PUSH2 0xAAB DUP2 PUSH2 0xA8D JUMP JUMPDEST DUP2 EQ PUSH2 0xAB5 JUMPI PUSH0 DUP1 REVERT JUMPDEST POP JUMP JUMPDEST PUSH0 DUP2 MLOAD SWAP1 POP PUSH2 0xAC6 DUP2 PUSH2 0xAA2 JUMP JUMPDEST SWAP3 SWAP2 POP POP JUMP JUMPDEST PUSH0 DUP2 SWAP1 POP SWAP2 SWAP1 POP JUMP JUMPDEST PUSH2 0xADE DUP2 PUSH2 0xACC JUMP JUMPDEST DUP2 EQ PUSH2 0xAE8 JUMPI PUSH0 DUP1 REVERT JUMPDEST POP JUMP JUMPDEST PUSH0 DUP2 MLOAD SWAP1 POP PUSH2 0xAF9 DUP2 PUSH2 0xAD5 JUMP JUMPDEST SWAP3 SWAP2 POP POP JUMP JUMPDEST PUSH2 0xB08 DUP2 PUSH2 0x6CA JUMP JUMPDEST DUP2 EQ PUSH2 0xB12 JUMPI PUSH0 DUP1 REVERT JUMPDEST POP JUMP JUMPDEST PUSH0 DUP2 MLOAD SWAP1 POP PUSH2 0xB23 DUP2 PUSH2 0xAFF JUMP JUMPDEST SWAP3 SWAP2 POP POP JUMP JUMPDEST PUSH0 DUP1 PUSH0 DUP1 PUSH0 PUSH1 0xA0 DUP7 DUP9 SUB SLT ISZERO PUSH2 0xB42 JUMPI PUSH2 0xB41 PUSH2 0x753 JUMP JUMPDEST JUMPDEST PUSH0 PUSH2 0xB4F DUP9 DUP3 DUP10 ADD PUSH2 0xAB8 JUMP JUMPDEST SWAP6 POP POP PUSH1 0x20 PUSH2 0xB60 DUP9 DUP3 DUP10 ADD PUSH2 0xAEB JUMP JUMPDEST SWAP5 POP POP PUSH1 0x40 PUSH2 0xB71 DUP9 DUP3 DUP10 ADD PUSH2 0xB15 JUMP JUMPDEST SWAP4 POP POP PUSH1 0x60 PUSH2 0xB82 DUP9 DUP3 DUP10 ADD PUSH2 0xB15 JUMP JUMPDEST SWAP3 POP POP PUSH1 0x80 PUSH2 0xB93 DUP9 DUP3 DUP10 ADD PUSH2 0xAB8 JUMP JUMPDEST SWAP2 POP POP SWAP3 SWAP6 POP SWAP3 SWAP6 SWAP1 SWAP4 POP JUMP JUMPDEST PUSH0 PUSH2 0xBAA DUP3 PUSH2 0xACC JUMP JUMPDEST SWAP2 POP PUSH2 0xBB5 DUP4 PUSH2 0xACC JUMP JUMPDEST SWAP3 POP DUP3 DUP3 MUL PUSH2 0xBC3 DUP2 PUSH2 0xACC JUMP JUMPDEST SWAP2 POP PUSH32 0x8000000000000000000000000000000000000000000000000000000000000000 DUP5 EQ PUSH0 DUP5 SLT AND ISZERO PUSH2 0xBFA JUMPI PUSH2 0xBF9 PUSH2 0x824 JUMP JUMPDEST JUMPDEST DUP3 DUP3 SDIV DUP5 EQ DUP4 ISZERO OR PUSH2 0xC0F JUMPI PUSH2 0xC0E PUSH2 0x824 JUMP JUMPDEST JUMPDEST POP SWAP3 SWAP2 POP POP JUMP INVALID LOG2 PUSH5 0x6970667358 0x22 SLT KECCAK256 0xAB PUSH19 0x3586AC39269FFDDC0F35CA3E6EC72F5611D81D SAR DUP7 0xE1 0x28 BYTE 0x25 PUSH7 0xDACC6F0564736F PUSH13 0x634300081A0033000000000000 "
				},
				"gasEstimates": {
					"creation": {
						"codeDepositCost": "629600",
						"executionCost": "47032",
						"totalCost": "676632"
					},
					"external": {
						"": "infinite",
						"AddressToAmountFunded(address)": "2868",
						"fund()": "infinite",
						"minimumUsd()": "2402",
						"owner()": "2530",
						"withdraw()": "infinite"
					}
				},
				"methodIdentifiers": {
					"AddressToAmountFunded(address)": "dc90eddd",
					"fund()": "b60d4288",
					"minimumUsd()": "098de820",
					"owner()": "8da5cb5b",
					"withdraw()": "3ccfd60b"
				}
			},
			"storageLayout": {
				"storage": [
					{
						"astId": 52,
						"contract": "Remix Fund me/FundMe.sol:FundMe",
						"label": "minimumUsd",
						"offset": 0,
						"slot": "0",
						"type": "t_uint256"
					},
					{
						"astId": 55,
						"contract": "Remix Fund me/FundMe.sol:FundMe",
						"label": "funders",
						"offset": 0,
						"slot": "1",
						"type": "t_array(t_address)dyn_storage"
					},
					{
						"astId": 59,
						"contract": "Remix Fund me/FundMe.sol:FundMe",
						"label": "AddressToAmountFunded",
						"offset": 0,
						"slot": "2",
						"type": "t_mapping(t_address,t_uint256)"
					},
					{
						"astId": 64,
						"contract": "Remix Fund me/FundMe.sol:FundMe",
						"label": "owner",
						"offset": 0,
						"slot": "3",
						"type": "t_address"
					}
				],
				"types": {
					"t_address": {
						"encoding": "inplace",
						"label": "address",
						"numberOfBytes": "20"
					},
					"t_array(t_address)dyn_storage": {
						"base": "t_address",
						"encoding": "dynamic_array",
						"label": "address[]",
						"numberOfBytes": "32"
					},
					"t_mapping(t_address,t_uint256)": {
						"encoding": "mapping",
						"key": "t_address",
						"label": "mapping(address => uint256)",
						"numberOfBytes": "32",
						"value": "t_uint256"
					},
					"t_uint256": {
						"encoding": "inplace",
						"label": "uint256",
						"numberOfBytes": "32"
					}
				}
			},
			"userdoc": {
				"kind": "user",
				"methods": {},
				"version": 1
			}
		}
	}
}