{
	"Contracts/StorageFactory.sol": {
		"StorageFactory": {
			"abi": [
				{
					"inputs": [],
					"name": "createSimpleStorageContract",
					"outputs": [],
					"stateMutability": "nonpayable",
					"type": "function"
				},
				{
					"inputs": [
						{
							"internalType": "uint256",
							"name": "",
							"type": "uint256"
						}
					],
					"name": "listOfSimpleStorageContracts",
					"outputs": [
						{
							"internalType": "contract SimpleStorage",
							"name": "",
							"type": "address"
						}
					],
					"stateMutability": "view",
					"type": "function"
				},
				{
					"inputs": [
						{
							"internalType": "uint256",
							"name": "_simpleStorageIndex",
							"type": "uint256"
						}
					],
					"name": "sfGet",
					"outputs": [
						{
							"internalType": "uint256",
							"name": "",
							"type": "uint256"
						}
					],
					"stateMutability": "view",
					"type": "function"
				},
				{
					"inputs": [
						{
							"internalType": "uint256",
							"name": "_simpleStorageIndex",
							"type": "uint256"
						},
						{
							"internalType": "uint256",
							"name": "_simpleStorageNumber",
							"type": "uint256"
						}
					],
					"name": "sfStore",
					"outputs": [],
					"stateMutability": "nonpayable",
					"type": "function"
				}
			],
			"devdoc": {
				"kind": "dev",
				"methods": {},
				"version": 1
			},
			"evm": {
				"assembly": "    /* \"Contracts/StorageFactory.sol\":177:1177  contract StorageFactory{... */\n  mstore(0x40, 0x80)\n  callvalue\n  dup1\n  iszero\n  tag_1\n  jumpi\n  0x00\n  dup1\n  revert\ntag_1:\n  pop\n  dataSize(sub_0)\n  dup1\n  dataOffset(sub_0)\n  0x00\n  codecopy\n  0x00\n  return\nstop\n\nsub_0: assembly {\n        /* \"Contracts/StorageFactory.sol\":177:1177  contract StorageFactory{... */\n      mstore(0x40, 0x80)\n      callvalue\n      dup1\n      iszero\n      tag_1\n      jumpi\n      0x00\n      dup1\n      revert\n    tag_1:\n      pop\n      jumpi(tag_2, lt(calldatasize, 0x04))\n      shr(0xe0, calldataload(0x00))\n      dup1\n      0x1563700f\n      eq\n      tag_3\n      jumpi\n      dup1\n      0x1dda6541\n      eq\n      tag_4\n      jumpi\n      dup1\n      0xc5f19c20\n      eq\n      tag_5\n      jumpi\n      dup1\n      0xf39f3035\n      eq\n      tag_6\n      jumpi\n    tag_2:\n      0x00\n      dup1\n      revert\n        /* \"Contracts/StorageFactory.sol\":543:912  function sfStore(... */\n    tag_3:\n      tag_7\n      0x04\n      dup1\n      calldatasize\n      sub\n      dup2\n      add\n      swap1\n      tag_8\n      swap2\n      swap1\n      tag_9\n      jump\t// in\n    tag_8:\n      tag_10\n      jump\t// in\n    tag_7:\n      stop\n        /* \"Contracts/StorageFactory.sol\":267:535  function createSimpleStorageContract() public {... */\n    tag_4:\n      tag_11\n      tag_12\n      jump\t// in\n    tag_11:\n      stop\n        /* \"Contracts/StorageFactory.sol\":920:1174  function sfGet(uint256 _simpleStorageIndex) public view returns (uint256) {... */\n    tag_5:\n      tag_13\n      0x04\n      dup1\n      calldatasize\n      sub\n      dup2\n      add\n      swap1\n      tag_14\n      swap2\n      swap1\n      tag_15\n      jump\t// in\n    tag_14:\n      tag_16\n      jump\t// in\n    tag_13:\n      mload(0x40)\n      tag_17\n      swap2\n      swap1\n      tag_18\n      jump\t// in\n    tag_17:\n      mload(0x40)\n      dup1\n      swap2\n      sub\n      swap1\n      return\n        /* \"Contracts/StorageFactory.sol\":207:258  SimpleStorage[] public listOfSimpleStorageContracts */\n    tag_6:\n      tag_19\n      0x04\n      dup1\n      calldatasize\n      sub\n      dup2\n      add\n      swap1\n      tag_20\n      swap2\n      swap1\n      tag_15\n      jump\t// in\n    tag_20:\n      tag_21\n      jump\t// in\n    tag_19:\n      mload(0x40)\n      tag_22\n      swap2\n      swap1\n      tag_23\n      jump\t// in\n    tag_22:\n      mload(0x40)\n      dup1\n      swap2\n      sub\n      swap1\n      return\n        /* \"Contracts/StorageFactory.sol\":543:912  function sfStore(... */\n    tag_10:\n        /* \"Contracts/StorageFactory.sol\":803:831  listOfSimpleStorageContracts */\n      0x00\n        /* \"Contracts/StorageFactory.sol\":832:851  _simpleStorageIndex */\n      dup3\n        /* \"Contracts/StorageFactory.sol\":803:852  listOfSimpleStorageContracts[_simpleStorageIndex] */\n      dup2\n      sload\n      dup2\n      lt\n      tag_25\n      jumpi\n      tag_26\n      tag_27\n      jump\t// in\n    tag_26:\n    tag_25:\n      swap1\n      0x00\n      mstore\n      keccak256(0x00, 0x20)\n      add\n      0x00\n      swap1\n      sload\n      swap1\n      0x0100\n      exp\n      swap1\n      div\n      0xffffffffffffffffffffffffffffffffffffffff\n      and\n        /* \"Contracts/StorageFactory.sol\":803:858  listOfSimpleStorageContracts[_simpleStorageIndex].Store */\n      0xffffffffffffffffffffffffffffffffffffffff\n      and\n      0x69404ebd\n        /* \"Contracts/StorageFactory.sol\":873:893  _simpleStorageNumber */\n      dup3\n        /* \"Contracts/StorageFactory.sol\":803:904  listOfSimpleStorageContracts[_simpleStorageIndex].Store(... */\n      mload(0x40)\n      dup3\n      0xffffffff\n      and\n      0xe0\n      shl\n      dup2\n      mstore\n      0x04\n      add\n      tag_29\n      swap2\n      swap1\n      tag_18\n      jump\t// in\n    tag_29:\n      0x00\n      mload(0x40)\n      dup1\n      dup4\n      sub\n      dup2\n      0x00\n      dup8\n      dup1\n      extcodesize\n      iszero\n      dup1\n      iszero\n      tag_30\n      jumpi\n      0x00\n      dup1\n      revert\n    tag_30:\n      pop\n      gas\n      call\n      iszero\n      dup1\n      iszero\n      tag_32\n      jumpi\n      returndatasize\n      0x00\n      dup1\n      returndatacopy\n      revert(0x00, returndatasize)\n    tag_32:\n      pop\n      pop\n      pop\n      pop\n        /* \"Contracts/StorageFactory.sol\":543:912  function sfStore(... */\n      pop\n      pop\n      jump\t// out\n        /* \"Contracts/StorageFactory.sol\":267:535  function createSimpleStorageContract() public {... */\n    tag_12:\n        /* \"Contracts/StorageFactory.sol\":324:367  SimpleStorage simpleStorageContractVariable */\n      0x00\n        /* \"Contracts/StorageFactory.sol\":370:389  new SimpleStorage() */\n      mload(0x40)\n      tag_34\n      swap1\n      tag_35\n      jump\t// in\n    tag_34:\n      mload(0x40)\n      dup1\n      swap2\n      sub\n      swap1\n      0x00\n      create\n      dup1\n      iszero\n      dup1\n      iszero\n      tag_36\n      jumpi\n      returndatasize\n      0x00\n      dup1\n      returndatacopy\n      revert(0x00, returndatasize)\n    tag_36:\n      pop\n        /* \"Contracts/StorageFactory.sol\":324:389  SimpleStorage simpleStorageContractVariable = new SimpleStorage() */\n      swap1\n      pop\n        /* \"Contracts/StorageFactory.sol\":463:491  listOfSimpleStorageContracts */\n      0x00\n        /* \"Contracts/StorageFactory.sol\":497:526  simpleStorageContractVariable */\n      dup2\n        /* \"Contracts/StorageFactory.sol\":463:527  listOfSimpleStorageContracts.push(simpleStorageContractVariable) */\n      swap1\n      dup1\n      0x01\n      dup2\n      sload\n      add\n      dup1\n      dup3\n      sstore\n      dup1\n      swap2\n      pop\n      pop\n      0x01\n      swap1\n      sub\n      swap1\n      0x00\n      mstore\n      keccak256(0x00, 0x20)\n      add\n      0x00\n      swap1\n      swap2\n      swap1\n      swap2\n      swap1\n      swap2\n      0x0100\n      exp\n      dup2\n      sload\n      dup2\n      0xffffffffffffffffffffffffffffffffffffffff\n      mul\n      not\n      and\n      swap1\n      dup4\n      0xffffffffffffffffffffffffffffffffffffffff\n      and\n      mul\n      or\n      swap1\n      sstore\n      pop\n        /* \"Contracts/StorageFactory.sol\":313:535  {... */\n      pop\n        /* \"Contracts/StorageFactory.sol\":267:535  function createSimpleStorageContract() public {... */\n      jump\t// out\n        /* \"Contracts/StorageFactory.sol\":920:1174  function sfGet(uint256 _simpleStorageIndex) public view returns (uint256) {... */\n    tag_16:\n        /* \"Contracts/StorageFactory.sol\":985:992  uint256 */\n      0x00\n        /* \"Contracts/StorageFactory.sol\":1107:1135  listOfSimpleStorageContracts */\n      dup1\n        /* \"Contracts/StorageFactory.sol\":1136:1155  _simpleStorageIndex */\n      dup3\n        /* \"Contracts/StorageFactory.sol\":1107:1156  listOfSimpleStorageContracts[_simpleStorageIndex] */\n      dup2\n      sload\n      dup2\n      lt\n      tag_39\n      jumpi\n      tag_40\n      tag_27\n      jump\t// in\n    tag_40:\n    tag_39:\n      swap1\n      0x00\n      mstore\n      keccak256(0x00, 0x20)\n      add\n      0x00\n      swap1\n      sload\n      swap1\n      0x0100\n      exp\n      swap1\n      div\n      0xffffffffffffffffffffffffffffffffffffffff\n      and\n        /* \"Contracts/StorageFactory.sol\":1107:1164  listOfSimpleStorageContracts[_simpleStorageIndex].retrive */\n      0xffffffffffffffffffffffffffffffffffffffff\n      and\n      0xa6b7fc5b\n        /* \"Contracts/StorageFactory.sol\":1107:1166  listOfSimpleStorageContracts[_simpleStorageIndex].retrive() */\n      mload(0x40)\n      dup2\n      0xffffffff\n      and\n      0xe0\n      shl\n      dup2\n      mstore\n      0x04\n      add\n      0x20\n      mload(0x40)\n      dup1\n      dup4\n      sub\n      dup2\n      dup7\n      gas\n      staticcall\n      iszero\n      dup1\n      iszero\n      tag_43\n      jumpi\n      returndatasize\n      0x00\n      dup1\n      returndatacopy\n      revert(0x00, returndatasize)\n    tag_43:\n      pop\n      pop\n      pop\n      pop\n      mload(0x40)\n      returndatasize\n      not(0x1f)\n      0x1f\n      dup3\n      add\n      and\n      dup3\n      add\n      dup1\n      0x40\n      mstore\n      pop\n      dup2\n      add\n      swap1\n      tag_44\n      swap2\n      swap1\n      tag_45\n      jump\t// in\n    tag_44:\n        /* \"Contracts/StorageFactory.sol\":1100:1166  return listOfSimpleStorageContracts[_simpleStorageIndex].retrive() */\n      swap1\n      pop\n        /* \"Contracts/StorageFactory.sol\":920:1174  function sfGet(uint256 _simpleStorageIndex) public view returns (uint256) {... */\n      swap2\n      swap1\n      pop\n      jump\t// out\n        /* \"Contracts/StorageFactory.sol\":207:258  SimpleStorage[] public listOfSimpleStorageContracts */\n    tag_21:\n      0x00\n      dup2\n      dup2\n      sload\n      dup2\n      lt\n      tag_46\n      jumpi\n      0x00\n      dup1\n      revert\n    tag_46:\n      swap1\n      0x00\n      mstore\n      keccak256(0x00, 0x20)\n      add\n      0x00\n      swap2\n      pop\n      sload\n      swap1\n      0x0100\n      exp\n      swap1\n      div\n      0xffffffffffffffffffffffffffffffffffffffff\n      and\n      dup2\n      jump\t// out\n    tag_35:\n      dataSize(sub_0)\n      dup1\n      dataOffset(sub_0)\n      dup4\n      codecopy\n      add\n      swap1\n      jump\t// out\n        /* \"#utility.yul\":88:205   */\n    tag_49:\n        /* \"#utility.yul\":197:198   */\n      0x00\n        /* \"#utility.yul\":194:195   */\n      dup1\n        /* \"#utility.yul\":187:199   */\n      revert\n        /* \"#utility.yul\":334:411   */\n    tag_51:\n        /* \"#utility.yul\":371:378   */\n      0x00\n        /* \"#utility.yul\":400:405   */\n      dup2\n        /* \"#utility.yul\":389:405   */\n      swap1\n      pop\n        /* \"#utility.yul\":334:411   */\n      swap2\n      swap1\n      pop\n      jump\t// out\n        /* \"#utility.yul\":417:539   */\n    tag_52:\n        /* \"#utility.yul\":490:514   */\n      tag_68\n        /* \"#utility.yul\":508:513   */\n      dup2\n        /* \"#utility.yul\":490:514   */\n      tag_51\n      jump\t// in\n    tag_68:\n        /* \"#utility.yul\":483:488   */\n      dup2\n        /* \"#utility.yul\":480:515   */\n      eq\n        /* \"#utility.yul\":470:533   */\n      tag_69\n      jumpi\n        /* \"#utility.yul\":529:530   */\n      0x00\n        /* \"#utility.yul\":526:527   */\n      dup1\n        /* \"#utility.yul\":519:531   */\n      revert\n        /* \"#utility.yul\":470:533   */\n    tag_69:\n        /* \"#utility.yul\":417:539   */\n      pop\n      jump\t// out\n        /* \"#utility.yul\":545:684   */\n    tag_53:\n        /* \"#utility.yul\":591:596   */\n      0x00\n        /* \"#utility.yul\":629:635   */\n      dup2\n        /* \"#utility.yul\":616:636   */\n      calldataload\n        /* \"#utility.yul\":607:636   */\n      swap1\n      pop\n        /* \"#utility.yul\":645:678   */\n      tag_71\n        /* \"#utility.yul\":672:677   */\n      dup2\n        /* \"#utility.yul\":645:678   */\n      tag_52\n      jump\t// in\n    tag_71:\n        /* \"#utility.yul\":545:684   */\n      swap3\n      swap2\n      pop\n      pop\n      jump\t// out\n        /* \"#utility.yul\":690:1164   */\n    tag_9:\n        /* \"#utility.yul\":758:764   */\n      0x00\n        /* \"#utility.yul\":766:772   */\n      dup1\n        /* \"#utility.yul\":815:817   */\n      0x40\n        /* \"#utility.yul\":803:812   */\n      dup4\n        /* \"#utility.yul\":794:801   */\n      dup6\n        /* \"#utility.yul\":790:813   */\n      sub\n        /* \"#utility.yul\":786:818   */\n      slt\n        /* \"#utility.yul\":783:902   */\n      iszero\n      tag_73\n      jumpi\n        /* \"#utility.yul\":821:900   */\n      tag_74\n      tag_49\n      jump\t// in\n    tag_74:\n        /* \"#utility.yul\":783:902   */\n    tag_73:\n        /* \"#utility.yul\":941:942   */\n      0x00\n        /* \"#utility.yul\":966:1019   */\n      tag_75\n        /* \"#utility.yul\":1011:1018   */\n      dup6\n        /* \"#utility.yul\":1002:1008   */\n      dup3\n        /* \"#utility.yul\":991:1000   */\n      dup7\n        /* \"#utility.yul\":987:1009   */\n      add\n        /* \"#utility.yul\":966:1019   */\n      tag_53\n      jump\t// in\n    tag_75:\n        /* \"#utility.yul\":956:1019   */\n      swap3\n      pop\n        /* \"#utility.yul\":912:1029   */\n      pop\n        /* \"#utility.yul\":1068:1070   */\n      0x20\n        /* \"#utility.yul\":1094:1147   */\n      tag_76\n        /* \"#utility.yul\":1139:1146   */\n      dup6\n        /* \"#utility.yul\":1130:1136   */\n      dup3\n        /* \"#utility.yul\":1119:1128   */\n      dup7\n        /* \"#utility.yul\":1115:1137   */\n      add\n        /* \"#utility.yul\":1094:1147   */\n      tag_53\n      jump\t// in\n    tag_76:\n        /* \"#utility.yul\":1084:1147   */\n      swap2\n      pop\n        /* \"#utility.yul\":1039:1157   */\n      pop\n        /* \"#utility.yul\":690:1164   */\n      swap3\n      pop\n      swap3\n      swap1\n      pop\n      jump\t// out\n        /* \"#utility.yul\":1170:1499   */\n    tag_15:\n        /* \"#utility.yul\":1229:1235   */\n      0x00\n        /* \"#utility.yul\":1278:1280   */\n      0x20\n        /* \"#utility.yul\":1266:1275   */\n      dup3\n        /* \"#utility.yul\":1257:1264   */\n      dup5\n        /* \"#utility.yul\":1253:1276   */\n      sub\n        /* \"#utility.yul\":1249:1281   */\n      slt\n        /* \"#utility.yul\":1246:1365   */\n      iszero\n      tag_78\n      jumpi\n        /* \"#utility.yul\":1284:1363   */\n      tag_79\n      tag_49\n      jump\t// in\n    tag_79:\n        /* \"#utility.yul\":1246:1365   */\n    tag_78:\n        /* \"#utility.yul\":1404:1405   */\n      0x00\n        /* \"#utility.yul\":1429:1482   */\n      tag_80\n        /* \"#utility.yul\":1474:1481   */\n      dup5\n        /* \"#utility.yul\":1465:1471   */\n      dup3\n        /* \"#utility.yul\":1454:1463   */\n      dup6\n        /* \"#utility.yul\":1450:1472   */\n      add\n        /* \"#utility.yul\":1429:1482   */\n      tag_53\n      jump\t// in\n    tag_80:\n        /* \"#utility.yul\":1419:1482   */\n      swap2\n      pop\n        /* \"#utility.yul\":1375:1492   */\n      pop\n        /* \"#utility.yul\":1170:1499   */\n      swap3\n      swap2\n      pop\n      pop\n      jump\t// out\n        /* \"#utility.yul\":1505:1623   */\n    tag_54:\n        /* \"#utility.yul\":1592:1616   */\n      tag_82\n        /* \"#utility.yul\":1610:1615   */\n      dup2\n        /* \"#utility.yul\":1592:1616   */\n      tag_51\n      jump\t// in\n    tag_82:\n        /* \"#utility.yul\":1587:1590   */\n      dup3\n        /* \"#utility.yul\":1580:1617   */\n      mstore\n        /* \"#utility.yul\":1505:1623   */\n      pop\n      pop\n      jump\t// out\n        /* \"#utility.yul\":1629:1851   */\n    tag_18:\n        /* \"#utility.yul\":1722:1726   */\n      0x00\n        /* \"#utility.yul\":1760:1762   */\n      0x20\n        /* \"#utility.yul\":1749:1758   */\n      dup3\n        /* \"#utility.yul\":1745:1763   */\n      add\n        /* \"#utility.yul\":1737:1763   */\n      swap1\n      pop\n        /* \"#utility.yul\":1773:1844   */\n      tag_84\n        /* \"#utility.yul\":1841:1842   */\n      0x00\n        /* \"#utility.yul\":1830:1839   */\n      dup4\n        /* \"#utility.yul\":1826:1843   */\n      add\n        /* \"#utility.yul\":1817:1823   */\n      dup5\n        /* \"#utility.yul\":1773:1844   */\n      tag_54\n      jump\t// in\n    tag_84:\n        /* \"#utility.yul\":1629:1851   */\n      swap3\n      swap2\n      pop\n      pop\n      jump\t// out\n        /* \"#utility.yul\":1857:1983   */\n    tag_55:\n        /* \"#utility.yul\":1894:1901   */\n      0x00\n        /* \"#utility.yul\":1934:1976   */\n      0xffffffffffffffffffffffffffffffffffffffff\n        /* \"#utility.yul\":1927:1932   */\n      dup3\n        /* \"#utility.yul\":1923:1977   */\n      and\n        /* \"#utility.yul\":1912:1977   */\n      swap1\n      pop\n        /* \"#utility.yul\":1857:1983   */\n      swap2\n      swap1\n      pop\n      jump\t// out\n        /* \"#utility.yul\":1989:2049   */\n    tag_56:\n        /* \"#utility.yul\":2017:2020   */\n      0x00\n        /* \"#utility.yul\":2038:2043   */\n      dup2\n        /* \"#utility.yul\":2031:2043   */\n      swap1\n      pop\n        /* \"#utility.yul\":1989:2049   */\n      swap2\n      swap1\n      pop\n      jump\t// out\n        /* \"#utility.yul\":2055:2197   */\n    tag_57:\n        /* \"#utility.yul\":2105:2114   */\n      0x00\n        /* \"#utility.yul\":2138:2191   */\n      tag_88\n        /* \"#utility.yul\":2156:2190   */\n      tag_89\n        /* \"#utility.yul\":2165:2189   */\n      tag_90\n        /* \"#utility.yul\":2183:2188   */\n      dup5\n        /* \"#utility.yul\":2165:2189   */\n      tag_55\n      jump\t// in\n    tag_90:\n        /* \"#utility.yul\":2156:2190   */\n      tag_56\n      jump\t// in\n    tag_89:\n        /* \"#utility.yul\":2138:2191   */\n      tag_55\n      jump\t// in\n    tag_88:\n        /* \"#utility.yul\":2125:2191   */\n      swap1\n      pop\n        /* \"#utility.yul\":2055:2197   */\n      swap2\n      swap1\n      pop\n      jump\t// out\n        /* \"#utility.yul\":2203:2329   */\n    tag_58:\n        /* \"#utility.yul\":2253:2262   */\n      0x00\n        /* \"#utility.yul\":2286:2323   */\n      tag_92\n        /* \"#utility.yul\":2317:2322   */\n      dup3\n        /* \"#utility.yul\":2286:2323   */\n      tag_57\n      jump\t// in\n    tag_92:\n        /* \"#utility.yul\":2273:2323   */\n      swap1\n      pop\n        /* \"#utility.yul\":2203:2329   */\n      swap2\n      swap1\n      pop\n      jump\t// out\n        /* \"#utility.yul\":2335:2481   */\n    tag_59:\n        /* \"#utility.yul\":2405:2414   */\n      0x00\n        /* \"#utility.yul\":2438:2475   */\n      tag_94\n        /* \"#utility.yul\":2469:2474   */\n      dup3\n        /* \"#utility.yul\":2438:2475   */\n      tag_58\n      jump\t// in\n    tag_94:\n        /* \"#utility.yul\":2425:2475   */\n      swap1\n      pop\n        /* \"#utility.yul\":2335:2481   */\n      swap2\n      swap1\n      pop\n      jump\t// out\n        /* \"#utility.yul\":2487:2658   */\n    tag_60:\n        /* \"#utility.yul\":2594:2651   */\n      tag_96\n        /* \"#utility.yul\":2645:2650   */\n      dup2\n        /* \"#utility.yul\":2594:2651   */\n      tag_59\n      jump\t// in\n    tag_96:\n        /* \"#utility.yul\":2589:2592   */\n      dup3\n        /* \"#utility.yul\":2582:2652   */\n      mstore\n        /* \"#utility.yul\":2487:2658   */\n      pop\n      pop\n      jump\t// out\n        /* \"#utility.yul\":2664:2926   */\n    tag_23:\n        /* \"#utility.yul\":2777:2781   */\n      0x00\n        /* \"#utility.yul\":2815:2817   */\n      0x20\n        /* \"#utility.yul\":2804:2813   */\n      dup3\n        /* \"#utility.yul\":2800:2818   */\n      add\n        /* \"#utility.yul\":2792:2818   */\n      swap1\n      pop\n        /* \"#utility.yul\":2828:2919   */\n      tag_98\n        /* \"#utility.yul\":2916:2917   */\n      0x00\n        /* \"#utility.yul\":2905:2914   */\n      dup4\n        /* \"#utility.yul\":2901:2918   */\n      add\n        /* \"#utility.yul\":2892:2898   */\n      dup5\n        /* \"#utility.yul\":2828:2919   */\n      tag_60\n      jump\t// in\n    tag_98:\n        /* \"#utility.yul\":2664:2926   */\n      swap3\n      swap2\n      pop\n      pop\n      jump\t// out\n        /* \"#utility.yul\":2932:3112   */\n    tag_27:\n        /* \"#utility.yul\":2980:3057   */\n      0x4e487b7100000000000000000000000000000000000000000000000000000000\n        /* \"#utility.yul\":2977:2978   */\n      0x00\n        /* \"#utility.yul\":2970:3058   */\n      mstore\n        /* \"#utility.yul\":3077:3081   */\n      0x32\n        /* \"#utility.yul\":3074:3075   */\n      0x04\n        /* \"#utility.yul\":3067:3082   */\n      mstore\n        /* \"#utility.yul\":3101:3105   */\n      0x24\n        /* \"#utility.yul\":3098:3099   */\n      0x00\n        /* \"#utility.yul\":3091:3106   */\n      revert\n        /* \"#utility.yul\":3118:3261   */\n    tag_61:\n        /* \"#utility.yul\":3175:3180   */\n      0x00\n        /* \"#utility.yul\":3206:3212   */\n      dup2\n        /* \"#utility.yul\":3200:3213   */\n      mload\n        /* \"#utility.yul\":3191:3213   */\n      swap1\n      pop\n        /* \"#utility.yul\":3222:3255   */\n      tag_101\n        /* \"#utility.yul\":3249:3254   */\n      dup2\n        /* \"#utility.yul\":3222:3255   */\n      tag_52\n      jump\t// in\n    tag_101:\n        /* \"#utility.yul\":3118:3261   */\n      swap3\n      swap2\n      pop\n      pop\n      jump\t// out\n        /* \"#utility.yul\":3267:3618   */\n    tag_45:\n        /* \"#utility.yul\":3337:3343   */\n      0x00\n        /* \"#utility.yul\":3386:3388   */\n      0x20\n        /* \"#utility.yul\":3374:3383   */\n      dup3\n        /* \"#utility.yul\":3365:3372   */\n      dup5\n        /* \"#utility.yul\":3361:3384   */\n      sub\n        /* \"#utility.yul\":3357:3389   */\n      slt\n        /* \"#utility.yul\":3354:3473   */\n      iszero\n      tag_103\n      jumpi\n        /* \"#utility.yul\":3392:3471   */\n      tag_104\n      tag_49\n      jump\t// in\n    tag_104:\n        /* \"#utility.yul\":3354:3473   */\n    tag_103:\n        /* \"#utility.yul\":3512:3513   */\n      0x00\n        /* \"#utility.yul\":3537:3601   */\n      tag_105\n        /* \"#utility.yul\":3593:3600   */\n      dup5\n        /* \"#utility.yul\":3584:3590   */\n      dup3\n        /* \"#utility.yul\":3573:3582   */\n      dup6\n        /* \"#utility.yul\":3569:3591   */\n      add\n        /* \"#utility.yul\":3537:3601   */\n      tag_61\n      jump\t// in\n    tag_105:\n        /* \"#utility.yul\":3527:3601   */\n      swap2\n      pop\n        /* \"#utility.yul\":3483:3611   */\n      pop\n        /* \"#utility.yul\":3267:3618   */\n      swap3\n      swap2\n      pop\n      pop\n      jump\t// out\n    stop\n\n    sub_0: assembly {\n            /* \"Contracts/SimpleStorage.sol\":158:1104  contract SimpleStorage{... */\n          mstore(0x40, 0x80)\n          callvalue\n          dup1\n          iszero\n          tag_1\n          jumpi\n          0x00\n          dup1\n          revert\n        tag_1:\n          pop\n          dataSize(sub_0)\n          dup1\n          dataOffset(sub_0)\n          0x00\n          codecopy\n          0x00\n          return\n        stop\n\n        sub_0: assembly {\n                /* \"Contracts/SimpleStorage.sol\":158:1104  contract SimpleStorage{... */\n              mstore(0x40, 0x80)\n              callvalue\n              dup1\n              iszero\n              tag_1\n              jumpi\n              0x00\n              dup1\n              revert\n            tag_1:\n              pop\n              jumpi(tag_2, lt(calldatasize, 0x04))\n              shr(0xe0, calldataload(0x00))\n              dup1\n              0x2ebce631\n              eq\n              tag_3\n              jumpi\n              dup1\n              0x43ec8f47\n              eq\n              tag_4\n              jumpi\n              dup1\n              0x69404ebd\n              eq\n              tag_5\n              jumpi\n              dup1\n              0xa6b7fc5b\n              eq\n              tag_6\n              jumpi\n              dup1\n              0xe1b3202a\n              eq\n              tag_7\n              jumpi\n            tag_2:\n              0x00\n              dup1\n              revert\n                /* \"Contracts/SimpleStorage.sol\":321:349  Person[] public listOfPeople */\n            tag_3:\n              tag_8\n              0x04\n              dup1\n              calldatasize\n              sub\n              dup2\n              add\n              swap1\n              tag_9\n              swap2\n              swap1\n              tag_10\n              jump\t// in\n            tag_9:\n              tag_11\n              jump\t// in\n            tag_8:\n              mload(0x40)\n              tag_12\n              swap3\n              swap2\n              swap1\n              tag_13\n              jump\t// in\n            tag_12:\n              mload(0x40)\n              dup1\n              swap2\n              sub\n              swap1\n              return\n                /* \"Contracts/SimpleStorage.sol\":389:434  mapping (string=>uint) public nameToFavNumber */\n            tag_4:\n              tag_14\n              0x04\n              dup1\n              calldatasize\n              sub\n              dup2\n              add\n              swap1\n              tag_15\n              swap2\n              swap1\n              tag_16\n              jump\t// in\n            tag_15:\n              tag_17\n              jump\t// in\n            tag_14:\n              mload(0x40)\n              tag_18\n              swap2\n              swap1\n              tag_19\n              jump\t// in\n            tag_18:\n              mload(0x40)\n              dup1\n              swap2\n              sub\n              swap1\n              return\n                /* \"Contracts/SimpleStorage.sol\":526:592  function Store(uint number) public {... */\n            tag_5:\n              tag_20\n              0x04\n              dup1\n              calldatasize\n              sub\n              dup2\n              add\n              swap1\n              tag_21\n              swap2\n              swap1\n              tag_10\n              jump\t// in\n            tag_21:\n              tag_22\n              jump\t// in\n            tag_20:\n              stop\n                /* \"Contracts/SimpleStorage.sol\":650:724  function retrive() public view returns (uint){... */\n            tag_6:\n              tag_23\n              tag_24\n              jump\t// in\n            tag_23:\n              mload(0x40)\n              tag_25\n              swap2\n              swap1\n              tag_19\n              jump\t// in\n            tag_25:\n              mload(0x40)\n              dup1\n              swap2\n              sub\n              swap1\n              return\n                /* \"Contracts/SimpleStorage.sol\":728:1099  function addperson(string memory _name,uint _Favnumber) public {... */\n            tag_7:\n              tag_26\n              0x04\n              dup1\n              calldatasize\n              sub\n              dup2\n              add\n              swap1\n              tag_27\n              swap2\n              swap1\n              tag_28\n              jump\t// in\n            tag_27:\n              tag_29\n              jump\t// in\n            tag_26:\n              stop\n                /* \"Contracts/SimpleStorage.sol\":321:349  Person[] public listOfPeople */\n            tag_11:\n              0x01\n              dup2\n              dup2\n              sload\n              dup2\n              lt\n              tag_30\n              jumpi\n              0x00\n              dup1\n              revert\n            tag_30:\n              swap1\n              0x00\n              mstore\n              keccak256(0x00, 0x20)\n              swap1\n              0x02\n              mul\n              add\n              0x00\n              swap2\n              pop\n              swap1\n              pop\n              dup1\n              0x00\n              add\n              sload\n              swap1\n              dup1\n              0x01\n              add\n              dup1\n              sload\n              tag_32\n              swap1\n              tag_33\n              jump\t// in\n            tag_32:\n              dup1\n              0x1f\n              add\n              0x20\n              dup1\n              swap2\n              div\n              mul\n              0x20\n              add\n              mload(0x40)\n              swap1\n              dup2\n              add\n              0x40\n              mstore\n              dup1\n              swap3\n              swap2\n              swap1\n              dup2\n              dup2\n              mstore\n              0x20\n              add\n              dup3\n              dup1\n              sload\n              tag_34\n              swap1\n              tag_33\n              jump\t// in\n            tag_34:\n              dup1\n              iszero\n              tag_35\n              jumpi\n              dup1\n              0x1f\n              lt\n              tag_36\n              jumpi\n              0x0100\n              dup1\n              dup4\n              sload\n              div\n              mul\n              dup4\n              mstore\n              swap2\n              0x20\n              add\n              swap2\n              jump(tag_35)\n            tag_36:\n              dup3\n              add\n              swap2\n              swap1\n              0x00\n              mstore\n              keccak256(0x00, 0x20)\n              swap1\n            tag_37:\n              dup2\n              sload\n              dup2\n              mstore\n              swap1\n              0x01\n              add\n              swap1\n              0x20\n              add\n              dup1\n              dup4\n              gt\n              tag_37\n              jumpi\n              dup3\n              swap1\n              sub\n              0x1f\n              and\n              dup3\n              add\n              swap2\n            tag_35:\n              pop\n              pop\n              pop\n              pop\n              pop\n              swap1\n              pop\n              dup3\n              jump\t// out\n                /* \"Contracts/SimpleStorage.sol\":389:434  mapping (string=>uint) public nameToFavNumber */\n            tag_17:\n              0x02\n              dup2\n              dup1\n              mload\n              0x20\n              dup2\n              add\n              dup3\n              add\n              dup1\n              mload\n              dup5\n              dup3\n              mstore\n              0x20\n              dup4\n              add\n              0x20\n              dup6\n              add\n              keccak256\n              dup2\n              dup4\n              mstore\n              dup1\n              swap6\n              pop\n              pop\n              pop\n              pop\n              pop\n              pop\n              0x00\n              swap2\n              pop\n              swap1\n              pop\n              sload\n              dup2\n              jump\t// out\n                /* \"Contracts/SimpleStorage.sol\":526:592  function Store(uint number) public {... */\n            tag_22:\n                /* \"Contracts/SimpleStorage.sol\":580:586  number */\n              dup1\n                /* \"Contracts/SimpleStorage.sol\":568:579  myFavNumber */\n              0x00\n                /* \"Contracts/SimpleStorage.sol\":568:586  myFavNumber=number */\n              dup2\n              swap1\n              sstore\n              pop\n                /* \"Contracts/SimpleStorage.sol\":526:592  function Store(uint number) public {... */\n              pop\n              jump\t// out\n                /* \"Contracts/SimpleStorage.sol\":650:724  function retrive() public view returns (uint){... */\n            tag_24:\n                /* \"Contracts/SimpleStorage.sol\":690:694  uint */\n              0x00\n                /* \"Contracts/SimpleStorage.sol\":709:720  myFavNumber */\n              dup1\n              sload\n                /* \"Contracts/SimpleStorage.sol\":702:720  return myFavNumber */\n              swap1\n              pop\n                /* \"Contracts/SimpleStorage.sol\":650:724  function retrive() public view returns (uint){... */\n              swap1\n              jump\t// out\n                /* \"Contracts/SimpleStorage.sol\":728:1099  function addperson(string memory _name,uint _Favnumber) public {... */\n            tag_29:\n                /* \"Contracts/SimpleStorage.sol\":844:856  listOfPeople */\n              0x01\n                /* \"Contracts/SimpleStorage.sol\":862:886  Person(_Favnumber,_name) */\n              mload(0x40)\n              dup1\n              0x40\n              add\n              0x40\n              mstore\n              dup1\n                /* \"Contracts/SimpleStorage.sol\":869:879  _Favnumber */\n              dup4\n                /* \"Contracts/SimpleStorage.sol\":862:886  Person(_Favnumber,_name) */\n              dup2\n              mstore\n              0x20\n              add\n                /* \"Contracts/SimpleStorage.sol\":880:885  _name */\n              dup5\n                /* \"Contracts/SimpleStorage.sol\":862:886  Person(_Favnumber,_name) */\n              dup2\n              mstore\n              pop\n                /* \"Contracts/SimpleStorage.sol\":844:887  listOfPeople.push(Person(_Favnumber,_name)) */\n              swap1\n              dup1\n              0x01\n              dup2\n              sload\n              add\n              dup1\n              dup3\n              sstore\n              dup1\n              swap2\n              pop\n              pop\n              0x01\n              swap1\n              sub\n              swap1\n              0x00\n              mstore\n              keccak256(0x00, 0x20)\n              swap1\n              0x02\n              mul\n              add\n              0x00\n              swap1\n              swap2\n              swap1\n              swap2\n              swap1\n              swap2\n              pop\n              0x00\n              dup3\n              add\n              mload\n              dup2\n              0x00\n              add\n              sstore\n              0x20\n              dup3\n              add\n              mload\n              dup2\n              0x01\n              add\n              swap1\n              dup2\n              tag_42\n              swap2\n              swap1\n              tag_43\n              jump\t// in\n            tag_42:\n              pop\n              pop\n              pop\n                /* \"Contracts/SimpleStorage.sol\":1045:1055  _Favnumber */\n              dup1\n                /* \"Contracts/SimpleStorage.sol\":1022:1037  nameToFavNumber */\n              0x02\n                /* \"Contracts/SimpleStorage.sol\":1038:1043  _name */\n              dup4\n                /* \"Contracts/SimpleStorage.sol\":1022:1044  nameToFavNumber[_name] */\n              mload(0x40)\n              tag_44\n              swap2\n              swap1\n              tag_45\n              jump\t// in\n            tag_44:\n              swap1\n              dup2\n              mstore\n              0x20\n              add\n              mload(0x40)\n              dup1\n              swap2\n              sub\n              swap1\n              keccak256\n                /* \"Contracts/SimpleStorage.sol\":1022:1055  nameToFavNumber[_name]=_Favnumber */\n              dup2\n              swap1\n              sstore\n              pop\n                /* \"Contracts/SimpleStorage.sol\":728:1099  function addperson(string memory _name,uint _Favnumber) public {... */\n              pop\n              pop\n              jump\t// out\n                /* \"#utility.yul\":7:82   */\n            tag_46:\n                /* \"#utility.yul\":40:46   */\n              0x00\n                /* \"#utility.yul\":73:75   */\n              0x40\n                /* \"#utility.yul\":67:76   */\n              mload\n                /* \"#utility.yul\":57:76   */\n              swap1\n              pop\n                /* \"#utility.yul\":7:82   */\n              swap1\n              jump\t// out\n                /* \"#utility.yul\":88:205   */\n            tag_47:\n                /* \"#utility.yul\":197:198   */\n              0x00\n                /* \"#utility.yul\":194:195   */\n              dup1\n                /* \"#utility.yul\":187:199   */\n              revert\n                /* \"#utility.yul\":211:328   */\n            tag_48:\n                /* \"#utility.yul\":320:321   */\n              0x00\n                /* \"#utility.yul\":317:318   */\n              dup1\n                /* \"#utility.yul\":310:322   */\n              revert\n                /* \"#utility.yul\":334:411   */\n            tag_49:\n                /* \"#utility.yul\":371:378   */\n              0x00\n                /* \"#utility.yul\":400:405   */\n              dup2\n                /* \"#utility.yul\":389:405   */\n              swap1\n              pop\n                /* \"#utility.yul\":334:411   */\n              swap2\n              swap1\n              pop\n              jump\t// out\n                /* \"#utility.yul\":417:539   */\n            tag_50:\n                /* \"#utility.yul\":490:514   */\n              tag_91\n                /* \"#utility.yul\":508:513   */\n              dup2\n                /* \"#utility.yul\":490:514   */\n              tag_49\n              jump\t// in\n            tag_91:\n                /* \"#utility.yul\":483:488   */\n              dup2\n                /* \"#utility.yul\":480:515   */\n              eq\n                /* \"#utility.yul\":470:533   */\n              tag_92\n              jumpi\n                /* \"#utility.yul\":529:530   */\n              0x00\n                /* \"#utility.yul\":526:527   */\n              dup1\n                /* \"#utility.yul\":519:531   */\n              revert\n                /* \"#utility.yul\":470:533   */\n            tag_92:\n                /* \"#utility.yul\":417:539   */\n              pop\n              jump\t// out\n                /* \"#utility.yul\":545:684   */\n            tag_51:\n                /* \"#utility.yul\":591:596   */\n              0x00\n                /* \"#utility.yul\":629:635   */\n              dup2\n                /* \"#utility.yul\":616:636   */\n              calldataload\n                /* \"#utility.yul\":607:636   */\n              swap1\n              pop\n                /* \"#utility.yul\":645:678   */\n              tag_94\n                /* \"#utility.yul\":672:677   */\n              dup2\n                /* \"#utility.yul\":645:678   */\n              tag_50\n              jump\t// in\n            tag_94:\n                /* \"#utility.yul\":545:684   */\n              swap3\n              swap2\n              pop\n              pop\n              jump\t// out\n                /* \"#utility.yul\":690:1019   */\n            tag_10:\n                /* \"#utility.yul\":749:755   */\n              0x00\n                /* \"#utility.yul\":798:800   */\n              0x20\n                /* \"#utility.yul\":786:795   */\n              dup3\n                /* \"#utility.yul\":777:784   */\n              dup5\n                /* \"#utility.yul\":773:796   */\n              sub\n                /* \"#utility.yul\":769:801   */\n              slt\n                /* \"#utility.yul\":766:885   */\n              iszero\n              tag_96\n              jumpi\n                /* \"#utility.yul\":804:883   */\n              tag_97\n              tag_47\n              jump\t// in\n            tag_97:\n                /* \"#utility.yul\":766:885   */\n            tag_96:\n                /* \"#utility.yul\":924:925   */\n              0x00\n                /* \"#utility.yul\":949:1002   */\n              tag_98\n                /* \"#utility.yul\":994:1001   */\n              dup5\n                /* \"#utility.yul\":985:991   */\n              dup3\n                /* \"#utility.yul\":974:983   */\n              dup6\n                /* \"#utility.yul\":970:992   */\n              add\n                /* \"#utility.yul\":949:1002   */\n              tag_51\n              jump\t// in\n            tag_98:\n                /* \"#utility.yul\":939:1002   */\n              swap2\n              pop\n                /* \"#utility.yul\":895:1012   */\n              pop\n                /* \"#utility.yul\":690:1019   */\n              swap3\n              swap2\n              pop\n              pop\n              jump\t// out\n                /* \"#utility.yul\":1025:1143   */\n            tag_52:\n                /* \"#utility.yul\":1112:1136   */\n              tag_100\n                /* \"#utility.yul\":1130:1135   */\n              dup2\n                /* \"#utility.yul\":1112:1136   */\n              tag_49\n              jump\t// in\n            tag_100:\n                /* \"#utility.yul\":1107:1110   */\n              dup3\n                /* \"#utility.yul\":1100:1137   */\n              mstore\n                /* \"#utility.yul\":1025:1143   */\n              pop\n              pop\n              jump\t// out\n                /* \"#utility.yul\":1149:1248   */\n            tag_53:\n                /* \"#utility.yul\":1201:1207   */\n              0x00\n                /* \"#utility.yul\":1235:1240   */\n              dup2\n                /* \"#utility.yul\":1229:1241   */\n              mload\n                /* \"#utility.yul\":1219:1241   */\n              swap1\n              pop\n                /* \"#utility.yul\":1149:1248   */\n              swap2\n              swap1\n              pop\n              jump\t// out\n                /* \"#utility.yul\":1254:1423   */\n            tag_54:\n                /* \"#utility.yul\":1338:1349   */\n              0x00\n                /* \"#utility.yul\":1372:1378   */\n              dup3\n                /* \"#utility.yul\":1367:1370   */\n              dup3\n                /* \"#utility.yul\":1360:1379   */\n              mstore\n                /* \"#utility.yul\":1412:1416   */\n              0x20\n                /* \"#utility.yul\":1407:1410   */\n              dup3\n                /* \"#utility.yul\":1403:1417   */\n              add\n                /* \"#utility.yul\":1388:1417   */\n              swap1\n              pop\n                /* \"#utility.yul\":1254:1423   */\n              swap3\n              swap2\n              pop\n              pop\n              jump\t// out\n                /* \"#utility.yul\":1429:1568   */\n            tag_55:\n                /* \"#utility.yul\":1518:1524   */\n              dup3\n                /* \"#utility.yul\":1513:1516   */\n              dup2\n                /* \"#utility.yul\":1508:1511   */\n              dup4\n                /* \"#utility.yul\":1502:1525   */\n              mcopy\n                /* \"#utility.yul\":1559:1560   */\n              0x00\n                /* \"#utility.yul\":1550:1556   */\n              dup4\n                /* \"#utility.yul\":1545:1548   */\n              dup4\n                /* \"#utility.yul\":1541:1557   */\n              add\n                /* \"#utility.yul\":1534:1561   */\n              mstore\n                /* \"#utility.yul\":1429:1568   */\n              pop\n              pop\n              pop\n              jump\t// out\n                /* \"#utility.yul\":1574:1676   */\n            tag_56:\n                /* \"#utility.yul\":1615:1621   */\n              0x00\n                /* \"#utility.yul\":1666:1668   */\n              0x1f\n                /* \"#utility.yul\":1662:1669   */\n              not\n                /* \"#utility.yul\":1657:1659   */\n              0x1f\n                /* \"#utility.yul\":1650:1655   */\n              dup4\n                /* \"#utility.yul\":1646:1660   */\n              add\n                /* \"#utility.yul\":1642:1670   */\n              and\n                /* \"#utility.yul\":1632:1670   */\n              swap1\n              pop\n                /* \"#utility.yul\":1574:1676   */\n              swap2\n              swap1\n              pop\n              jump\t// out\n                /* \"#utility.yul\":1682:2059   */\n            tag_57:\n                /* \"#utility.yul\":1770:1773   */\n              0x00\n                /* \"#utility.yul\":1798:1837   */\n              tag_106\n                /* \"#utility.yul\":1831:1836   */\n              dup3\n                /* \"#utility.yul\":1798:1837   */\n              tag_53\n              jump\t// in\n            tag_106:\n                /* \"#utility.yul\":1853:1924   */\n              tag_107\n                /* \"#utility.yul\":1917:1923   */\n              dup2\n                /* \"#utility.yul\":1912:1915   */\n              dup6\n                /* \"#utility.yul\":1853:1924   */\n              tag_54\n              jump\t// in\n            tag_107:\n                /* \"#utility.yul\":1846:1924   */\n              swap4\n              pop\n                /* \"#utility.yul\":1933:1998   */\n              tag_108\n                /* \"#utility.yul\":1991:1997   */\n              dup2\n                /* \"#utility.yul\":1986:1989   */\n              dup6\n                /* \"#utility.yul\":1979:1983   */\n              0x20\n                /* \"#utility.yul\":1972:1977   */\n              dup7\n                /* \"#utility.yul\":1968:1984   */\n              add\n                /* \"#utility.yul\":1933:1998   */\n              tag_55\n              jump\t// in\n            tag_108:\n                /* \"#utility.yul\":2023:2052   */\n              tag_109\n                /* \"#utility.yul\":2045:2051   */\n              dup2\n                /* \"#utility.yul\":2023:2052   */\n              tag_56\n              jump\t// in\n            tag_109:\n                /* \"#utility.yul\":2018:2021   */\n              dup5\n                /* \"#utility.yul\":2014:2053   */\n              add\n                /* \"#utility.yul\":2007:2053   */\n              swap2\n              pop\n                /* \"#utility.yul\":1774:2059   */\n              pop\n                /* \"#utility.yul\":1682:2059   */\n              swap3\n              swap2\n              pop\n              pop\n              jump\t// out\n                /* \"#utility.yul\":2065:2488   */\n            tag_13:\n                /* \"#utility.yul\":2206:2210   */\n              0x00\n                /* \"#utility.yul\":2244:2246   */\n              0x40\n                /* \"#utility.yul\":2233:2242   */\n              dup3\n                /* \"#utility.yul\":2229:2247   */\n              add\n                /* \"#utility.yul\":2221:2247   */\n              swap1\n              pop\n                /* \"#utility.yul\":2257:2328   */\n              tag_111\n                /* \"#utility.yul\":2325:2326   */\n              0x00\n                /* \"#utility.yul\":2314:2323   */\n              dup4\n                /* \"#utility.yul\":2310:2327   */\n              add\n                /* \"#utility.yul\":2301:2307   */\n              dup6\n                /* \"#utility.yul\":2257:2328   */\n              tag_52\n              jump\t// in\n            tag_111:\n                /* \"#utility.yul\":2375:2384   */\n              dup2\n                /* \"#utility.yul\":2369:2373   */\n              dup2\n                /* \"#utility.yul\":2365:2385   */\n              sub\n                /* \"#utility.yul\":2360:2362   */\n              0x20\n                /* \"#utility.yul\":2349:2358   */\n              dup4\n                /* \"#utility.yul\":2345:2363   */\n              add\n                /* \"#utility.yul\":2338:2386   */\n              mstore\n                /* \"#utility.yul\":2403:2481   */\n              tag_112\n                /* \"#utility.yul\":2476:2480   */\n              dup2\n                /* \"#utility.yul\":2467:2473   */\n              dup5\n                /* \"#utility.yul\":2403:2481   */\n              tag_57\n              jump\t// in\n            tag_112:\n                /* \"#utility.yul\":2395:2481   */\n              swap1\n              pop\n                /* \"#utility.yul\":2065:2488   */\n              swap4\n              swap3\n              pop\n              pop\n              pop\n              jump\t// out\n                /* \"#utility.yul\":2494:2611   */\n            tag_58:\n                /* \"#utility.yul\":2603:2604   */\n              0x00\n                /* \"#utility.yul\":2600:2601   */\n              dup1\n                /* \"#utility.yul\":2593:2605   */\n              revert\n                /* \"#utility.yul\":2617:2734   */\n            tag_59:\n                /* \"#utility.yul\":2726:2727   */\n              0x00\n                /* \"#utility.yul\":2723:2724   */\n              dup1\n                /* \"#utility.yul\":2716:2728   */\n              revert\n                /* \"#utility.yul\":2740:2920   */\n            tag_60:\n                /* \"#utility.yul\":2788:2865   */\n              0x4e487b7100000000000000000000000000000000000000000000000000000000\n                /* \"#utility.yul\":2785:2786   */\n              0x00\n                /* \"#utility.yul\":2778:2866   */\n              mstore\n                /* \"#utility.yul\":2885:2889   */\n              0x41\n                /* \"#utility.yul\":2882:2883   */\n              0x04\n                /* \"#utility.yul\":2875:2890   */\n              mstore\n                /* \"#utility.yul\":2909:2913   */\n              0x24\n                /* \"#utility.yul\":2906:2907   */\n              0x00\n                /* \"#utility.yul\":2899:2914   */\n              revert\n                /* \"#utility.yul\":2926:3207   */\n            tag_61:\n                /* \"#utility.yul\":3009:3036   */\n              tag_117\n                /* \"#utility.yul\":3031:3035   */\n              dup3\n                /* \"#utility.yul\":3009:3036   */\n              tag_56\n              jump\t// in\n            tag_117:\n                /* \"#utility.yul\":3001:3007   */\n              dup2\n                /* \"#utility.yul\":2997:3037   */\n              add\n                /* \"#utility.yul\":3139:3145   */\n              dup2\n                /* \"#utility.yul\":3127:3137   */\n              dup2\n                /* \"#utility.yul\":3124:3146   */\n              lt\n                /* \"#utility.yul\":3103:3121   */\n              0xffffffffffffffff\n                /* \"#utility.yul\":3091:3101   */\n              dup3\n                /* \"#utility.yul\":3088:3122   */\n              gt\n                /* \"#utility.yul\":3085:3147   */\n              or\n                /* \"#utility.yul\":3082:3170   */\n              iszero\n              tag_118\n              jumpi\n                /* \"#utility.yul\":3150:3168   */\n              tag_119\n              tag_60\n              jump\t// in\n            tag_119:\n                /* \"#utility.yul\":3082:3170   */\n            tag_118:\n                /* \"#utility.yul\":3190:3200   */\n              dup1\n                /* \"#utility.yul\":3186:3188   */\n              0x40\n                /* \"#utility.yul\":3179:3201   */\n              mstore\n                /* \"#utility.yul\":2969:3207   */\n              pop\n                /* \"#utility.yul\":2926:3207   */\n              pop\n              pop\n              jump\t// out\n                /* \"#utility.yul\":3213:3342   */\n            tag_62:\n                /* \"#utility.yul\":3247:3253   */\n              0x00\n                /* \"#utility.yul\":3274:3294   */\n              tag_121\n              tag_46\n              jump\t// in\n            tag_121:\n                /* \"#utility.yul\":3264:3294   */\n              swap1\n              pop\n                /* \"#utility.yul\":3303:3336   */\n              tag_122\n                /* \"#utility.yul\":3331:3335   */\n              dup3\n                /* \"#utility.yul\":3323:3329   */\n              dup3\n                /* \"#utility.yul\":3303:3336   */\n              tag_61\n              jump\t// in\n            tag_122:\n                /* \"#utility.yul\":3213:3342   */\n              swap2\n              swap1\n              pop\n              jump\t// out\n                /* \"#utility.yul\":3348:3656   */\n            tag_63:\n                /* \"#utility.yul\":3410:3414   */\n              0x00\n                /* \"#utility.yul\":3500:3518   */\n              0xffffffffffffffff\n                /* \"#utility.yul\":3492:3498   */\n              dup3\n                /* \"#utility.yul\":3489:3519   */\n              gt\n                /* \"#utility.yul\":3486:3542   */\n              iszero\n              tag_124\n              jumpi\n                /* \"#utility.yul\":3522:3540   */\n              tag_125\n              tag_60\n              jump\t// in\n            tag_125:\n                /* \"#utility.yul\":3486:3542   */\n            tag_124:\n                /* \"#utility.yul\":3560:3589   */\n              tag_126\n                /* \"#utility.yul\":3582:3588   */\n              dup3\n                /* \"#utility.yul\":3560:3589   */\n              tag_56\n              jump\t// in\n            tag_126:\n                /* \"#utility.yul\":3552:3589   */\n              swap1\n              pop\n                /* \"#utility.yul\":3644:3648   */\n              0x20\n                /* \"#utility.yul\":3638:3642   */\n              dup2\n                /* \"#utility.yul\":3634:3649   */\n              add\n                /* \"#utility.yul\":3626:3649   */\n              swap1\n              pop\n                /* \"#utility.yul\":3348:3656   */\n              swap2\n              swap1\n              pop\n              jump\t// out\n                /* \"#utility.yul\":3662:3810   */\n            tag_64:\n                /* \"#utility.yul\":3760:3766   */\n              dup3\n                /* \"#utility.yul\":3755:3758   */\n              dup2\n                /* \"#utility.yul\":3750:3753   */\n              dup4\n                /* \"#utility.yul\":3737:3767   */\n              calldatacopy\n                /* \"#utility.yul\":3801:3802   */\n              0x00\n                /* \"#utility.yul\":3792:3798   */\n              dup4\n                /* \"#utility.yul\":3787:3790   */\n              dup4\n                /* \"#utility.yul\":3783:3799   */\n              add\n                /* \"#utility.yul\":3776:3803   */\n              mstore\n                /* \"#utility.yul\":3662:3810   */\n              pop\n              pop\n              pop\n              jump\t// out\n                /* \"#utility.yul\":3816:4241   */\n            tag_65:\n                /* \"#utility.yul\":3894:3899   */\n              0x00\n                /* \"#utility.yul\":3919:3985   */\n              tag_129\n                /* \"#utility.yul\":3935:3984   */\n              tag_130\n                /* \"#utility.yul\":3977:3983   */\n              dup5\n                /* \"#utility.yul\":3935:3984   */\n              tag_63\n              jump\t// in\n            tag_130:\n                /* \"#utility.yul\":3919:3985   */\n              tag_62\n              jump\t// in\n            tag_129:\n                /* \"#utility.yul\":3910:3985   */\n              swap1\n              pop\n                /* \"#utility.yul\":4008:4014   */\n              dup3\n                /* \"#utility.yul\":4001:4006   */\n              dup2\n                /* \"#utility.yul\":3994:4015   */\n              mstore\n                /* \"#utility.yul\":4046:4050   */\n              0x20\n                /* \"#utility.yul\":4039:4044   */\n              dup2\n                /* \"#utility.yul\":4035:4051   */\n              add\n                /* \"#utility.yul\":4084:4087   */\n              dup5\n                /* \"#utility.yul\":4075:4081   */\n              dup5\n                /* \"#utility.yul\":4070:4073   */\n              dup5\n                /* \"#utility.yul\":4066:4082   */\n              add\n                /* \"#utility.yul\":4063:4088   */\n              gt\n                /* \"#utility.yul\":4060:4172   */\n              iszero\n              tag_131\n              jumpi\n                /* \"#utility.yul\":4091:4170   */\n              tag_132\n              tag_59\n              jump\t// in\n            tag_132:\n                /* \"#utility.yul\":4060:4172   */\n            tag_131:\n                /* \"#utility.yul\":4181:4235   */\n              tag_133\n                /* \"#utility.yul\":4228:4234   */\n              dup5\n                /* \"#utility.yul\":4223:4226   */\n              dup3\n                /* \"#utility.yul\":4218:4221   */\n              dup6\n                /* \"#utility.yul\":4181:4235   */\n              tag_64\n              jump\t// in\n            tag_133:\n                /* \"#utility.yul\":3900:4241   */\n              pop\n                /* \"#utility.yul\":3816:4241   */\n              swap4\n              swap3\n              pop\n              pop\n              pop\n              jump\t// out\n                /* \"#utility.yul\":4261:4601   */\n            tag_66:\n                /* \"#utility.yul\":4317:4322   */\n              0x00\n                /* \"#utility.yul\":4366:4369   */\n              dup3\n                /* \"#utility.yul\":4359:4363   */\n              0x1f\n                /* \"#utility.yul\":4351:4357   */\n              dup4\n                /* \"#utility.yul\":4347:4364   */\n              add\n                /* \"#utility.yul\":4343:4370   */\n              slt\n                /* \"#utility.yul\":4333:4455   */\n              tag_135\n              jumpi\n                /* \"#utility.yul\":4374:4453   */\n              tag_136\n              tag_58\n              jump\t// in\n            tag_136:\n                /* \"#utility.yul\":4333:4455   */\n            tag_135:\n                /* \"#utility.yul\":4491:4497   */\n              dup2\n                /* \"#utility.yul\":4478:4498   */\n              calldataload\n                /* \"#utility.yul\":4516:4595   */\n              tag_137\n                /* \"#utility.yul\":4591:4594   */\n              dup5\n                /* \"#utility.yul\":4583:4589   */\n              dup3\n                /* \"#utility.yul\":4576:4580   */\n              0x20\n                /* \"#utility.yul\":4568:4574   */\n              dup7\n                /* \"#utility.yul\":4564:4581   */\n              add\n                /* \"#utility.yul\":4516:4595   */\n              tag_65\n              jump\t// in\n            tag_137:\n                /* \"#utility.yul\":4507:4595   */\n              swap2\n              pop\n                /* \"#utility.yul\":4323:4601   */\n              pop\n                /* \"#utility.yul\":4261:4601   */\n              swap3\n              swap2\n              pop\n              pop\n              jump\t// out\n                /* \"#utility.yul\":4607:5116   */\n            tag_16:\n                /* \"#utility.yul\":4676:4682   */\n              0x00\n                /* \"#utility.yul\":4725:4727   */\n              0x20\n                /* \"#utility.yul\":4713:4722   */\n              dup3\n                /* \"#utility.yul\":4704:4711   */\n              dup5\n                /* \"#utility.yul\":4700:4723   */\n              sub\n                /* \"#utility.yul\":4696:4728   */\n              slt\n                /* \"#utility.yul\":4693:4812   */\n              iszero\n              tag_139\n              jumpi\n                /* \"#utility.yul\":4731:4810   */\n              tag_140\n              tag_47\n              jump\t// in\n            tag_140:\n                /* \"#utility.yul\":4693:4812   */\n            tag_139:\n                /* \"#utility.yul\":4879:4880   */\n              0x00\n                /* \"#utility.yul\":4868:4877   */\n              dup3\n                /* \"#utility.yul\":4864:4881   */\n              add\n                /* \"#utility.yul\":4851:4882   */\n              calldataload\n                /* \"#utility.yul\":4909:4927   */\n              0xffffffffffffffff\n                /* \"#utility.yul\":4901:4907   */\n              dup2\n                /* \"#utility.yul\":4898:4928   */\n              gt\n                /* \"#utility.yul\":4895:5012   */\n              iszero\n              tag_141\n              jumpi\n                /* \"#utility.yul\":4931:5010   */\n              tag_142\n              tag_48\n              jump\t// in\n            tag_142:\n                /* \"#utility.yul\":4895:5012   */\n            tag_141:\n                /* \"#utility.yul\":5036:5099   */\n              tag_143\n                /* \"#utility.yul\":5091:5098   */\n              dup5\n                /* \"#utility.yul\":5082:5088   */\n              dup3\n                /* \"#utility.yul\":5071:5080   */\n              dup6\n                /* \"#utility.yul\":5067:5089   */\n              add\n                /* \"#utility.yul\":5036:5099   */\n              tag_66\n              jump\t// in\n            tag_143:\n                /* \"#utility.yul\":5026:5099   */\n              swap2\n              pop\n                /* \"#utility.yul\":4822:5109   */\n              pop\n                /* \"#utility.yul\":4607:5116   */\n              swap3\n              swap2\n              pop\n              pop\n              jump\t// out\n                /* \"#utility.yul\":5122:5344   */\n            tag_19:\n                /* \"#utility.yul\":5215:5219   */\n              0x00\n                /* \"#utility.yul\":5253:5255   */\n              0x20\n                /* \"#utility.yul\":5242:5251   */\n              dup3\n                /* \"#utility.yul\":5238:5256   */\n              add\n                /* \"#utility.yul\":5230:5256   */\n              swap1\n              pop\n                /* \"#utility.yul\":5266:5337   */\n              tag_145\n                /* \"#utility.yul\":5334:5335   */\n              0x00\n                /* \"#utility.yul\":5323:5332   */\n              dup4\n                /* \"#utility.yul\":5319:5336   */\n              add\n                /* \"#utility.yul\":5310:5316   */\n              dup5\n                /* \"#utility.yul\":5266:5337   */\n              tag_52\n              jump\t// in\n            tag_145:\n                /* \"#utility.yul\":5122:5344   */\n              swap3\n              swap2\n              pop\n              pop\n              jump\t// out\n                /* \"#utility.yul\":5350:6004   */\n            tag_28:\n                /* \"#utility.yul\":5428:5434   */\n              0x00\n                /* \"#utility.yul\":5436:5442   */\n              dup1\n                /* \"#utility.yul\":5485:5487   */\n              0x40\n                /* \"#utility.yul\":5473:5482   */\n              dup4\n                /* \"#utility.yul\":5464:5471   */\n              dup6\n                /* \"#utility.yul\":5460:5483   */\n              sub\n                /* \"#utility.yul\":5456:5488   */\n              slt\n                /* \"#utility.yul\":5453:5572   */\n              iszero\n              tag_147\n              jumpi\n                /* \"#utility.yul\":5491:5570   */\n              tag_148\n              tag_47\n              jump\t// in\n            tag_148:\n                /* \"#utility.yul\":5453:5572   */\n            tag_147:\n                /* \"#utility.yul\":5639:5640   */\n              0x00\n                /* \"#utility.yul\":5628:5637   */\n              dup4\n                /* \"#utility.yul\":5624:5641   */\n              add\n                /* \"#utility.yul\":5611:5642   */\n              calldataload\n                /* \"#utility.yul\":5669:5687   */\n              0xffffffffffffffff\n                /* \"#utility.yul\":5661:5667   */\n              dup2\n                /* \"#utility.yul\":5658:5688   */\n              gt\n                /* \"#utility.yul\":5655:5772   */\n              iszero\n              tag_149\n              jumpi\n                /* \"#utility.yul\":5691:5770   */\n              tag_150\n              tag_48\n              jump\t// in\n            tag_150:\n                /* \"#utility.yul\":5655:5772   */\n            tag_149:\n                /* \"#utility.yul\":5796:5859   */\n              tag_151\n                /* \"#utility.yul\":5851:5858   */\n              dup6\n                /* \"#utility.yul\":5842:5848   */\n              dup3\n                /* \"#utility.yul\":5831:5840   */\n              dup7\n                /* \"#utility.yul\":5827:5849   */\n              add\n                /* \"#utility.yul\":5796:5859   */\n              tag_66\n              jump\t// in\n            tag_151:\n                /* \"#utility.yul\":5786:5859   */\n              swap3\n              pop\n                /* \"#utility.yul\":5582:5869   */\n              pop\n                /* \"#utility.yul\":5908:5910   */\n              0x20\n                /* \"#utility.yul\":5934:5987   */\n              tag_152\n                /* \"#utility.yul\":5979:5986   */\n              dup6\n                /* \"#utility.yul\":5970:5976   */\n              dup3\n                /* \"#utility.yul\":5959:5968   */\n              dup7\n                /* \"#utility.yul\":5955:5977   */\n              add\n                /* \"#utility.yul\":5934:5987   */\n              tag_51\n              jump\t// in\n            tag_152:\n                /* \"#utility.yul\":5924:5987   */\n              swap2\n              pop\n                /* \"#utility.yul\":5879:5997   */\n              pop\n                /* \"#utility.yul\":5350:6004   */\n              swap3\n              pop\n              swap3\n              swap1\n              pop\n              jump\t// out\n                /* \"#utility.yul\":6010:6190   */\n            tag_67:\n                /* \"#utility.yul\":6058:6135   */\n              0x4e487b7100000000000000000000000000000000000000000000000000000000\n                /* \"#utility.yul\":6055:6056   */\n              0x00\n                /* \"#utility.yul\":6048:6136   */\n              mstore\n                /* \"#utility.yul\":6155:6159   */\n              0x22\n                /* \"#utility.yul\":6152:6153   */\n              0x04\n                /* \"#utility.yul\":6145:6160   */\n              mstore\n                /* \"#utility.yul\":6179:6183   */\n              0x24\n                /* \"#utility.yul\":6176:6177   */\n              0x00\n                /* \"#utility.yul\":6169:6184   */\n              revert\n                /* \"#utility.yul\":6196:6516   */\n            tag_33:\n                /* \"#utility.yul\":6240:6246   */\n              0x00\n                /* \"#utility.yul\":6277:6278   */\n              0x02\n                /* \"#utility.yul\":6271:6275   */\n              dup3\n                /* \"#utility.yul\":6267:6279   */\n              div\n                /* \"#utility.yul\":6257:6279   */\n              swap1\n              pop\n                /* \"#utility.yul\":6324:6325   */\n              0x01\n                /* \"#utility.yul\":6318:6322   */\n              dup3\n                /* \"#utility.yul\":6314:6326   */\n              and\n                /* \"#utility.yul\":6345:6363   */\n              dup1\n                /* \"#utility.yul\":6335:6416   */\n              tag_155\n              jumpi\n                /* \"#utility.yul\":6401:6405   */\n              0x7f\n                /* \"#utility.yul\":6393:6399   */\n              dup3\n                /* \"#utility.yul\":6389:6406   */\n              and\n                /* \"#utility.yul\":6379:6406   */\n              swap2\n              pop\n                /* \"#utility.yul\":6335:6416   */\n            tag_155:\n                /* \"#utility.yul\":6463:6465   */\n              0x20\n                /* \"#utility.yul\":6455:6461   */\n              dup3\n                /* \"#utility.yul\":6452:6466   */\n              lt\n                /* \"#utility.yul\":6432:6450   */\n              dup2\n                /* \"#utility.yul\":6429:6467   */\n              sub\n                /* \"#utility.yul\":6426:6510   */\n              tag_156\n              jumpi\n                /* \"#utility.yul\":6482:6500   */\n              tag_157\n              tag_67\n              jump\t// in\n            tag_157:\n                /* \"#utility.yul\":6426:6510   */\n            tag_156:\n                /* \"#utility.yul\":6247:6516   */\n              pop\n                /* \"#utility.yul\":6196:6516   */\n              swap2\n              swap1\n              pop\n              jump\t// out\n                /* \"#utility.yul\":6522:6663   */\n            tag_68:\n                /* \"#utility.yul\":6571:6575   */\n              0x00\n                /* \"#utility.yul\":6594:6597   */\n              dup2\n                /* \"#utility.yul\":6586:6597   */\n              swap1\n              pop\n                /* \"#utility.yul\":6617:6620   */\n              dup2\n                /* \"#utility.yul\":6614:6615   */\n              0x00\n                /* \"#utility.yul\":6607:6621   */\n              mstore\n                /* \"#utility.yul\":6651:6655   */\n              0x20\n                /* \"#utility.yul\":6648:6649   */\n              0x00\n                /* \"#utility.yul\":6638:6656   */\n              keccak256\n                /* \"#utility.yul\":6630:6656   */\n              swap1\n              pop\n                /* \"#utility.yul\":6522:6663   */\n              swap2\n              swap1\n              pop\n              jump\t// out\n                /* \"#utility.yul\":6669:6762   */\n            tag_69:\n                /* \"#utility.yul\":6706:6712   */\n              0x00\n                /* \"#utility.yul\":6753:6755   */\n              0x20\n                /* \"#utility.yul\":6748:6750   */\n              0x1f\n                /* \"#utility.yul\":6741:6746   */\n              dup4\n                /* \"#utility.yul\":6737:6751   */\n              add\n                /* \"#utility.yul\":6733:6756   */\n              div\n                /* \"#utility.yul\":6723:6756   */\n              swap1\n              pop\n                /* \"#utility.yul\":6669:6762   */\n              swap2\n              swap1\n              pop\n              jump\t// out\n                /* \"#utility.yul\":6768:6875   */\n            tag_70:\n                /* \"#utility.yul\":6812:6820   */\n              0x00\n                /* \"#utility.yul\":6862:6867   */\n              dup3\n                /* \"#utility.yul\":6856:6860   */\n              dup3\n                /* \"#utility.yul\":6852:6868   */\n              shl\n                /* \"#utility.yul\":6831:6868   */\n              swap1\n              pop\n                /* \"#utility.yul\":6768:6875   */\n              swap3\n              swap2\n              pop\n              pop\n              jump\t// out\n                /* \"#utility.yul\":6881:7274   */\n            tag_71:\n                /* \"#utility.yul\":6950:6956   */\n              0x00\n                /* \"#utility.yul\":7000:7001   */\n              0x08\n                /* \"#utility.yul\":6988:6998   */\n              dup4\n                /* \"#utility.yul\":6984:7002   */\n              mul\n                /* \"#utility.yul\":7023:7120   */\n              tag_162\n                /* \"#utility.yul\":7053:7119   */\n              0xffffffffffffffffffffffffffffffffffffffffffffffffffffffffffffffff\n                /* \"#utility.yul\":7042:7051   */\n              dup3\n                /* \"#utility.yul\":7023:7120   */\n              tag_70\n              jump\t// in\n            tag_162:\n                /* \"#utility.yul\":7141:7180   */\n              tag_163\n                /* \"#utility.yul\":7171:7179   */\n              dup7\n                /* \"#utility.yul\":7160:7169   */\n              dup4\n                /* \"#utility.yul\":7141:7180   */\n              tag_70\n              jump\t// in\n            tag_163:\n                /* \"#utility.yul\":7129:7180   */\n              swap6\n              pop\n                /* \"#utility.yul\":7213:7217   */\n              dup1\n                /* \"#utility.yul\":7209:7218   */\n              not\n                /* \"#utility.yul\":7202:7207   */\n              dup5\n                /* \"#utility.yul\":7198:7219   */\n              and\n                /* \"#utility.yul\":7189:7219   */\n              swap4\n              pop\n                /* \"#utility.yul\":7262:7266   */\n              dup1\n                /* \"#utility.yul\":7252:7260   */\n              dup7\n                /* \"#utility.yul\":7248:7267   */\n              and\n                /* \"#utility.yul\":7241:7246   */\n              dup5\n                /* \"#utility.yul\":7238:7268   */\n              or\n                /* \"#utility.yul\":7228:7268   */\n              swap3\n              pop\n                /* \"#utility.yul\":6957:7274   */\n              pop\n              pop\n                /* \"#utility.yul\":6881:7274   */\n              swap4\n              swap3\n              pop\n              pop\n              pop\n              jump\t// out\n                /* \"#utility.yul\":7280:7340   */\n            tag_72:\n                /* \"#utility.yul\":7308:7311   */\n              0x00\n                /* \"#utility.yul\":7329:7334   */\n              dup2\n                /* \"#utility.yul\":7322:7334   */\n              swap1\n              pop\n                /* \"#utility.yul\":7280:7340   */\n              swap2\n              swap1\n              pop\n              jump\t// out\n                /* \"#utility.yul\":7346:7488   */\n            tag_73:\n                /* \"#utility.yul\":7396:7405   */\n              0x00\n                /* \"#utility.yul\":7429:7482   */\n              tag_166\n                /* \"#utility.yul\":7447:7481   */\n              tag_167\n                /* \"#utility.yul\":7456:7480   */\n              tag_168\n                /* \"#utility.yul\":7474:7479   */\n              dup5\n                /* \"#utility.yul\":7456:7480   */\n              tag_49\n              jump\t// in\n            tag_168:\n                /* \"#utility.yul\":7447:7481   */\n              tag_72\n              jump\t// in\n            tag_167:\n                /* \"#utility.yul\":7429:7482   */\n              tag_49\n              jump\t// in\n            tag_166:\n                /* \"#utility.yul\":7416:7482   */\n              swap1\n              pop\n                /* \"#utility.yul\":7346:7488   */\n              swap2\n              swap1\n              pop\n              jump\t// out\n                /* \"#utility.yul\":7494:7569   */\n            tag_74:\n                /* \"#utility.yul\":7537:7540   */\n              0x00\n                /* \"#utility.yul\":7558:7563   */\n              dup2\n                /* \"#utility.yul\":7551:7563   */\n              swap1\n              pop\n                /* \"#utility.yul\":7494:7569   */\n              swap2\n              swap1\n              pop\n              jump\t// out\n                /* \"#utility.yul\":7575:7844   */\n            tag_75:\n                /* \"#utility.yul\":7685:7724   */\n              tag_171\n                /* \"#utility.yul\":7716:7723   */\n              dup4\n                /* \"#utility.yul\":7685:7724   */\n              tag_73\n              jump\t// in\n            tag_171:\n                /* \"#utility.yul\":7746:7837   */\n              tag_172\n                /* \"#utility.yul\":7795:7836   */\n              tag_173\n                /* \"#utility.yul\":7819:7835   */\n              dup3\n                /* \"#utility.yul\":7795:7836   */\n              tag_74\n              jump\t// in\n            tag_173:\n                /* \"#utility.yul\":7787:7793   */\n              dup5\n                /* \"#utility.yul\":7780:7784   */\n              dup5\n                /* \"#utility.yul\":7774:7785   */\n              sload\n                /* \"#utility.yul\":7746:7837   */\n              tag_71\n              jump\t// in\n            tag_172:\n                /* \"#utility.yul\":7740:7744   */\n              dup3\n                /* \"#utility.yul\":7733:7838   */\n              sstore\n                /* \"#utility.yul\":7651:7844   */\n              pop\n                /* \"#utility.yul\":7575:7844   */\n              pop\n              pop\n              pop\n              jump\t// out\n                /* \"#utility.yul\":7850:7923   */\n            tag_76:\n                /* \"#utility.yul\":7895:7898   */\n              0x00\n                /* \"#utility.yul\":7850:7923   */\n              swap1\n              jump\t// out\n                /* \"#utility.yul\":7929:8118   */\n            tag_77:\n                /* \"#utility.yul\":8006:8038   */\n              tag_176\n              tag_76\n              jump\t// in\n            tag_176:\n                /* \"#utility.yul\":8047:8112   */\n              tag_177\n                /* \"#utility.yul\":8105:8111   */\n              dup2\n                /* \"#utility.yul\":8097:8103   */\n              dup5\n                /* \"#utility.yul\":8091:8095   */\n              dup5\n                /* \"#utility.yul\":8047:8112   */\n              tag_75\n              jump\t// in\n            tag_177:\n                /* \"#utility.yul\":7982:8118   */\n              pop\n                /* \"#utility.yul\":7929:8118   */\n              pop\n              pop\n              jump\t// out\n                /* \"#utility.yul\":8124:8310   */\n            tag_78:\n                /* \"#utility.yul\":8184:8304   */\n            tag_179:\n                /* \"#utility.yul\":8201:8204   */\n              dup2\n                /* \"#utility.yul\":8194:8199   */\n              dup2\n                /* \"#utility.yul\":8191:8205   */\n              lt\n                /* \"#utility.yul\":8184:8304   */\n              iszero\n              tag_181\n              jumpi\n                /* \"#utility.yul\":8255:8294   */\n              tag_182\n                /* \"#utility.yul\":8292:8293   */\n              0x00\n                /* \"#utility.yul\":8285:8290   */\n              dup3\n                /* \"#utility.yul\":8255:8294   */\n              tag_77\n              jump\t// in\n            tag_182:\n                /* \"#utility.yul\":8228:8229   */\n              0x01\n                /* \"#utility.yul\":8221:8226   */\n              dup2\n                /* \"#utility.yul\":8217:8230   */\n              add\n                /* \"#utility.yul\":8208:8230   */\n              swap1\n              pop\n                /* \"#utility.yul\":8184:8304   */\n              jump(tag_179)\n            tag_181:\n                /* \"#utility.yul\":8124:8310   */\n              pop\n              pop\n              jump\t// out\n                /* \"#utility.yul\":8316:8859   */\n            tag_79:\n                /* \"#utility.yul\":8417:8419   */\n              0x1f\n                /* \"#utility.yul\":8412:8415   */\n              dup3\n                /* \"#utility.yul\":8409:8420   */\n              gt\n                /* \"#utility.yul\":8406:8852   */\n              iszero\n              tag_184\n              jumpi\n                /* \"#utility.yul\":8451:8489   */\n              tag_185\n                /* \"#utility.yul\":8483:8488   */\n              dup2\n                /* \"#utility.yul\":8451:8489   */\n              tag_68\n              jump\t// in\n            tag_185:\n                /* \"#utility.yul\":8535:8564   */\n              tag_186\n                /* \"#utility.yul\":8553:8563   */\n              dup5\n                /* \"#utility.yul\":8535:8564   */\n              tag_69\n              jump\t// in\n            tag_186:\n                /* \"#utility.yul\":8525:8533   */\n              dup2\n                /* \"#utility.yul\":8521:8565   */\n              add\n                /* \"#utility.yul\":8718:8720   */\n              0x20\n                /* \"#utility.yul\":8706:8716   */\n              dup6\n                /* \"#utility.yul\":8703:8721   */\n              lt\n                /* \"#utility.yul\":8700:8749   */\n              iszero\n              tag_187\n              jumpi\n                /* \"#utility.yul\":8739:8747   */\n              dup2\n                /* \"#utility.yul\":8724:8747   */\n              swap1\n              pop\n                /* \"#utility.yul\":8700:8749   */\n            tag_187:\n                /* \"#utility.yul\":8762:8842   */\n              tag_188\n                /* \"#utility.yul\":8818:8840   */\n              tag_189\n                /* \"#utility.yul\":8836:8839   */\n              dup6\n                /* \"#utility.yul\":8818:8840   */\n              tag_69\n              jump\t// in\n            tag_189:\n                /* \"#utility.yul\":8808:8816   */\n              dup4\n                /* \"#utility.yul\":8804:8841   */\n              add\n                /* \"#utility.yul\":8791:8802   */\n              dup3\n                /* \"#utility.yul\":8762:8842   */\n              tag_78\n              jump\t// in\n            tag_188:\n                /* \"#utility.yul\":8421:8852   */\n              pop\n              pop\n                /* \"#utility.yul\":8406:8852   */\n            tag_184:\n                /* \"#utility.yul\":8316:8859   */\n              pop\n              pop\n              pop\n              jump\t// out\n                /* \"#utility.yul\":8865:8982   */\n            tag_80:\n                /* \"#utility.yul\":8919:8927   */\n              0x00\n                /* \"#utility.yul\":8969:8974   */\n              dup3\n                /* \"#utility.yul\":8963:8967   */\n              dup3\n                /* \"#utility.yul\":8959:8975   */\n              shr\n                /* \"#utility.yul\":8938:8975   */\n              swap1\n              pop\n                /* \"#utility.yul\":8865:8982   */\n              swap3\n              swap2\n              pop\n              pop\n              jump\t// out\n                /* \"#utility.yul\":8988:9157   */\n            tag_81:\n                /* \"#utility.yul\":9032:9038   */\n              0x00\n                /* \"#utility.yul\":9065:9116   */\n              tag_192\n                /* \"#utility.yul\":9113:9114   */\n              0x00\n                /* \"#utility.yul\":9109:9115   */\n              not\n                /* \"#utility.yul\":9101:9106   */\n              dup5\n                /* \"#utility.yul\":9098:9099   */\n              0x08\n                /* \"#utility.yul\":9094:9107   */\n              mul\n                /* \"#utility.yul\":9065:9116   */\n              tag_80\n              jump\t// in\n            tag_192:\n                /* \"#utility.yul\":9061:9117   */\n              not\n                /* \"#utility.yul\":9146:9150   */\n              dup1\n                /* \"#utility.yul\":9140:9144   */\n              dup4\n                /* \"#utility.yul\":9136:9151   */\n              and\n                /* \"#utility.yul\":9126:9151   */\n              swap2\n              pop\n                /* \"#utility.yul\":9039:9157   */\n              pop\n                /* \"#utility.yul\":8988:9157   */\n              swap3\n              swap2\n              pop\n              pop\n              jump\t// out\n                /* \"#utility.yul\":9162:9457   */\n            tag_82:\n                /* \"#utility.yul\":9238:9242   */\n              0x00\n                /* \"#utility.yul\":9384:9413   */\n              tag_194\n                /* \"#utility.yul\":9409:9412   */\n              dup4\n                /* \"#utility.yul\":9403:9407   */\n              dup4\n                /* \"#utility.yul\":9384:9413   */\n              tag_81\n              jump\t// in\n            tag_194:\n                /* \"#utility.yul\":9376:9413   */\n              swap2\n              pop\n                /* \"#utility.yul\":9446:9449   */\n              dup3\n                /* \"#utility.yul\":9443:9444   */\n              0x02\n                /* \"#utility.yul\":9439:9450   */\n              mul\n                /* \"#utility.yul\":9433:9437   */\n              dup3\n                /* \"#utility.yul\":9430:9451   */\n              or\n                /* \"#utility.yul\":9422:9451   */\n              swap1\n              pop\n                /* \"#utility.yul\":9162:9457   */\n              swap3\n              swap2\n              pop\n              pop\n              jump\t// out\n                /* \"#utility.yul\":9462:10857   */\n            tag_43:\n                /* \"#utility.yul\":9579:9616   */\n              tag_196\n                /* \"#utility.yul\":9612:9615   */\n              dup3\n                /* \"#utility.yul\":9579:9616   */\n              tag_53\n              jump\t// in\n            tag_196:\n                /* \"#utility.yul\":9681:9699   */\n              0xffffffffffffffff\n                /* \"#utility.yul\":9673:9679   */\n              dup2\n                /* \"#utility.yul\":9670:9700   */\n              gt\n                /* \"#utility.yul\":9667:9723   */\n              iszero\n              tag_197\n              jumpi\n                /* \"#utility.yul\":9703:9721   */\n              tag_198\n              tag_60\n              jump\t// in\n            tag_198:\n                /* \"#utility.yul\":9667:9723   */\n            tag_197:\n                /* \"#utility.yul\":9747:9785   */\n              tag_199\n                /* \"#utility.yul\":9779:9783   */\n              dup3\n                /* \"#utility.yul\":9773:9784   */\n              sload\n                /* \"#utility.yul\":9747:9785   */\n              tag_33\n              jump\t// in\n            tag_199:\n                /* \"#utility.yul\":9832:9899   */\n              tag_200\n                /* \"#utility.yul\":9892:9898   */\n              dup3\n                /* \"#utility.yul\":9884:9890   */\n              dup3\n                /* \"#utility.yul\":9878:9882   */\n              dup6\n                /* \"#utility.yul\":9832:9899   */\n              tag_79\n              jump\t// in\n            tag_200:\n                /* \"#utility.yul\":9926:9927   */\n              0x00\n                /* \"#utility.yul\":9950:9954   */\n              0x20\n                /* \"#utility.yul\":9937:9954   */\n              swap1\n              pop\n                /* \"#utility.yul\":9982:9984   */\n              0x1f\n                /* \"#utility.yul\":9974:9980   */\n              dup4\n                /* \"#utility.yul\":9971:9985   */\n              gt\n                /* \"#utility.yul\":9999:10000   */\n              0x01\n                /* \"#utility.yul\":9994:10612   */\n              dup2\n              eq\n              tag_202\n              jumpi\n                /* \"#utility.yul\":10656:10657   */\n              0x00\n                /* \"#utility.yul\":10673:10679   */\n              dup5\n                /* \"#utility.yul\":10670:10747   */\n              iszero\n              tag_203\n              jumpi\n                /* \"#utility.yul\":10722:10731   */\n              dup3\n                /* \"#utility.yul\":10717:10720   */\n              dup8\n                /* \"#utility.yul\":10713:10732   */\n              add\n                /* \"#utility.yul\":10707:10733   */\n              mload\n                /* \"#utility.yul\":10698:10733   */\n              swap1\n              pop\n                /* \"#utility.yul\":10670:10747   */\n            tag_203:\n                /* \"#utility.yul\":10773:10840   */\n              tag_204\n                /* \"#utility.yul\":10833:10839   */\n              dup6\n                /* \"#utility.yul\":10826:10831   */\n              dup3\n                /* \"#utility.yul\":10773:10840   */\n              tag_82\n              jump\t// in\n            tag_204:\n                /* \"#utility.yul\":10767:10771   */\n              dup7\n                /* \"#utility.yul\":10760:10841   */\n              sstore\n                /* \"#utility.yul\":10629:10851   */\n              pop\n                /* \"#utility.yul\":9964:10851   */\n              jump(tag_201)\n                /* \"#utility.yul\":9994:10612   */\n            tag_202:\n                /* \"#utility.yul\":10046:10050   */\n              0x1f\n                /* \"#utility.yul\":10042:10051   */\n              not\n                /* \"#utility.yul\":10034:10040   */\n              dup5\n                /* \"#utility.yul\":10030:10052   */\n              and\n                /* \"#utility.yul\":10080:10117   */\n              tag_205\n                /* \"#utility.yul\":10112:10116   */\n              dup7\n                /* \"#utility.yul\":10080:10117   */\n              tag_68\n              jump\t// in\n            tag_205:\n                /* \"#utility.yul\":10139:10140   */\n              0x00\n                /* \"#utility.yul\":10153:10361   */\n            tag_206:\n                /* \"#utility.yul\":10167:10174   */\n              dup3\n                /* \"#utility.yul\":10164:10165   */\n              dup2\n                /* \"#utility.yul\":10161:10175   */\n              lt\n                /* \"#utility.yul\":10153:10361   */\n              iszero\n              tag_208\n              jumpi\n                /* \"#utility.yul\":10246:10255   */\n              dup5\n                /* \"#utility.yul\":10241:10244   */\n              dup10\n                /* \"#utility.yul\":10237:10256   */\n              add\n                /* \"#utility.yul\":10231:10257   */\n              mload\n                /* \"#utility.yul\":10223:10229   */\n              dup3\n                /* \"#utility.yul\":10216:10258   */\n              sstore\n                /* \"#utility.yul\":10297:10298   */\n              0x01\n                /* \"#utility.yul\":10289:10295   */\n              dup3\n                /* \"#utility.yul\":10285:10299   */\n              add\n                /* \"#utility.yul\":10275:10299   */\n              swap2\n              pop\n                /* \"#utility.yul\":10344:10346   */\n              0x20\n                /* \"#utility.yul\":10333:10342   */\n              dup6\n                /* \"#utility.yul\":10329:10347   */\n              add\n                /* \"#utility.yul\":10316:10347   */\n              swap5\n              pop\n                /* \"#utility.yul\":10190:10194   */\n              0x20\n                /* \"#utility.yul\":10187:10188   */\n              dup2\n                /* \"#utility.yul\":10183:10195   */\n              add\n                /* \"#utility.yul\":10178:10195   */\n              swap1\n              pop\n                /* \"#utility.yul\":10153:10361   */\n              jump(tag_206)\n            tag_208:\n                /* \"#utility.yul\":10389:10395   */\n              dup7\n                /* \"#utility.yul\":10380:10387   */\n              dup4\n                /* \"#utility.yul\":10377:10396   */\n              lt\n                /* \"#utility.yul\":10374:10553   */\n              iszero\n              tag_209\n              jumpi\n                /* \"#utility.yul\":10447:10456   */\n              dup5\n                /* \"#utility.yul\":10442:10445   */\n              dup10\n                /* \"#utility.yul\":10438:10457   */\n              add\n                /* \"#utility.yul\":10432:10458   */\n              mload\n                /* \"#utility.yul\":10490:10538   */\n              tag_210\n                /* \"#utility.yul\":10532:10536   */\n              0x1f\n                /* \"#utility.yul\":10524:10530   */\n              dup10\n                /* \"#utility.yul\":10520:10537   */\n              and\n                /* \"#utility.yul\":10509:10518   */\n              dup3\n                /* \"#utility.yul\":10490:10538   */\n              tag_81\n              jump\t// in\n            tag_210:\n                /* \"#utility.yul\":10482:10488   */\n              dup4\n                /* \"#utility.yul\":10475:10539   */\n              sstore\n                /* \"#utility.yul\":10397:10553   */\n              pop\n                /* \"#utility.yul\":10374:10553   */\n            tag_209:\n                /* \"#utility.yul\":10599:10600   */\n              0x01\n                /* \"#utility.yul\":10595:10596   */\n              0x02\n                /* \"#utility.yul\":10587:10593   */\n              dup9\n                /* \"#utility.yul\":10583:10597   */\n              mul\n                /* \"#utility.yul\":10579:10601   */\n              add\n                /* \"#utility.yul\":10573:10577   */\n              dup9\n                /* \"#utility.yul\":10566:10602   */\n              sstore\n                /* \"#utility.yul\":10001:10612   */\n              pop\n              pop\n              pop\n                /* \"#utility.yul\":9964:10851   */\n            tag_201:\n              pop\n                /* \"#utility.yul\":9554:10857   */\n              pop\n              pop\n              pop\n                /* \"#utility.yul\":9462:10857   */\n              pop\n              pop\n              jump\t// out\n                /* \"#utility.yul\":10863:11011   */\n            tag_83:\n                /* \"#utility.yul\":10965:10976   */\n              0x00\n                /* \"#utility.yul\":11002:11005   */\n              dup2\n                /* \"#utility.yul\":10987:11005   */\n              swap1\n              pop\n                /* \"#utility.yul\":10863:11011   */\n              swap3\n              swap2\n              pop\n              pop\n              jump\t// out\n                /* \"#utility.yul\":11017:11407   */\n            tag_84:\n                /* \"#utility.yul\":11123:11126   */\n              0x00\n                /* \"#utility.yul\":11151:11190   */\n              tag_213\n                /* \"#utility.yul\":11184:11189   */\n              dup3\n                /* \"#utility.yul\":11151:11190   */\n              tag_53\n              jump\t// in\n            tag_213:\n                /* \"#utility.yul\":11206:11295   */\n              tag_214\n                /* \"#utility.yul\":11288:11294   */\n              dup2\n                /* \"#utility.yul\":11283:11286   */\n              dup6\n                /* \"#utility.yul\":11206:11295   */\n              tag_83\n              jump\t// in\n            tag_214:\n                /* \"#utility.yul\":11199:11295   */\n              swap4\n              pop\n                /* \"#utility.yul\":11304:11369   */\n              tag_215\n                /* \"#utility.yul\":11362:11368   */\n              dup2\n                /* \"#utility.yul\":11357:11360   */\n              dup6\n                /* \"#utility.yul\":11350:11354   */\n              0x20\n                /* \"#utility.yul\":11343:11348   */\n              dup7\n                /* \"#utility.yul\":11339:11355   */\n              add\n                /* \"#utility.yul\":11304:11369   */\n              tag_55\n              jump\t// in\n            tag_215:\n                /* \"#utility.yul\":11394:11400   */\n              dup1\n                /* \"#utility.yul\":11389:11392   */\n              dup5\n                /* \"#utility.yul\":11385:11401   */\n              add\n                /* \"#utility.yul\":11378:11401   */\n              swap2\n              pop\n                /* \"#utility.yul\":11127:11407   */\n              pop\n                /* \"#utility.yul\":11017:11407   */\n              swap3\n              swap2\n              pop\n              pop\n              jump\t// out\n                /* \"#utility.yul\":11413:11688   */\n            tag_45:\n                /* \"#utility.yul\":11545:11548   */\n              0x00\n                /* \"#utility.yul\":11567:11662   */\n              tag_217\n                /* \"#utility.yul\":11658:11661   */\n              dup3\n                /* \"#utility.yul\":11649:11655   */\n              dup5\n                /* \"#utility.yul\":11567:11662   */\n              tag_84\n              jump\t// in\n            tag_217:\n                /* \"#utility.yul\":11560:11662   */\n              swap2\n              pop\n                /* \"#utility.yul\":11679:11682   */\n              dup2\n                /* \"#utility.yul\":11672:11682   */\n              swap1\n              pop\n                /* \"#utility.yul\":11413:11688   */\n              swap3\n              swap2\n              pop\n              pop\n              jump\t// out\n\n            auxdata: 0xa2646970667358221220a185de29d37c88e8c230599cfd768b9ff1c359d7a04773754816bc33acc4d02b64736f6c634300081a0033\n        }\n    }\n\n    auxdata: 0xa2646970667358221220281369eceb0de9b7fb1f5e0f92dd4140d088faf63cd3910eb1340a9d798b1b2764736f6c634300081a0033\n}\n",
				"bytecode": {
					"linkReferences": {},
					"object": "6080604052348015600e575f80fd5b50610dea8061001c5f395ff3fe608060405234801561000f575f80fd5b506004361061004a575f3560e01c80631563700f1461004e5780631dda65411461006a578063c5f19c2014610074578063f39f3035146100a4575b5f80fd5b61006860048036038101906100639190610330565b6100d4565b005b610072610178565b005b61008e6004803603810190610089919061036e565b610203565b60405161009b91906103a8565b60405180910390f35b6100be60048036038101906100b9919061036e565b6102b2565b6040516100cb919061043b565b60405180910390f35b5f82815481106100e7576100e6610454565b5b905f5260205f20015f9054906101000a900473ffffffffffffffffffffffffffffffffffffffff1673ffffffffffffffffffffffffffffffffffffffff166369404ebd826040518263ffffffff1660e01b815260040161014791906103a8565b5f604051808303815f87803b15801561015e575f80fd5b505af1158015610170573d5f803e3d5ffd5b505050505050565b5f604051610185906102ec565b604051809103905ff08015801561019e573d5f803e3d5ffd5b5090505f81908060018154018082558091505060019003905f5260205f20015f9091909190916101000a81548173ffffffffffffffffffffffffffffffffffffffff021916908373ffffffffffffffffffffffffffffffffffffffff16021790555050565b5f80828154811061021757610216610454565b5b905f5260205f20015f9054906101000a900473ffffffffffffffffffffffffffffffffffffffff1673ffffffffffffffffffffffffffffffffffffffff1663a6b7fc5b6040518163ffffffff1660e01b8152600401602060405180830381865afa158015610287573d5f803e3d5ffd5b505050506040513d601f19601f820116820180604052508101906102ab9190610495565b9050919050565b5f81815481106102c0575f80fd5b905f5260205f20015f915054906101000a900473ffffffffffffffffffffffffffffffffffffffff1681565b6108f4806104c183390190565b5f80fd5b5f819050919050565b61030f816102fd565b8114610319575f80fd5b50565b5f8135905061032a81610306565b92915050565b5f8060408385031215610346576103456102f9565b5b5f6103538582860161031c565b92505060206103648582860161031c565b9150509250929050565b5f60208284031215610383576103826102f9565b5b5f6103908482850161031c565b91505092915050565b6103a2816102fd565b82525050565b5f6020820190506103bb5f830184610399565b92915050565b5f73ffffffffffffffffffffffffffffffffffffffff82169050919050565b5f819050919050565b5f6104036103fe6103f9846103c1565b6103e0565b6103c1565b9050919050565b5f610414826103e9565b9050919050565b5f6104258261040a565b9050919050565b6104358161041b565b82525050565b5f60208201905061044e5f83018461042c565b92915050565b7f4e487b71000000000000000000000000000000000000000000000000000000005f52603260045260245ffd5b5f8151905061048f81610306565b92915050565b5f602082840312156104aa576104a96102f9565b5b5f6104b784828501610481565b9150509291505056fe6080604052348015600e575f80fd5b506108d88061001c5f395ff3fe608060405234801561000f575f80fd5b5060043610610055575f3560e01c80632ebce6311461005957806343ec8f471461008a57806369404ebd146100ba578063a6b7fc5b146100d6578063e1b3202a146100f4575b5f80fd5b610073600480360381019061006e91906102cb565b610110565b604051610081929190610375565b60405180910390f35b6100a4600480360381019061009f91906104cf565b6101c5565b6040516100b19190610516565b60405180910390f35b6100d460048036038101906100cf91906102cb565b6101f2565b005b6100de6101fb565b6040516100eb9190610516565b60405180910390f35b61010e6004803603810190610109919061052f565b610203565b005b6001818154811061011f575f80fd5b905f5260205f2090600202015f91509050805f015490806001018054610144906105b6565b80601f0160208091040260200160405190810160405280929190818152602001828054610170906105b6565b80156101bb5780601f10610192576101008083540402835291602001916101bb565b820191905f5260205f20905b81548152906001019060200180831161019e57829003601f168201915b5050505050905082565b6002818051602081018201805184825260208301602085012081835280955050505050505f915090505481565b805f8190555050565b5f8054905090565b6001604051806040016040528083815260200184815250908060018154018082558091505060019003905f5260205f2090600202015f909190919091505f820151815f0155602082015181600101908161025d9190610783565b50505080600283604051610271919061088c565b9081526020016040518091039020819055505050565b5f604051905090565b5f80fd5b5f80fd5b5f819050919050565b6102aa81610298565b81146102b4575f80fd5b50565b5f813590506102c5816102a1565b92915050565b5f602082840312156102e0576102df610290565b5b5f6102ed848285016102b7565b91505092915050565b6102ff81610298565b82525050565b5f81519050919050565b5f82825260208201905092915050565b8281835e5f83830152505050565b5f601f19601f8301169050919050565b5f61034782610305565b610351818561030f565b935061036181856020860161031f565b61036a8161032d565b840191505092915050565b5f6040820190506103885f8301856102f6565b818103602083015261039a818461033d565b90509392505050565b5f80fd5b5f80fd5b7f4e487b71000000000000000000000000000000000000000000000000000000005f52604160045260245ffd5b6103e18261032d565b810181811067ffffffffffffffff82111715610400576103ff6103ab565b5b80604052505050565b5f610412610287565b905061041e82826103d8565b919050565b5f67ffffffffffffffff82111561043d5761043c6103ab565b5b6104468261032d565b9050602081019050919050565b828183375f83830152505050565b5f61047361046e84610423565b610409565b90508281526020810184848401111561048f5761048e6103a7565b5b61049a848285610453565b509392505050565b5f82601f8301126104b6576104b56103a3565b5b81356104c6848260208601610461565b91505092915050565b5f602082840312156104e4576104e3610290565b5b5f82013567ffffffffffffffff81111561050157610500610294565b5b61050d848285016104a2565b91505092915050565b5f6020820190506105295f8301846102f6565b92915050565b5f806040838503121561054557610544610290565b5b5f83013567ffffffffffffffff81111561056257610561610294565b5b61056e858286016104a2565b925050602061057f858286016102b7565b9150509250929050565b7f4e487b71000000000000000000000000000000000000000000000000000000005f52602260045260245ffd5b5f60028204905060018216806105cd57607f821691505b6020821081036105e0576105df610589565b5b50919050565b5f819050815f5260205f209050919050565b5f6020601f8301049050919050565b5f82821b905092915050565b5f600883026106427fffffffffffffffffffffffffffffffffffffffffffffffffffffffffffffffff82610607565b61064c8683610607565b95508019841693508086168417925050509392505050565b5f819050919050565b5f61068761068261067d84610298565b610664565b610298565b9050919050565b5f819050919050565b6106a08361066d565b6106b46106ac8261068e565b848454610613565b825550505050565b5f90565b6106c86106bc565b6106d3818484610697565b505050565b5b818110156106f6576106eb5f826106c0565b6001810190506106d9565b5050565b601f82111561073b5761070c816105e6565b610715846105f8565b81016020851015610724578190505b610738610730856105f8565b8301826106d8565b50505b505050565b5f82821c905092915050565b5f61075b5f1984600802610740565b1980831691505092915050565b5f610773838361074c565b9150826002028217905092915050565b61078c82610305565b67ffffffffffffffff8111156107a5576107a46103ab565b5b6107af82546105b6565b6107ba8282856106fa565b5f60209050601f8311600181146107eb575f84156107d9578287015190505b6107e38582610768565b86555061084a565b601f1984166107f9866105e6565b5f5b82811015610820578489015182556001820191506020850194506020810190506107fb565b8683101561083d5784890151610839601f89168261074c565b8355505b6001600288020188555050505b505050505050565b5f81905092915050565b5f61086682610305565b6108708185610852565b935061088081856020860161031f565b80840191505092915050565b5f610897828461085c565b91508190509291505056fea2646970667358221220a185de29d37c88e8c230599cfd768b9ff1c359d7a04773754816bc33acc4d02b64736f6c634300081a0033a2646970667358221220281369eceb0de9b7fb1f5e0f92dd4140d088faf63cd3910eb1340a9d798b1b2764736f6c634300081a0033",
					"opcodes": "PUSH1 0x80 PUSH1 0x40 MSTORE CALLVALUE DUP1 ISZERO PUSH1 0xE JUMPI PUSH0 DUP1 REVERT JUMPDEST POP PUSH2 0xDEA DUP1 PUSH2 0x1C PUSH0 CODECOPY PUSH0 RETURN INVALID PUSH1 0x80 PUSH1 0x40 MSTORE CALLVALUE DUP1 ISZERO PUSH2 0xF JUMPI PUSH0 DUP1 REVERT JUMPDEST POP PUSH1 0x4 CALLDATASIZE LT PUSH2 0x4A JUMPI PUSH0 CALLDATALOAD PUSH1 0xE0 SHR DUP1 PUSH4 0x1563700F EQ PUSH2 0x4E JUMPI DUP1 PUSH4 0x1DDA6541 EQ PUSH2 0x6A JUMPI DUP1 PUSH4 0xC5F19C20 EQ PUSH2 0x74 JUMPI DUP1 PUSH4 0xF39F3035 EQ PUSH2 0xA4 JUMPI JUMPDEST PUSH0 DUP1 REVERT JUMPDEST PUSH2 0x68 PUSH1 0x4 DUP1 CALLDATASIZE SUB DUP2 ADD SWAP1 PUSH2 0x63 SWAP2 SWAP1 PUSH2 0x330 JUMP JUMPDEST PUSH2 0xD4 JUMP JUMPDEST STOP JUMPDEST PUSH2 0x72 PUSH2 0x178 JUMP JUMPDEST STOP JUMPDEST PUSH2 0x8E PUSH1 0x4 DUP1 CALLDATASIZE SUB DUP2 ADD SWAP1 PUSH2 0x89 SWAP2 SWAP1 PUSH2 0x36E JUMP JUMPDEST PUSH2 0x203 JUMP JUMPDEST PUSH1 0x40 MLOAD PUSH2 0x9B SWAP2 SWAP1 PUSH2 0x3A8 JUMP JUMPDEST PUSH1 0x40 MLOAD DUP1 SWAP2 SUB SWAP1 RETURN JUMPDEST PUSH2 0xBE PUSH1 0x4 DUP1 CALLDATASIZE SUB DUP2 ADD SWAP1 PUSH2 0xB9 SWAP2 SWAP1 PUSH2 0x36E JUMP JUMPDEST PUSH2 0x2B2 JUMP JUMPDEST PUSH1 0x40 MLOAD PUSH2 0xCB SWAP2 SWAP1 PUSH2 0x43B JUMP JUMPDEST PUSH1 0x40 MLOAD DUP1 SWAP2 SUB SWAP1 RETURN JUMPDEST PUSH0 DUP3 DUP2 SLOAD DUP2 LT PUSH2 0xE7 JUMPI PUSH2 0xE6 PUSH2 0x454 JUMP JUMPDEST JUMPDEST SWAP1 PUSH0 MSTORE PUSH1 0x20 PUSH0 KECCAK256 ADD PUSH0 SWAP1 SLOAD SWAP1 PUSH2 0x100 EXP SWAP1 DIV PUSH20 0xFFFFFFFFFFFFFFFFFFFFFFFFFFFFFFFFFFFFFFFF AND PUSH20 0xFFFFFFFFFFFFFFFFFFFFFFFFFFFFFFFFFFFFFFFF AND PUSH4 0x69404EBD DUP3 PUSH1 0x40 MLOAD DUP3 PUSH4 0xFFFFFFFF AND PUSH1 0xE0 SHL DUP2 MSTORE PUSH1 0x4 ADD PUSH2 0x147 SWAP2 SWAP1 PUSH2 0x3A8 JUMP JUMPDEST PUSH0 PUSH1 0x40 MLOAD DUP1 DUP4 SUB DUP2 PUSH0 DUP8 DUP1 EXTCODESIZE ISZERO DUP1 ISZERO PUSH2 0x15E JUMPI PUSH0 DUP1 REVERT JUMPDEST POP GAS CALL ISZERO DUP1 ISZERO PUSH2 0x170 JUMPI RETURNDATASIZE PUSH0 DUP1 RETURNDATACOPY RETURNDATASIZE PUSH0 REVERT JUMPDEST POP POP POP POP POP POP JUMP JUMPDEST PUSH0 PUSH1 0x40 MLOAD PUSH2 0x185 SWAP1 PUSH2 0x2EC JUMP JUMPDEST PUSH1 0x40 MLOAD DUP1 SWAP2 SUB SWAP1 PUSH0 CREATE DUP1 ISZERO DUP1 ISZERO PUSH2 0x19E JUMPI RETURNDATASIZE PUSH0 DUP1 RETURNDATACOPY RETURNDATASIZE PUSH0 REVERT JUMPDEST POP SWAP1 POP PUSH0 DUP2 SWAP1 DUP1 PUSH1 0x1 DUP2 SLOAD ADD DUP1 DUP3 SSTORE DUP1 SWAP2 POP POP PUSH1 0x1 SWAP1 SUB SWAP1 PUSH0 MSTORE PUSH1 0x20 PUSH0 KECCAK256 ADD PUSH0 SWAP1 SWAP2 SWAP1 SWAP2 SWAP1 SWAP2 PUSH2 0x100 EXP DUP2 SLOAD DUP2 PUSH20 0xFFFFFFFFFFFFFFFFFFFFFFFFFFFFFFFFFFFFFFFF MUL NOT AND SWAP1 DUP4 PUSH20 0xFFFFFFFFFFFFFFFFFFFFFFFFFFFFFFFFFFFFFFFF AND MUL OR SWAP1 SSTORE POP POP JUMP JUMPDEST PUSH0 DUP1 DUP3 DUP2 SLOAD DUP2 LT PUSH2 0x217 JUMPI PUSH2 0x216 PUSH2 0x454 JUMP JUMPDEST JUMPDEST SWAP1 PUSH0 MSTORE PUSH1 0x20 PUSH0 KECCAK256 ADD PUSH0 SWAP1 SLOAD SWAP1 PUSH2 0x100 EXP SWAP1 DIV PUSH20 0xFFFFFFFFFFFFFFFFFFFFFFFFFFFFFFFFFFFFFFFF AND PUSH20 0xFFFFFFFFFFFFFFFFFFFFFFFFFFFFFFFFFFFFFFFF AND PUSH4 0xA6B7FC5B PUSH1 0x40 MLOAD DUP2 PUSH4 0xFFFFFFFF AND PUSH1 0xE0 SHL DUP2 MSTORE PUSH1 0x4 ADD PUSH1 0x20 PUSH1 0x40 MLOAD DUP1 DUP4 SUB DUP2 DUP7 GAS STATICCALL ISZERO DUP1 ISZERO PUSH2 0x287 JUMPI RETURNDATASIZE PUSH0 DUP1 RETURNDATACOPY RETURNDATASIZE PUSH0 REVERT JUMPDEST POP POP POP POP PUSH1 0x40 MLOAD RETURNDATASIZE PUSH1 0x1F NOT PUSH1 0x1F DUP3 ADD AND DUP3 ADD DUP1 PUSH1 0x40 MSTORE POP DUP2 ADD SWAP1 PUSH2 0x2AB SWAP2 SWAP1 PUSH2 0x495 JUMP JUMPDEST SWAP1 POP SWAP2 SWAP1 POP JUMP JUMPDEST PUSH0 DUP2 DUP2 SLOAD DUP2 LT PUSH2 0x2C0 JUMPI PUSH0 DUP1 REVERT JUMPDEST SWAP1 PUSH0 MSTORE PUSH1 0x20 PUSH0 KECCAK256 ADD PUSH0 SWAP2 POP SLOAD SWAP1 PUSH2 0x100 EXP SWAP1 DIV PUSH20 0xFFFFFFFFFFFFFFFFFFFFFFFFFFFFFFFFFFFFFFFF AND DUP2 JUMP JUMPDEST PUSH2 0x8F4 DUP1 PUSH2 0x4C1 DUP4 CODECOPY ADD SWAP1 JUMP JUMPDEST PUSH0 DUP1 REVERT JUMPDEST PUSH0 DUP2 SWAP1 POP SWAP2 SWAP1 POP JUMP JUMPDEST PUSH2 0x30F DUP2 PUSH2 0x2FD JUMP JUMPDEST DUP2 EQ PUSH2 0x319 JUMPI PUSH0 DUP1 REVERT JUMPDEST POP JUMP JUMPDEST PUSH0 DUP2 CALLDATALOAD SWAP1 POP PUSH2 0x32A DUP2 PUSH2 0x306 JUMP JUMPDEST SWAP3 SWAP2 POP POP JUMP JUMPDEST PUSH0 DUP1 PUSH1 0x40 DUP4 DUP6 SUB SLT ISZERO PUSH2 0x346 JUMPI PUSH2 0x345 PUSH2 0x2F9 JUMP JUMPDEST JUMPDEST PUSH0 PUSH2 0x353 DUP6 DUP3 DUP7 ADD PUSH2 0x31C JUMP JUMPDEST SWAP3 POP POP PUSH1 0x20 PUSH2 0x364 DUP6 DUP3 DUP7 ADD PUSH2 0x31C JUMP JUMPDEST SWAP2 POP POP SWAP3 POP SWAP3 SWAP1 POP JUMP JUMPDEST PUSH0 PUSH1 0x20 DUP3 DUP5 SUB SLT ISZERO PUSH2 0x383 JUMPI PUSH2 0x382 PUSH2 0x2F9 JUMP JUMPDEST JUMPDEST PUSH0 PUSH2 0x390 DUP5 DUP3 DUP6 ADD PUSH2 0x31C JUMP JUMPDEST SWAP2 POP POP SWAP3 SWAP2 POP POP JUMP JUMPDEST PUSH2 0x3A2 DUP2 PUSH2 0x2FD JUMP JUMPDEST DUP3 MSTORE POP POP JUMP JUMPDEST PUSH0 PUSH1 0x20 DUP3 ADD SWAP1 POP PUSH2 0x3BB PUSH0 DUP4 ADD DUP5 PUSH2 0x399 JUMP JUMPDEST SWAP3 SWAP2 POP POP JUMP JUMPDEST PUSH0 PUSH20 0xFFFFFFFFFFFFFFFFFFFFFFFFFFFFFFFFFFFFFFFF DUP3 AND SWAP1 POP SWAP2 SWAP1 POP JUMP JUMPDEST PUSH0 DUP2 SWAP1 POP SWAP2 SWAP1 POP JUMP JUMPDEST PUSH0 PUSH2 0x403 PUSH2 0x3FE PUSH2 0x3F9 DUP5 PUSH2 0x3C1 JUMP JUMPDEST PUSH2 0x3E0 JUMP JUMPDEST PUSH2 0x3C1 JUMP JUMPDEST SWAP1 POP SWAP2 SWAP1 POP JUMP JUMPDEST PUSH0 PUSH2 0x414 DUP3 PUSH2 0x3E9 JUMP JUMPDEST SWAP1 POP SWAP2 SWAP1 POP JUMP JUMPDEST PUSH0 PUSH2 0x425 DUP3 PUSH2 0x40A JUMP JUMPDEST SWAP1 POP SWAP2 SWAP1 POP JUMP JUMPDEST PUSH2 0x435 DUP2 PUSH2 0x41B JUMP JUMPDEST DUP3 MSTORE POP POP JUMP JUMPDEST PUSH0 PUSH1 0x20 DUP3 ADD SWAP1 POP PUSH2 0x44E PUSH0 DUP4 ADD DUP5 PUSH2 0x42C JUMP JUMPDEST SWAP3 SWAP2 POP POP JUMP JUMPDEST PUSH32 0x4E487B7100000000000000000000000000000000000000000000000000000000 PUSH0 MSTORE PUSH1 0x32 PUSH1 0x4 MSTORE PUSH1 0x24 PUSH0 REVERT JUMPDEST PUSH0 DUP2 MLOAD SWAP1 POP PUSH2 0x48F DUP2 PUSH2 0x306 JUMP JUMPDEST SWAP3 SWAP2 POP POP JUMP JUMPDEST PUSH0 PUSH1 0x20 DUP3 DUP5 SUB SLT ISZERO PUSH2 0x4AA JUMPI PUSH2 0x4A9 PUSH2 0x2F9 JUMP JUMPDEST JUMPDEST PUSH0 PUSH2 0x4B7 DUP5 DUP3 DUP6 ADD PUSH2 0x481 JUMP JUMPDEST SWAP2 POP POP SWAP3 SWAP2 POP POP JUMP INVALID PUSH1 0x80 PUSH1 0x40 MSTORE CALLVALUE DUP1 ISZERO PUSH1 0xE JUMPI PUSH0 DUP1 REVERT JUMPDEST POP PUSH2 0x8D8 DUP1 PUSH2 0x1C PUSH0 CODECOPY PUSH0 RETURN INVALID PUSH1 0x80 PUSH1 0x40 MSTORE CALLVALUE DUP1 ISZERO PUSH2 0xF JUMPI PUSH0 DUP1 REVERT JUMPDEST POP PUSH1 0x4 CALLDATASIZE LT PUSH2 0x55 JUMPI PUSH0 CALLDATALOAD PUSH1 0xE0 SHR DUP1 PUSH4 0x2EBCE631 EQ PUSH2 0x59 JUMPI DUP1 PUSH4 0x43EC8F47 EQ PUSH2 0x8A JUMPI DUP1 PUSH4 0x69404EBD EQ PUSH2 0xBA JUMPI DUP1 PUSH4 0xA6B7FC5B EQ PUSH2 0xD6 JUMPI DUP1 PUSH4 0xE1B3202A EQ PUSH2 0xF4 JUMPI JUMPDEST PUSH0 DUP1 REVERT JUMPDEST PUSH2 0x73 PUSH1 0x4 DUP1 CALLDATASIZE SUB DUP2 ADD SWAP1 PUSH2 0x6E SWAP2 SWAP1 PUSH2 0x2CB JUMP JUMPDEST PUSH2 0x110 JUMP JUMPDEST PUSH1 0x40 MLOAD PUSH2 0x81 SWAP3 SWAP2 SWAP1 PUSH2 0x375 JUMP JUMPDEST PUSH1 0x40 MLOAD DUP1 SWAP2 SUB SWAP1 RETURN JUMPDEST PUSH2 0xA4 PUSH1 0x4 DUP1 CALLDATASIZE SUB DUP2 ADD SWAP1 PUSH2 0x9F SWAP2 SWAP1 PUSH2 0x4CF JUMP JUMPDEST PUSH2 0x1C5 JUMP JUMPDEST PUSH1 0x40 MLOAD PUSH2 0xB1 SWAP2 SWAP1 PUSH2 0x516 JUMP JUMPDEST PUSH1 0x40 MLOAD DUP1 SWAP2 SUB SWAP1 RETURN JUMPDEST PUSH2 0xD4 PUSH1 0x4 DUP1 CALLDATASIZE SUB DUP2 ADD SWAP1 PUSH2 0xCF SWAP2 SWAP1 PUSH2 0x2CB JUMP JUMPDEST PUSH2 0x1F2 JUMP JUMPDEST STOP JUMPDEST PUSH2 0xDE PUSH2 0x1FB JUMP JUMPDEST PUSH1 0x40 MLOAD PUSH2 0xEB SWAP2 SWAP1 PUSH2 0x516 JUMP JUMPDEST PUSH1 0x40 MLOAD DUP1 SWAP2 SUB SWAP1 RETURN JUMPDEST PUSH2 0x10E PUSH1 0x4 DUP1 CALLDATASIZE SUB DUP2 ADD SWAP1 PUSH2 0x109 SWAP2 SWAP1 PUSH2 0x52F JUMP JUMPDEST PUSH2 0x203 JUMP JUMPDEST STOP JUMPDEST PUSH1 0x1 DUP2 DUP2 SLOAD DUP2 LT PUSH2 0x11F JUMPI PUSH0 DUP1 REVERT JUMPDEST SWAP1 PUSH0 MSTORE PUSH1 0x20 PUSH0 KECCAK256 SWAP1 PUSH1 0x2 MUL ADD PUSH0 SWAP2 POP SWAP1 POP DUP1 PUSH0 ADD SLOAD SWAP1 DUP1 PUSH1 0x1 ADD DUP1 SLOAD PUSH2 0x144 SWAP1 PUSH2 0x5B6 JUMP JUMPDEST DUP1 PUSH1 0x1F ADD PUSH1 0x20 DUP1 SWAP2 DIV MUL PUSH1 0x20 ADD PUSH1 0x40 MLOAD SWAP1 DUP2 ADD PUSH1 0x40 MSTORE DUP1 SWAP3 SWAP2 SWAP1 DUP2 DUP2 MSTORE PUSH1 0x20 ADD DUP3 DUP1 SLOAD PUSH2 0x170 SWAP1 PUSH2 0x5B6 JUMP JUMPDEST DUP1 ISZERO PUSH2 0x1BB JUMPI DUP1 PUSH1 0x1F LT PUSH2 0x192 JUMPI PUSH2 0x100 DUP1 DUP4 SLOAD DIV MUL DUP4 MSTORE SWAP2 PUSH1 0x20 ADD SWAP2 PUSH2 0x1BB JUMP JUMPDEST DUP3 ADD SWAP2 SWAP1 PUSH0 MSTORE PUSH1 0x20 PUSH0 KECCAK256 SWAP1 JUMPDEST DUP2 SLOAD DUP2 MSTORE SWAP1 PUSH1 0x1 ADD SWAP1 PUSH1 0x20 ADD DUP1 DUP4 GT PUSH2 0x19E JUMPI DUP3 SWAP1 SUB PUSH1 0x1F AND DUP3 ADD SWAP2 JUMPDEST POP POP POP POP POP SWAP1 POP DUP3 JUMP JUMPDEST PUSH1 0x2 DUP2 DUP1 MLOAD PUSH1 0x20 DUP2 ADD DUP3 ADD DUP1 MLOAD DUP5 DUP3 MSTORE PUSH1 0x20 DUP4 ADD PUSH1 0x20 DUP6 ADD KECCAK256 DUP2 DUP4 MSTORE DUP1 SWAP6 POP POP POP POP POP POP PUSH0 SWAP2 POP SWAP1 POP SLOAD DUP2 JUMP JUMPDEST DUP1 PUSH0 DUP2 SWAP1 SSTORE POP POP JUMP JUMPDEST PUSH0 DUP1 SLOAD SWAP1 POP SWAP1 JUMP JUMPDEST PUSH1 0x1 PUSH1 0x40 MLOAD DUP1 PUSH1 0x40 ADD PUSH1 0x40 MSTORE DUP1 DUP4 DUP2 MSTORE PUSH1 0x20 ADD DUP5 DUP2 MSTORE POP SWAP1 DUP1 PUSH1 0x1 DUP2 SLOAD ADD DUP1 DUP3 SSTORE DUP1 SWAP2 POP POP PUSH1 0x1 SWAP1 SUB SWAP1 PUSH0 MSTORE PUSH1 0x20 PUSH0 KECCAK256 SWAP1 PUSH1 0x2 MUL ADD PUSH0 SWAP1 SWAP2 SWAP1 SWAP2 SWAP1 SWAP2 POP PUSH0 DUP3 ADD MLOAD DUP2 PUSH0 ADD SSTORE PUSH1 0x20 DUP3 ADD MLOAD DUP2 PUSH1 0x1 ADD SWAP1 DUP2 PUSH2 0x25D SWAP2 SWAP1 PUSH2 0x783 JUMP JUMPDEST POP POP POP DUP1 PUSH1 0x2 DUP4 PUSH1 0x40 MLOAD PUSH2 0x271 SWAP2 SWAP1 PUSH2 0x88C JUMP JUMPDEST SWAP1 DUP2 MSTORE PUSH1 0x20 ADD PUSH1 0x40 MLOAD DUP1 SWAP2 SUB SWAP1 KECCAK256 DUP2 SWAP1 SSTORE POP POP POP JUMP JUMPDEST PUSH0 PUSH1 0x40 MLOAD SWAP1 POP SWAP1 JUMP JUMPDEST PUSH0 DUP1 REVERT JUMPDEST PUSH0 DUP1 REVERT JUMPDEST PUSH0 DUP2 SWAP1 POP SWAP2 SWAP1 POP JUMP JUMPDEST PUSH2 0x2AA DUP2 PUSH2 0x298 JUMP JUMPDEST DUP2 EQ PUSH2 0x2B4 JUMPI PUSH0 DUP1 REVERT JUMPDEST POP JUMP JUMPDEST PUSH0 DUP2 CALLDATALOAD SWAP1 POP PUSH2 0x2C5 DUP2 PUSH2 0x2A1 JUMP JUMPDEST SWAP3 SWAP2 POP POP JUMP JUMPDEST PUSH0 PUSH1 0x20 DUP3 DUP5 SUB SLT ISZERO PUSH2 0x2E0 JUMPI PUSH2 0x2DF PUSH2 0x290 JUMP JUMPDEST JUMPDEST PUSH0 PUSH2 0x2ED DUP5 DUP3 DUP6 ADD PUSH2 0x2B7 JUMP JUMPDEST SWAP2 POP POP SWAP3 SWAP2 POP POP JUMP JUMPDEST PUSH2 0x2FF DUP2 PUSH2 0x298 JUMP JUMPDEST DUP3 MSTORE POP POP JUMP JUMPDEST PUSH0 DUP2 MLOAD SWAP1 POP SWAP2 SWAP1 POP JUMP JUMPDEST PUSH0 DUP3 DUP3 MSTORE PUSH1 0x20 DUP3 ADD SWAP1 POP SWAP3 SWAP2 POP POP JUMP JUMPDEST DUP3 DUP2 DUP4 MCOPY PUSH0 DUP4 DUP4 ADD MSTORE POP POP POP JUMP JUMPDEST PUSH0 PUSH1 0x1F NOT PUSH1 0x1F DUP4 ADD AND SWAP1 POP SWAP2 SWAP1 POP JUMP JUMPDEST PUSH0 PUSH2 0x347 DUP3 PUSH2 0x305 JUMP JUMPDEST PUSH2 0x351 DUP2 DUP6 PUSH2 0x30F JUMP JUMPDEST SWAP4 POP PUSH2 0x361 DUP2 DUP6 PUSH1 0x20 DUP7 ADD PUSH2 0x31F JUMP JUMPDEST PUSH2 0x36A DUP2 PUSH2 0x32D JUMP JUMPDEST DUP5 ADD SWAP2 POP POP SWAP3 SWAP2 POP POP JUMP JUMPDEST PUSH0 PUSH1 0x40 DUP3 ADD SWAP1 POP PUSH2 0x388 PUSH0 DUP4 ADD DUP6 PUSH2 0x2F6 JUMP JUMPDEST DUP2 DUP2 SUB PUSH1 0x20 DUP4 ADD MSTORE PUSH2 0x39A DUP2 DUP5 PUSH2 0x33D JUMP JUMPDEST SWAP1 POP SWAP4 SWAP3 POP POP POP JUMP JUMPDEST PUSH0 DUP1 REVERT JUMPDEST PUSH0 DUP1 REVERT JUMPDEST PUSH32 0x4E487B7100000000000000000000000000000000000000000000000000000000 PUSH0 MSTORE PUSH1 0x41 PUSH1 0x4 MSTORE PUSH1 0x24 PUSH0 REVERT JUMPDEST PUSH2 0x3E1 DUP3 PUSH2 0x32D JUMP JUMPDEST DUP2 ADD DUP2 DUP2 LT PUSH8 0xFFFFFFFFFFFFFFFF DUP3 GT OR ISZERO PUSH2 0x400 JUMPI PUSH2 0x3FF PUSH2 0x3AB JUMP JUMPDEST JUMPDEST DUP1 PUSH1 0x40 MSTORE POP POP POP JUMP JUMPDEST PUSH0 PUSH2 0x412 PUSH2 0x287 JUMP JUMPDEST SWAP1 POP PUSH2 0x41E DUP3 DUP3 PUSH2 0x3D8 JUMP JUMPDEST SWAP2 SWAP1 POP JUMP JUMPDEST PUSH0 PUSH8 0xFFFFFFFFFFFFFFFF DUP3 GT ISZERO PUSH2 0x43D JUMPI PUSH2 0x43C PUSH2 0x3AB JUMP JUMPDEST JUMPDEST PUSH2 0x446 DUP3 PUSH2 0x32D JUMP JUMPDEST SWAP1 POP PUSH1 0x20 DUP2 ADD SWAP1 POP SWAP2 SWAP1 POP JUMP JUMPDEST DUP3 DUP2 DUP4 CALLDATACOPY PUSH0 DUP4 DUP4 ADD MSTORE POP POP POP JUMP JUMPDEST PUSH0 PUSH2 0x473 PUSH2 0x46E DUP5 PUSH2 0x423 JUMP JUMPDEST PUSH2 0x409 JUMP JUMPDEST SWAP1 POP DUP3 DUP2 MSTORE PUSH1 0x20 DUP2 ADD DUP5 DUP5 DUP5 ADD GT ISZERO PUSH2 0x48F JUMPI PUSH2 0x48E PUSH2 0x3A7 JUMP JUMPDEST JUMPDEST PUSH2 0x49A DUP5 DUP3 DUP6 PUSH2 0x453 JUMP JUMPDEST POP SWAP4 SWAP3 POP POP POP JUMP JUMPDEST PUSH0 DUP3 PUSH1 0x1F DUP4 ADD SLT PUSH2 0x4B6 JUMPI PUSH2 0x4B5 PUSH2 0x3A3 JUMP JUMPDEST JUMPDEST DUP2 CALLDATALOAD PUSH2 0x4C6 DUP5 DUP3 PUSH1 0x20 DUP7 ADD PUSH2 0x461 JUMP JUMPDEST SWAP2 POP POP SWAP3 SWAP2 POP POP JUMP JUMPDEST PUSH0 PUSH1 0x20 DUP3 DUP5 SUB SLT ISZERO PUSH2 0x4E4 JUMPI PUSH2 0x4E3 PUSH2 0x290 JUMP JUMPDEST JUMPDEST PUSH0 DUP3 ADD CALLDATALOAD PUSH8 0xFFFFFFFFFFFFFFFF DUP2 GT ISZERO PUSH2 0x501 JUMPI PUSH2 0x500 PUSH2 0x294 JUMP JUMPDEST JUMPDEST PUSH2 0x50D DUP5 DUP3 DUP6 ADD PUSH2 0x4A2 JUMP JUMPDEST SWAP2 POP POP SWAP3 SWAP2 POP POP JUMP JUMPDEST PUSH0 PUSH1 0x20 DUP3 ADD SWAP1 POP PUSH2 0x529 PUSH0 DUP4 ADD DUP5 PUSH2 0x2F6 JUMP JUMPDEST SWAP3 SWAP2 POP POP JUMP JUMPDEST PUSH0 DUP1 PUSH1 0x40 DUP4 DUP6 SUB SLT ISZERO PUSH2 0x545 JUMPI PUSH2 0x544 PUSH2 0x290 JUMP JUMPDEST JUMPDEST PUSH0 DUP4 ADD CALLDATALOAD PUSH8 0xFFFFFFFFFFFFFFFF DUP2 GT ISZERO PUSH2 0x562 JUMPI PUSH2 0x561 PUSH2 0x294 JUMP JUMPDEST JUMPDEST PUSH2 0x56E DUP6 DUP3 DUP7 ADD PUSH2 0x4A2 JUMP JUMPDEST SWAP3 POP POP PUSH1 0x20 PUSH2 0x57F DUP6 DUP3 DUP7 ADD PUSH2 0x2B7 JUMP JUMPDEST SWAP2 POP POP SWAP3 POP SWAP3 SWAP1 POP JUMP JUMPDEST PUSH32 0x4E487B7100000000000000000000000000000000000000000000000000000000 PUSH0 MSTORE PUSH1 0x22 PUSH1 0x4 MSTORE PUSH1 0x24 PUSH0 REVERT JUMPDEST PUSH0 PUSH1 0x2 DUP3 DIV SWAP1 POP PUSH1 0x1 DUP3 AND DUP1 PUSH2 0x5CD JUMPI PUSH1 0x7F DUP3 AND SWAP2 POP JUMPDEST PUSH1 0x20 DUP3 LT DUP2 SUB PUSH2 0x5E0 JUMPI PUSH2 0x5DF PUSH2 0x589 JUMP JUMPDEST JUMPDEST POP SWAP2 SWAP1 POP JUMP JUMPDEST PUSH0 DUP2 SWAP1 POP DUP2 PUSH0 MSTORE PUSH1 0x20 PUSH0 KECCAK256 SWAP1 POP SWAP2 SWAP1 POP JUMP JUMPDEST PUSH0 PUSH1 0x20 PUSH1 0x1F DUP4 ADD DIV SWAP1 POP SWAP2 SWAP1 POP JUMP JUMPDEST PUSH0 DUP3 DUP3 SHL SWAP1 POP SWAP3 SWAP2 POP POP JUMP JUMPDEST PUSH0 PUSH1 0x8 DUP4 MUL PUSH2 0x642 PUSH32 0xFFFFFFFFFFFFFFFFFFFFFFFFFFFFFFFFFFFFFFFFFFFFFFFFFFFFFFFFFFFFFFFF DUP3 PUSH2 0x607 JUMP JUMPDEST PUSH2 0x64C DUP7 DUP4 PUSH2 0x607 JUMP JUMPDEST SWAP6 POP DUP1 NOT DUP5 AND SWAP4 POP DUP1 DUP7 AND DUP5 OR SWAP3 POP POP POP SWAP4 SWAP3 POP POP POP JUMP JUMPDEST PUSH0 DUP2 SWAP1 POP SWAP2 SWAP1 POP JUMP JUMPDEST PUSH0 PUSH2 0x687 PUSH2 0x682 PUSH2 0x67D DUP5 PUSH2 0x298 JUMP JUMPDEST PUSH2 0x664 JUMP JUMPDEST PUSH2 0x298 JUMP JUMPDEST SWAP1 POP SWAP2 SWAP1 POP JUMP JUMPDEST PUSH0 DUP2 SWAP1 POP SWAP2 SWAP1 POP JUMP JUMPDEST PUSH2 0x6A0 DUP4 PUSH2 0x66D JUMP JUMPDEST PUSH2 0x6B4 PUSH2 0x6AC DUP3 PUSH2 0x68E JUMP JUMPDEST DUP5 DUP5 SLOAD PUSH2 0x613 JUMP JUMPDEST DUP3 SSTORE POP POP POP POP JUMP JUMPDEST PUSH0 SWAP1 JUMP JUMPDEST PUSH2 0x6C8 PUSH2 0x6BC JUMP JUMPDEST PUSH2 0x6D3 DUP2 DUP5 DUP5 PUSH2 0x697 JUMP JUMPDEST POP POP POP JUMP JUMPDEST JUMPDEST DUP2 DUP2 LT ISZERO PUSH2 0x6F6 JUMPI PUSH2 0x6EB PUSH0 DUP3 PUSH2 0x6C0 JUMP JUMPDEST PUSH1 0x1 DUP2 ADD SWAP1 POP PUSH2 0x6D9 JUMP JUMPDEST POP POP JUMP JUMPDEST PUSH1 0x1F DUP3 GT ISZERO PUSH2 0x73B JUMPI PUSH2 0x70C DUP2 PUSH2 0x5E6 JUMP JUMPDEST PUSH2 0x715 DUP5 PUSH2 0x5F8 JUMP JUMPDEST DUP2 ADD PUSH1 0x20 DUP6 LT ISZERO PUSH2 0x724 JUMPI DUP2 SWAP1 POP JUMPDEST PUSH2 0x738 PUSH2 0x730 DUP6 PUSH2 0x5F8 JUMP JUMPDEST DUP4 ADD DUP3 PUSH2 0x6D8 JUMP JUMPDEST POP POP JUMPDEST POP POP POP JUMP JUMPDEST PUSH0 DUP3 DUP3 SHR SWAP1 POP SWAP3 SWAP2 POP POP JUMP JUMPDEST PUSH0 PUSH2 0x75B PUSH0 NOT DUP5 PUSH1 0x8 MUL PUSH2 0x740 JUMP JUMPDEST NOT DUP1 DUP4 AND SWAP2 POP POP SWAP3 SWAP2 POP POP JUMP JUMPDEST PUSH0 PUSH2 0x773 DUP4 DUP4 PUSH2 0x74C JUMP JUMPDEST SWAP2 POP DUP3 PUSH1 0x2 MUL DUP3 OR SWAP1 POP SWAP3 SWAP2 POP POP JUMP JUMPDEST PUSH2 0x78C DUP3 PUSH2 0x305 JUMP JUMPDEST PUSH8 0xFFFFFFFFFFFFFFFF DUP2 GT ISZERO PUSH2 0x7A5 JUMPI PUSH2 0x7A4 PUSH2 0x3AB JUMP JUMPDEST JUMPDEST PUSH2 0x7AF DUP3 SLOAD PUSH2 0x5B6 JUMP JUMPDEST PUSH2 0x7BA DUP3 DUP3 DUP6 PUSH2 0x6FA JUMP JUMPDEST PUSH0 PUSH1 0x20 SWAP1 POP PUSH1 0x1F DUP4 GT PUSH1 0x1 DUP2 EQ PUSH2 0x7EB JUMPI PUSH0 DUP5 ISZERO PUSH2 0x7D9 JUMPI DUP3 DUP8 ADD MLOAD SWAP1 POP JUMPDEST PUSH2 0x7E3 DUP6 DUP3 PUSH2 0x768 JUMP JUMPDEST DUP7 SSTORE POP PUSH2 0x84A JUMP JUMPDEST PUSH1 0x1F NOT DUP5 AND PUSH2 0x7F9 DUP7 PUSH2 0x5E6 JUMP JUMPDEST PUSH0 JUMPDEST DUP3 DUP2 LT ISZERO PUSH2 0x820 JUMPI DUP5 DUP10 ADD MLOAD DUP3 SSTORE PUSH1 0x1 DUP3 ADD SWAP2 POP PUSH1 0x20 DUP6 ADD SWAP5 POP PUSH1 0x20 DUP2 ADD SWAP1 POP PUSH2 0x7FB JUMP JUMPDEST DUP7 DUP4 LT ISZERO PUSH2 0x83D JUMPI DUP5 DUP10 ADD MLOAD PUSH2 0x839 PUSH1 0x1F DUP10 AND DUP3 PUSH2 0x74C JUMP JUMPDEST DUP4 SSTORE POP JUMPDEST PUSH1 0x1 PUSH1 0x2 DUP9 MUL ADD DUP9 SSTORE POP POP POP JUMPDEST POP POP POP POP POP POP JUMP JUMPDEST PUSH0 DUP2 SWAP1 POP SWAP3 SWAP2 POP POP JUMP JUMPDEST PUSH0 PUSH2 0x866 DUP3 PUSH2 0x305 JUMP JUMPDEST PUSH2 0x870 DUP2 DUP6 PUSH2 0x852 JUMP JUMPDEST SWAP4 POP PUSH2 0x880 DUP2 DUP6 PUSH1 0x20 DUP7 ADD PUSH2 0x31F JUMP JUMPDEST DUP1 DUP5 ADD SWAP2 POP POP SWAP3 SWAP2 POP POP JUMP JUMPDEST PUSH0 PUSH2 0x897 DUP3 DUP5 PUSH2 0x85C JUMP JUMPDEST SWAP2 POP DUP2 SWAP1 POP SWAP3 SWAP2 POP POP JUMP INVALID LOG2 PUSH5 0x6970667358 0x22 SLT KECCAK256 LOG1 DUP6 0xDE 0x29 0xD3 PUSH29 0x88E8C230599CFD768B9FF1C359D7A04773754816BC33ACC4D02B64736F PUSH13 0x634300081A0033A26469706673 PC 0x22 SLT KECCAK256 0x28 SGT PUSH10 0xECEB0DE9B7FB1F5E0F92 0xDD COINBASE BLOCKHASH 0xD0 DUP9 STATICCALL 0xF6 EXTCODECOPY 0xD3 SWAP2 0xE 0xB1 CALLVALUE EXP SWAP14 PUSH26 0x8B1B2764736F6C634300081A0033000000000000000000000000 "
				},
				"gasEstimates": {
					"creation": {
						"codeDepositCost": "712400",
						"executionCost": "745",
						"totalCost": "713145"
					},
					"external": {
						"createSimpleStorageContract()": "infinite",
						"listOfSimpleStorageContracts(uint256)": "infinite",
						"sfGet(uint256)": "infinite",
						"sfStore(uint256,uint256)": "infinite"
					}
				},
				"methodIdentifiers": {
					"createSimpleStorageContract()": "1dda6541",
					"listOfSimpleStorageContracts(uint256)": "f39f3035",
					"sfGet(uint256)": "c5f19c20",
					"sfStore(uint256,uint256)": "1563700f"
				}
			},
			"storageLayout": {
				"storage": [
					{
						"astId": 66,
						"contract": "Contracts/StorageFactory.sol:StorageFactory",
						"label": "listOfSimpleStorageContracts",
						"offset": 0,
						"slot": "0",
						"type": "t_array(t_contract(SimpleStorage)58)dyn_storage"
					}
				],
				"types": {
					"t_array(t_contract(SimpleStorage)58)dyn_storage": {
						"base": "t_contract(SimpleStorage)58",
						"encoding": "dynamic_array",
						"label": "contract SimpleStorage[]",
						"numberOfBytes": "32"
					},
					"t_contract(SimpleStorage)58": {
						"encoding": "inplace",
						"label": "contract SimpleStorage",
						"numberOfBytes": "20"
					}
				}
			},
			"userdoc": {
				"kind": "user",
				"methods": {},
				"version": 1
			}
		}
	}
}